{
  "contractName": "CarbonCredit",
  "abi": [
    {
      "inputs": [],
      "stateMutability": "nonpayable",
      "type": "constructor"
    },
    {
      "inputs": [],
      "name": "InvalidShortString",
      "type": "error"
    },
    {
      "inputs": [
        {
          "internalType": "string",
          "name": "str",
          "type": "string"
        }
      ],
      "name": "StringTooLong",
      "type": "error"
    },
    {
      "anonymous": false,
      "inputs": [
        {
          "indexed": true,
          "internalType": "address",
          "name": "owner",
          "type": "address"
        },
        {
          "indexed": true,
          "internalType": "address",
          "name": "spender",
          "type": "address"
        },
        {
          "indexed": false,
          "internalType": "uint256",
          "name": "value",
          "type": "uint256"
        }
      ],
      "name": "Approval",
      "type": "event"
    },
    {
      "anonymous": false,
      "inputs": [],
      "name": "EIP712DomainChanged",
      "type": "event"
    },
    {
      "anonymous": false,
      "inputs": [
        {
          "indexed": true,
          "internalType": "address",
          "name": "previousOwner",
          "type": "address"
        },
        {
          "indexed": true,
          "internalType": "address",
          "name": "newOwner",
          "type": "address"
        }
      ],
      "name": "OwnershipTransferred",
      "type": "event"
    },
    {
      "anonymous": false,
      "inputs": [
        {
          "indexed": true,
          "internalType": "address",
          "name": "from",
          "type": "address"
        },
        {
          "indexed": true,
          "internalType": "address",
          "name": "to",
          "type": "address"
        },
        {
          "indexed": false,
          "internalType": "uint256",
          "name": "value",
          "type": "uint256"
        }
      ],
      "name": "Transfer",
      "type": "event"
    },
    {
      "inputs": [],
      "name": "DOMAIN_SEPARATOR",
      "outputs": [
        {
          "internalType": "bytes32",
          "name": "",
          "type": "bytes32"
        }
      ],
      "stateMutability": "view",
      "type": "function"
    },
    {
      "inputs": [
        {
          "internalType": "address",
          "name": "owner",
          "type": "address"
        },
        {
          "internalType": "address",
          "name": "spender",
          "type": "address"
        }
      ],
      "name": "allowance",
      "outputs": [
        {
          "internalType": "uint256",
          "name": "",
          "type": "uint256"
        }
      ],
      "stateMutability": "view",
      "type": "function"
    },
    {
      "inputs": [
        {
          "internalType": "address",
          "name": "spender",
          "type": "address"
        },
        {
          "internalType": "uint256",
          "name": "amount",
          "type": "uint256"
        }
      ],
      "name": "approve",
      "outputs": [
        {
          "internalType": "bool",
          "name": "",
          "type": "bool"
        }
      ],
      "stateMutability": "nonpayable",
      "type": "function"
    },
    {
      "inputs": [
        {
          "internalType": "address",
          "name": "account",
          "type": "address"
        }
      ],
      "name": "balanceOf",
      "outputs": [
        {
          "internalType": "uint256",
          "name": "",
          "type": "uint256"
        }
      ],
      "stateMutability": "view",
      "type": "function"
    },
    {
      "inputs": [],
      "name": "decimals",
      "outputs": [
        {
          "internalType": "uint8",
          "name": "",
          "type": "uint8"
        }
      ],
      "stateMutability": "view",
      "type": "function"
    },
    {
      "inputs": [
        {
          "internalType": "address",
          "name": "spender",
          "type": "address"
        },
        {
          "internalType": "uint256",
          "name": "subtractedValue",
          "type": "uint256"
        }
      ],
      "name": "decreaseAllowance",
      "outputs": [
        {
          "internalType": "bool",
          "name": "",
          "type": "bool"
        }
      ],
      "stateMutability": "nonpayable",
      "type": "function"
    },
    {
      "inputs": [],
      "name": "eip712Domain",
      "outputs": [
        {
          "internalType": "bytes1",
          "name": "fields",
          "type": "bytes1"
        },
        {
          "internalType": "string",
          "name": "name",
          "type": "string"
        },
        {
          "internalType": "string",
          "name": "version",
          "type": "string"
        },
        {
          "internalType": "uint256",
          "name": "chainId",
          "type": "uint256"
        },
        {
          "internalType": "address",
          "name": "verifyingContract",
          "type": "address"
        },
        {
          "internalType": "bytes32",
          "name": "salt",
          "type": "bytes32"
        },
        {
          "internalType": "uint256[]",
          "name": "extensions",
          "type": "uint256[]"
        }
      ],
      "stateMutability": "view",
      "type": "function"
    },
    {
      "inputs": [
        {
          "internalType": "address",
          "name": "spender",
          "type": "address"
        },
        {
          "internalType": "uint256",
          "name": "addedValue",
          "type": "uint256"
        }
      ],
      "name": "increaseAllowance",
      "outputs": [
        {
          "internalType": "bool",
          "name": "",
          "type": "bool"
        }
      ],
      "stateMutability": "nonpayable",
      "type": "function"
    },
    {
      "inputs": [],
      "name": "name",
      "outputs": [
        {
          "internalType": "string",
          "name": "",
          "type": "string"
        }
      ],
      "stateMutability": "view",
      "type": "function"
    },
    {
      "inputs": [
        {
          "internalType": "address",
          "name": "owner",
          "type": "address"
        }
      ],
      "name": "nonces",
      "outputs": [
        {
          "internalType": "uint256",
          "name": "",
          "type": "uint256"
        }
      ],
      "stateMutability": "view",
      "type": "function"
    },
    {
      "inputs": [],
      "name": "owner",
      "outputs": [
        {
          "internalType": "address",
          "name": "",
          "type": "address"
        }
      ],
      "stateMutability": "view",
      "type": "function"
    },
    {
      "inputs": [
        {
          "internalType": "address",
          "name": "owner",
          "type": "address"
        },
        {
          "internalType": "address",
          "name": "spender",
          "type": "address"
        },
        {
          "internalType": "uint256",
          "name": "value",
          "type": "uint256"
        },
        {
          "internalType": "uint256",
          "name": "deadline",
          "type": "uint256"
        },
        {
          "internalType": "uint8",
          "name": "v",
          "type": "uint8"
        },
        {
          "internalType": "bytes32",
          "name": "r",
          "type": "bytes32"
        },
        {
          "internalType": "bytes32",
          "name": "s",
          "type": "bytes32"
        }
      ],
      "name": "permit",
      "outputs": [],
      "stateMutability": "nonpayable",
      "type": "function"
    },
    {
      "inputs": [],
      "name": "renounceOwnership",
      "outputs": [],
      "stateMutability": "nonpayable",
      "type": "function"
    },
    {
      "inputs": [],
      "name": "symbol",
      "outputs": [
        {
          "internalType": "string",
          "name": "",
          "type": "string"
        }
      ],
      "stateMutability": "view",
      "type": "function"
    },
    {
      "inputs": [],
      "name": "totalSupply",
      "outputs": [
        {
          "internalType": "uint256",
          "name": "",
          "type": "uint256"
        }
      ],
      "stateMutability": "view",
      "type": "function"
    },
    {
      "inputs": [
        {
          "internalType": "address",
          "name": "to",
          "type": "address"
        },
        {
          "internalType": "uint256",
          "name": "amount",
          "type": "uint256"
        }
      ],
      "name": "transfer",
      "outputs": [
        {
          "internalType": "bool",
          "name": "",
          "type": "bool"
        }
      ],
      "stateMutability": "nonpayable",
      "type": "function"
    },
    {
      "inputs": [
        {
          "internalType": "address",
          "name": "from",
          "type": "address"
        },
        {
          "internalType": "address",
          "name": "to",
          "type": "address"
        },
        {
          "internalType": "uint256",
          "name": "amount",
          "type": "uint256"
        }
      ],
      "name": "transferFrom",
      "outputs": [
        {
          "internalType": "bool",
          "name": "",
          "type": "bool"
        }
      ],
      "stateMutability": "nonpayable",
      "type": "function"
    },
    {
      "inputs": [
        {
          "internalType": "address",
          "name": "newOwner",
          "type": "address"
        }
      ],
      "name": "transferOwnership",
      "outputs": [],
      "stateMutability": "nonpayable",
      "type": "function"
    },
    {
      "inputs": [
        {
          "internalType": "address",
          "name": "to",
          "type": "address"
        },
        {
          "internalType": "uint256",
          "name": "amount",
          "type": "uint256"
        }
      ],
      "name": "mint",
      "outputs": [],
      "stateMutability": "nonpayable",
      "type": "function"
    }
  ],
  "bytecode": "0x61016060405234801562000011575f80fd5b506040518060400160405280600c81526020017f436172626f6e4372656469740000000000000000000000000000000000000000815250806040518060400160405280600181526020017f31000000000000000000000000000000000000000000000000000000000000008152506040518060400160405280600c81526020017f436172626f6e43726564697400000000000000000000000000000000000000008152506040518060400160405280600381526020017f43424300000000000000000000000000000000000000000000000000000000008152508160039081620000fc9190620007ef565b5080600490816200010e9190620007ef565b50505062000131620001256200022660201b60201c565b6200022d60201b60201c565b62000147600683620002f060201b90919060201c565b610120818152505062000165600782620002f060201b90919060201c565b6101408181525050818051906020012060e08181525050808051906020012061010081815250504660a08181525050620001a46200034560201b60201c565b608081815250503073ffffffffffffffffffffffffffffffffffffffff1660c08173ffffffffffffffffffffffffffffffffffffffff16815250505050506200022033620001f7620003a160201b60201c565b600a62000205919062000a5c565b61271062000214919062000aac565b620003a960201b60201c565b62000dcc565b5f33905090565b5f60055f9054906101000a900473ffffffffffffffffffffffffffffffffffffffff1690508160055f6101000a81548173ffffffffffffffffffffffffffffffffffffffff021916908373ffffffffffffffffffffffffffffffffffffffff1602179055508173ffffffffffffffffffffffffffffffffffffffff168173ffffffffffffffffffffffffffffffffffffffff167f8be0079c531659141344cd1fd0a4f28419497f9722a3daafe3b4186f6b6457e060405160405180910390a35050565b5f60208351101562000315576200030d836200050e60201b60201c565b90506200033f565b8262000327836200057860201b60201c565b5f019081620003379190620007ef565b5060ff5f1b90505b92915050565b5f7f8b73c3c69bb8fe3d512ecc4cf759cc79239f7b179b0ffacaa9a75d522b39400f60e0516101005146306040516020016200038695949392919062000b64565b60405160208183030381529060405280519060200120905090565b5f6012905090565b5f73ffffffffffffffffffffffffffffffffffffffff168273ffffffffffffffffffffffffffffffffffffffff16036200041a576040517f08c379a0000000000000000000000000000000000000000000000000000000008152600401620004119062000c1d565b60405180910390fd5b6200042d5f83836200058160201b60201c565b8060025f82825462000440919062000c3d565b92505081905550805f808473ffffffffffffffffffffffffffffffffffffffff1673ffffffffffffffffffffffffffffffffffffffff1681526020019081526020015f205f82825401925050819055508173ffffffffffffffffffffffffffffffffffffffff165f73ffffffffffffffffffffffffffffffffffffffff167fddf252ad1be2c89b69c2b068fc378daa952ba7f163c4a11628f55a4df523b3ef83604051620004ef919062000c77565b60405180910390a36200050a5f83836200058660201b60201c565b5050565b5f80829050601f815111156200055d57826040517f305a27a900000000000000000000000000000000000000000000000000000000815260040162000554919062000d0c565b60405180910390fd5b8051816200056b9062000d5d565b5f1c175f1b915050919050565b5f819050919050565b505050565b505050565b5f81519050919050565b7f4e487b71000000000000000000000000000000000000000000000000000000005f52604160045260245ffd5b7f4e487b71000000000000000000000000000000000000000000000000000000005f52602260045260245ffd5b5f60028204905060018216806200060757607f821691505b6020821081036200061d576200061c620005c2565b5b50919050565b5f819050815f5260205f209050919050565b5f6020601f8301049050919050565b5f82821b905092915050565b5f60088302620006817fffffffffffffffffffffffffffffffffffffffffffffffffffffffffffffffff8262000644565b6200068d868362000644565b95508019841693508086168417925050509392505050565b5f819050919050565b5f819050919050565b5f620006d7620006d1620006cb84620006a5565b620006ae565b620006a5565b9050919050565b5f819050919050565b620006f283620006b7565b6200070a6200070182620006de565b84845462000650565b825550505050565b5f90565b6200072062000712565b6200072d818484620006e7565b505050565b5b818110156200075457620007485f8262000716565b60018101905062000733565b5050565b601f821115620007a3576200076d8162000623565b620007788462000635565b8101602085101562000788578190505b620007a0620007978562000635565b83018262000732565b50505b505050565b5f82821c905092915050565b5f620007c55f1984600802620007a8565b1980831691505092915050565b5f620007df8383620007b4565b9150826002028217905092915050565b620007fa826200058b565b67ffffffffffffffff81111562000816576200081562000595565b5b620008228254620005ef565b6200082f82828562000758565b5f60209050601f83116001811462000865575f841562000850578287015190505b6200085c8582620007d2565b865550620008cb565b601f198416620008758662000623565b5f5b828110156200089e5784890151825560018201915060208501945060208101905062000877565b86831015620008be5784890151620008ba601f891682620007b4565b8355505b6001600288020188555050505b505050505050565b7f4e487b71000000000000000000000000000000000000000000000000000000005f52601160045260245ffd5b5f8160011c9050919050565b5f808291508390505b60018511156200095d57808604811115620009355762000934620008d3565b5b6001851615620009455780820291505b8081029050620009558562000900565b945062000915565b94509492505050565b5f8262000977576001905062000a49565b8162000986575f905062000a49565b81600181146200099f5760028114620009aa57620009e0565b600191505062000a49565b60ff841115620009bf57620009be620008d3565b5b8360020a915084821115620009d957620009d8620008d3565b5b5062000a49565b5060208310610133831016604e8410600b841016171562000a1a5782820a90508381111562000a145762000a13620008d3565b5b62000a49565b62000a2984848460016200090c565b9250905081840481111562000a435762000a42620008d3565b5b81810290505b9392505050565b5f60ff82169050919050565b5f62000a6882620006a5565b915062000a758362000a50565b925062000aa47fffffffffffffffffffffffffffffffffffffffffffffffffffffffffffffffff848462000966565b905092915050565b5f62000ab882620006a5565b915062000ac583620006a5565b925082820262000ad581620006a5565b9150828204841483151762000aef5762000aee620008d3565b5b5092915050565b5f819050919050565b62000b0a8162000af6565b82525050565b62000b1b81620006a5565b82525050565b5f73ffffffffffffffffffffffffffffffffffffffff82169050919050565b5f62000b4c8262000b21565b9050919050565b62000b5e8162000b40565b82525050565b5f60a08201905062000b795f83018862000aff565b62000b88602083018762000aff565b62000b97604083018662000aff565b62000ba6606083018562000b10565b62000bb5608083018462000b53565b9695505050505050565b5f82825260208201905092915050565b7f45524332303a206d696e7420746f20746865207a65726f2061646472657373005f82015250565b5f62000c05601f8362000bbf565b915062000c128262000bcf565b602082019050919050565b5f6020820190508181035f83015262000c368162000bf7565b9050919050565b5f62000c4982620006a5565b915062000c5683620006a5565b925082820190508082111562000c715762000c70620008d3565b5b92915050565b5f60208201905062000c8c5f83018462000b10565b92915050565b5f5b8381101562000cb157808201518184015260208101905062000c94565b5f8484015250505050565b5f601f19601f8301169050919050565b5f62000cd8826200058b565b62000ce4818562000bbf565b935062000cf681856020860162000c92565b62000d018162000cbc565b840191505092915050565b5f6020820190508181035f83015262000d26818462000ccc565b905092915050565b5f81519050919050565b5f819050602082019050919050565b5f62000d54825162000af6565b80915050919050565b5f62000d698262000d2e565b8262000d758462000d38565b905062000d828162000d47565b9250602082101562000dc55762000dc07fffffffffffffffffffffffffffffffffffffffffffffffffffffffffffffffff8360200360080262000644565b831692505b5050919050565b60805160a05160c05160e0516101005161012051610140516126aa62000e1e5f395f61060d01525f6105d901525f61140301525f6113e201525f610f1c01525f610f7201525f610f9b01526126aa5ff3fe608060405234801561000f575f80fd5b506004361061011f575f3560e01c8063715018a6116100ab578063a457c2d71161006f578063a457c2d714610311578063a9059cbb14610341578063d505accf14610371578063dd62ed3e1461038d578063f2fde38b146103bd5761011f565b8063715018a6146102775780637ecebe001461028157806384b0196e146102b15780638da5cb5b146102d557806395d89b41146102f35761011f565b8063313ce567116100f2578063313ce567146101bf5780633644e515146101dd57806339509351146101fb57806340c10f191461022b57806370a08231146102475761011f565b806306fdde0314610123578063095ea7b31461014157806318160ddd1461017157806323b872dd1461018f575b5f80fd5b61012b6103d9565b604051610138919061182e565b60405180910390f35b61015b600480360381019061015691906118df565b610469565b6040516101689190611937565b60405180910390f35b61017961048b565b604051610186919061195f565b60405180910390f35b6101a960048036038101906101a49190611978565b610494565b6040516101b69190611937565b60405180910390f35b6101c76104c2565b6040516101d491906119e3565b60405180910390f35b6101e56104ca565b6040516101f29190611a14565b60405180910390f35b610215600480360381019061021091906118df565b6104d8565b6040516102229190611937565b60405180910390f35b610245600480360381019061024091906118df565b61050e565b005b610261600480360381019061025c9190611a2d565b610524565b60405161026e919061195f565b60405180910390f35b61027f610569565b005b61029b60048036038101906102969190611a2d565b61057c565b6040516102a8919061195f565b60405180910390f35b6102b96105c9565b6040516102cc9796959493929190611b58565b60405180910390f35b6102dd6106c6565b6040516102ea9190611bda565b60405180910390f35b6102fb6106ee565b604051610308919061182e565b60405180910390f35b61032b600480360381019061032691906118df565b61077e565b6040516103389190611937565b60405180910390f35b61035b600480360381019061035691906118df565b6107f3565b6040516103689190611937565b60405180910390f35b61038b60048036038101906103869190611c47565b610815565b005b6103a760048036038101906103a29190611ce4565b610954565b6040516103b4919061195f565b60405180910390f35b6103d760048036038101906103d29190611a2d565b6109d6565b005b6060600380546103e890611d4f565b80601f016020809104026020016040519081016040528092919081815260200182805461041490611d4f565b801561045f5780601f106104365761010080835404028352916020019161045f565b820191905f5260205f20905b81548152906001019060200180831161044257829003601f168201915b5050505050905090565b5f80610473610a58565b9050610480818585610a5f565b600191505092915050565b5f600254905090565b5f8061049e610a58565b90506104ab858285610c22565b6104b6858585610cad565b60019150509392505050565b5f6012905090565b5f6104d3610f19565b905090565b5f806104e2610a58565b90506105038185856104f48589610954565b6104fe9190611dac565b610a5f565b600191505092915050565b610516610fcf565b610520828261104d565b5050565b5f805f8373ffffffffffffffffffffffffffffffffffffffff1673ffffffffffffffffffffffffffffffffffffffff1681526020019081526020015f20549050919050565b610571610fcf565b61057a5f61119b565b565b5f6105c260085f8473ffffffffffffffffffffffffffffffffffffffff1673ffffffffffffffffffffffffffffffffffffffff1681526020019081526020015f2061125e565b9050919050565b5f6060805f805f606061060660067f000000000000000000000000000000000000000000000000000000000000000061126a90919063ffffffff16565b61063a60077f000000000000000000000000000000000000000000000000000000000000000061126a90919063ffffffff16565b46305f801b5f67ffffffffffffffff81111561065957610658611ddf565b5b6040519080825280602002602001820160405280156106875781602001602082028036833780820191505090505b507f0f00000000000000000000000000000000000000000000000000000000000000959493929190965096509650965096509650965090919293949596565b5f60055f9054906101000a900473ffffffffffffffffffffffffffffffffffffffff16905090565b6060600480546106fd90611d4f565b80601f016020809104026020016040519081016040528092919081815260200182805461072990611d4f565b80156107745780601f1061074b57610100808354040283529160200191610774565b820191905f5260205f20905b81548152906001019060200180831161075757829003601f168201915b5050505050905090565b5f80610788610a58565b90505f6107958286610954565b9050838110156107da576040517f08c379a00000000000000000000000000000000000000000000000000000000081526004016107d190611e7c565b60405180910390fd5b6107e78286868403610a5f565b60019250505092915050565b5f806107fd610a58565b905061080a818585610cad565b600191505092915050565b83421115610858576040517f08c379a000000000000000000000000000000000000000000000000000000000815260040161084f90611ee4565b60405180910390fd5b5f7f6e71edae12b1b97f4d1f60370fef10105fa2faae0126114a169c64845d6126c98888886108868c611317565b8960405160200161089c96959493929190611f02565b6040516020818303038152906040528051906020012090505f6108be82611372565b90505f6108cd8287878761138b565b90508973ffffffffffffffffffffffffffffffffffffffff168173ffffffffffffffffffffffffffffffffffffffff161461093d576040517f08c379a000000000000000000000000000000000000000000000000000000000815260040161093490611fab565b60405180910390fd5b6109488a8a8a610a5f565b50505050505050505050565b5f60015f8473ffffffffffffffffffffffffffffffffffffffff1673ffffffffffffffffffffffffffffffffffffffff1681526020019081526020015f205f8373ffffffffffffffffffffffffffffffffffffffff1673ffffffffffffffffffffffffffffffffffffffff1681526020019081526020015f2054905092915050565b6109de610fcf565b5f73ffffffffffffffffffffffffffffffffffffffff168173ffffffffffffffffffffffffffffffffffffffff1603610a4c576040517f08c379a0000000000000000000000000000000000000000000000000000000008152600401610a4390612039565b60405180910390fd5b610a558161119b565b50565b5f33905090565b5f73ffffffffffffffffffffffffffffffffffffffff168373ffffffffffffffffffffffffffffffffffffffff1603610acd576040517f08c379a0000000000000000000000000000000000000000000000000000000008152600401610ac4906120c7565b60405180910390fd5b5f73ffffffffffffffffffffffffffffffffffffffff168273ffffffffffffffffffffffffffffffffffffffff1603610b3b576040517f08c379a0000000000000000000000000000000000000000000000000000000008152600401610b3290612155565b60405180910390fd5b8060015f8573ffffffffffffffffffffffffffffffffffffffff1673ffffffffffffffffffffffffffffffffffffffff1681526020019081526020015f205f8473ffffffffffffffffffffffffffffffffffffffff1673ffffffffffffffffffffffffffffffffffffffff1681526020019081526020015f20819055508173ffffffffffffffffffffffffffffffffffffffff168373ffffffffffffffffffffffffffffffffffffffff167f8c5be1e5ebec7d5bd14f71427d1e84f3dd0314c0f7b2291e5b200ac8c7c3b92583604051610c15919061195f565b60405180910390a3505050565b5f610c2d8484610954565b90507fffffffffffffffffffffffffffffffffffffffffffffffffffffffffffffffff8114610ca75781811015610c99576040517f08c379a0000000000000000000000000000000000000000000000000000000008152600401610c90906121bd565b60405180910390fd5b610ca68484848403610a5f565b5b50505050565b5f73ffffffffffffffffffffffffffffffffffffffff168373ffffffffffffffffffffffffffffffffffffffff1603610d1b576040517f08c379a0000000000000000000000000000000000000000000000000000000008152600401610d129061224b565b60405180910390fd5b5f73ffffffffffffffffffffffffffffffffffffffff168273ffffffffffffffffffffffffffffffffffffffff1603610d89576040517f08c379a0000000000000000000000000000000000000000000000000000000008152600401610d80906122d9565b60405180910390fd5b610d948383836113b4565b5f805f8573ffffffffffffffffffffffffffffffffffffffff1673ffffffffffffffffffffffffffffffffffffffff1681526020019081526020015f2054905081811015610e17576040517f08c379a0000000000000000000000000000000000000000000000000000000008152600401610e0e90612367565b60405180910390fd5b8181035f808673ffffffffffffffffffffffffffffffffffffffff1673ffffffffffffffffffffffffffffffffffffffff1681526020019081526020015f2081905550815f808573ffffffffffffffffffffffffffffffffffffffff1673ffffffffffffffffffffffffffffffffffffffff1681526020019081526020015f205f82825401925050819055508273ffffffffffffffffffffffffffffffffffffffff168473ffffffffffffffffffffffffffffffffffffffff167fddf252ad1be2c89b69c2b068fc378daa952ba7f163c4a11628f55a4df523b3ef84604051610f00919061195f565b60405180910390a3610f138484846113b9565b50505050565b5f7f000000000000000000000000000000000000000000000000000000000000000073ffffffffffffffffffffffffffffffffffffffff163073ffffffffffffffffffffffffffffffffffffffff16148015610f9457507f000000000000000000000000000000000000000000000000000000000000000046145b15610fc1577f00000000000000000000000000000000000000000000000000000000000000009050610fcc565b610fc96113be565b90505b90565b610fd7610a58565b73ffffffffffffffffffffffffffffffffffffffff16610ff56106c6565b73ffffffffffffffffffffffffffffffffffffffff161461104b576040517f08c379a0000000000000000000000000000000000000000000000000000000008152600401611042906123cf565b60405180910390fd5b565b5f73ffffffffffffffffffffffffffffffffffffffff168273ffffffffffffffffffffffffffffffffffffffff16036110bb576040517f08c379a00000000000000000000000000000000000000000000000000000000081526004016110b290612437565b60405180910390fd5b6110c65f83836113b4565b8060025f8282546110d79190611dac565b92505081905550805f808473ffffffffffffffffffffffffffffffffffffffff1673ffffffffffffffffffffffffffffffffffffffff1681526020019081526020015f205f82825401925050819055508173ffffffffffffffffffffffffffffffffffffffff165f73ffffffffffffffffffffffffffffffffffffffff167fddf252ad1be2c89b69c2b068fc378daa952ba7f163c4a11628f55a4df523b3ef83604051611184919061195f565b60405180910390a36111975f83836113b9565b5050565b5f60055f9054906101000a900473ffffffffffffffffffffffffffffffffffffffff1690508160055f6101000a81548173ffffffffffffffffffffffffffffffffffffffff021916908373ffffffffffffffffffffffffffffffffffffffff1602179055508173ffffffffffffffffffffffffffffffffffffffff168173ffffffffffffffffffffffffffffffffffffffff167f8be0079c531659141344cd1fd0a4f28419497f9722a3daafe3b4186f6b6457e060405160405180910390a35050565b5f815f01549050919050565b606060ff5f1b83146112865761127f83611453565b9050611311565b81805461129290611d4f565b80601f01602080910402602001604051908101604052809291908181526020018280546112be90611d4f565b80156113095780601f106112e057610100808354040283529160200191611309565b820191905f5260205f20905b8154815290600101906020018083116112ec57829003601f168201915b505050505090505b92915050565b5f8060085f8473ffffffffffffffffffffffffffffffffffffffff1673ffffffffffffffffffffffffffffffffffffffff1681526020019081526020015f2090506113618161125e565b915061136c816114c5565b50919050565b5f61138461137e610f19565b836114d9565b9050919050565b5f805f61139a87878787611519565b915091506113a7816115f1565b8192505050949350505050565b505050565b505050565b5f7f8b73c3c69bb8fe3d512ecc4cf759cc79239f7b179b0ffacaa9a75d522b39400f7f00000000000000000000000000000000000000000000000000000000000000007f00000000000000000000000000000000000000000000000000000000000000004630604051602001611438959493929190612455565b60405160208183030381529060405280519060200120905090565b60605f61145f83611756565b90505f602067ffffffffffffffff81111561147d5761147c611ddf565b5b6040519080825280601f01601f1916602001820160405280156114af5781602001600182028036833780820191505090505b5090508181528360208201528092505050919050565b6001815f015f828254019250508190555050565b5f6040517f190100000000000000000000000000000000000000000000000000000000000081528360028201528260228201526042812091505092915050565b5f807f7fffffffffffffffffffffffffffffff5d576e7357a4501ddfe92f46681b20a0835f1c1115611551575f6003915091506115e8565b5f6001878787876040515f815260200160405260405161157494939291906124a6565b6020604051602081039080840390855afa158015611594573d5f803e3d5ffd5b5050506020604051035190505f73ffffffffffffffffffffffffffffffffffffffff168173ffffffffffffffffffffffffffffffffffffffff16036115e0575f600192509250506115e8565b805f92509250505b94509492505050565b5f6004811115611604576116036124e9565b5b816004811115611617576116166124e9565b5b03156117535760016004811115611631576116306124e9565b5b816004811115611644576116436124e9565b5b03611684576040517f08c379a000000000000000000000000000000000000000000000000000000000815260040161167b90612560565b60405180910390fd5b60026004811115611698576116976124e9565b5b8160048111156116ab576116aa6124e9565b5b036116eb576040517f08c379a00000000000000000000000000000000000000000000000000000000081526004016116e2906125c8565b60405180910390fd5b600360048111156116ff576116fe6124e9565b5b816004811115611712576117116124e9565b5b03611752576040517f08c379a000000000000000000000000000000000000000000000000000000000815260040161174990612656565b60405180910390fd5b5b50565b5f8060ff835f1c169050601f81111561179b576040517fb3512b0c00000000000000000000000000000000000000000000000000000000815260040160405180910390fd5b80915050919050565b5f81519050919050565b5f82825260208201905092915050565b5f5b838110156117db5780820151818401526020810190506117c0565b5f8484015250505050565b5f601f19601f8301169050919050565b5f611800826117a4565b61180a81856117ae565b935061181a8185602086016117be565b611823816117e6565b840191505092915050565b5f6020820190508181035f83015261184681846117f6565b905092915050565b5f80fd5b5f73ffffffffffffffffffffffffffffffffffffffff82169050919050565b5f61187b82611852565b9050919050565b61188b81611871565b8114611895575f80fd5b50565b5f813590506118a681611882565b92915050565b5f819050919050565b6118be816118ac565b81146118c8575f80fd5b50565b5f813590506118d9816118b5565b92915050565b5f80604083850312156118f5576118f461184e565b5b5f61190285828601611898565b9250506020611913858286016118cb565b9150509250929050565b5f8115159050919050565b6119318161191d565b82525050565b5f60208201905061194a5f830184611928565b92915050565b611959816118ac565b82525050565b5f6020820190506119725f830184611950565b92915050565b5f805f6060848603121561198f5761198e61184e565b5b5f61199c86828701611898565b93505060206119ad86828701611898565b92505060406119be868287016118cb565b9150509250925092565b5f60ff82169050919050565b6119dd816119c8565b82525050565b5f6020820190506119f65f8301846119d4565b92915050565b5f819050919050565b611a0e816119fc565b82525050565b5f602082019050611a275f830184611a05565b92915050565b5f60208284031215611a4257611a4161184e565b5b5f611a4f84828501611898565b91505092915050565b5f7fff0000000000000000000000000000000000000000000000000000000000000082169050919050565b611a8c81611a58565b82525050565b611a9b81611871565b82525050565b5f81519050919050565b5f82825260208201905092915050565b5f819050602082019050919050565b611ad3816118ac565b82525050565b5f611ae48383611aca565b60208301905092915050565b5f602082019050919050565b5f611b0682611aa1565b611b108185611aab565b9350611b1b83611abb565b805f5b83811015611b4b578151611b328882611ad9565b9750611b3d83611af0565b925050600181019050611b1e565b5085935050505092915050565b5f60e082019050611b6b5f83018a611a83565b8181036020830152611b7d81896117f6565b90508181036040830152611b9181886117f6565b9050611ba06060830187611950565b611bad6080830186611a92565b611bba60a0830185611a05565b81810360c0830152611bcc8184611afc565b905098975050505050505050565b5f602082019050611bed5f830184611a92565b92915050565b611bfc816119c8565b8114611c06575f80fd5b50565b5f81359050611c1781611bf3565b92915050565b611c26816119fc565b8114611c30575f80fd5b50565b5f81359050611c4181611c1d565b92915050565b5f805f805f805f60e0888a031215611c6257611c6161184e565b5b5f611c6f8a828b01611898565b9750506020611c808a828b01611898565b9650506040611c918a828b016118cb565b9550506060611ca28a828b016118cb565b9450506080611cb38a828b01611c09565b93505060a0611cc48a828b01611c33565b92505060c0611cd58a828b01611c33565b91505092959891949750929550565b5f8060408385031215611cfa57611cf961184e565b5b5f611d0785828601611898565b9250506020611d1885828601611898565b9150509250929050565b7f4e487b71000000000000000000000000000000000000000000000000000000005f52602260045260245ffd5b5f6002820490506001821680611d6657607f821691505b602082108103611d7957611d78611d22565b5b50919050565b7f4e487b71000000000000000000000000000000000000000000000000000000005f52601160045260245ffd5b5f611db6826118ac565b9150611dc1836118ac565b9250828201905080821115611dd957611dd8611d7f565b5b92915050565b7f4e487b71000000000000000000000000000000000000000000000000000000005f52604160045260245ffd5b7f45524332303a2064656372656173656420616c6c6f77616e63652062656c6f775f8201527f207a65726f000000000000000000000000000000000000000000000000000000602082015250565b5f611e666025836117ae565b9150611e7182611e0c565b604082019050919050565b5f6020820190508181035f830152611e9381611e5a565b9050919050565b7f45524332305065726d69743a206578706972656420646561646c696e650000005f82015250565b5f611ece601d836117ae565b9150611ed982611e9a565b602082019050919050565b5f6020820190508181035f830152611efb81611ec2565b9050919050565b5f60c082019050611f155f830189611a05565b611f226020830188611a92565b611f2f6040830187611a92565b611f3c6060830186611950565b611f496080830185611950565b611f5660a0830184611950565b979650505050505050565b7f45524332305065726d69743a20696e76616c6964207369676e617475726500005f82015250565b5f611f95601e836117ae565b9150611fa082611f61565b602082019050919050565b5f6020820190508181035f830152611fc281611f89565b9050919050565b7f4f776e61626c653a206e6577206f776e657220697320746865207a65726f20615f8201527f6464726573730000000000000000000000000000000000000000000000000000602082015250565b5f6120236026836117ae565b915061202e82611fc9565b604082019050919050565b5f6020820190508181035f83015261205081612017565b9050919050565b7f45524332303a20617070726f76652066726f6d20746865207a65726f206164645f8201527f7265737300000000000000000000000000000000000000000000000000000000602082015250565b5f6120b16024836117ae565b91506120bc82612057565b604082019050919050565b5f6020820190508181035f8301526120de816120a5565b9050919050565b7f45524332303a20617070726f766520746f20746865207a65726f2061646472655f8201527f7373000000000000000000000000000000000000000000000000000000000000602082015250565b5f61213f6022836117ae565b915061214a826120e5565b604082019050919050565b5f6020820190508181035f83015261216c81612133565b9050919050565b7f45524332303a20696e73756666696369656e7420616c6c6f77616e63650000005f82015250565b5f6121a7601d836117ae565b91506121b282612173565b602082019050919050565b5f6020820190508181035f8301526121d48161219b565b9050919050565b7f45524332303a207472616e736665722066726f6d20746865207a65726f2061645f8201527f6472657373000000000000000000000000000000000000000000000000000000602082015250565b5f6122356025836117ae565b9150612240826121db565b604082019050919050565b5f6020820190508181035f83015261226281612229565b9050919050565b7f45524332303a207472616e7366657220746f20746865207a65726f20616464725f8201527f6573730000000000000000000000000000000000000000000000000000000000602082015250565b5f6122c36023836117ae565b91506122ce82612269565b604082019050919050565b5f6020820190508181035f8301526122f0816122b7565b9050919050565b7f45524332303a207472616e7366657220616d6f756e74206578636565647320625f8201527f616c616e63650000000000000000000000000000000000000000000000000000602082015250565b5f6123516026836117ae565b915061235c826122f7565b604082019050919050565b5f6020820190508181035f83015261237e81612345565b9050919050565b7f4f776e61626c653a2063616c6c6572206973206e6f7420746865206f776e65725f82015250565b5f6123b96020836117ae565b91506123c482612385565b602082019050919050565b5f6020820190508181035f8301526123e6816123ad565b9050919050565b7f45524332303a206d696e7420746f20746865207a65726f2061646472657373005f82015250565b5f612421601f836117ae565b915061242c826123ed565b602082019050919050565b5f6020820190508181035f83015261244e81612415565b9050919050565b5f60a0820190506124685f830188611a05565b6124756020830187611a05565b6124826040830186611a05565b61248f6060830185611950565b61249c6080830184611a92565b9695505050505050565b5f6080820190506124b95f830187611a05565b6124c660208301866119d4565b6124d36040830185611a05565b6124e06060830184611a05565b95945050505050565b7f4e487b71000000000000000000000000000000000000000000000000000000005f52602160045260245ffd5b7f45434453413a20696e76616c6964207369676e617475726500000000000000005f82015250565b5f61254a6018836117ae565b915061255582612516565b602082019050919050565b5f6020820190508181035f8301526125778161253e565b9050919050565b7f45434453413a20696e76616c6964207369676e6174757265206c656e677468005f82015250565b5f6125b2601f836117ae565b91506125bd8261257e565b602082019050919050565b5f6020820190508181035f8301526125df816125a6565b9050919050565b7f45434453413a20696e76616c6964207369676e6174757265202773272076616c5f8201527f7565000000000000000000000000000000000000000000000000000000000000602082015250565b5f6126406022836117ae565b915061264b826125e6565b604082019050919050565b5f6020820190508181035f83015261266d81612634565b905091905056fea2646970667358221220ecde3c4b227e2f501c3dad4b11b62d73f465a5b017a5630dffe181c06d3b535a64736f6c63430008140033",
  "immutableReferences": {
    "3495": [
      {
        "length": 32,
        "start": 3995
      }
    ],
    "3497": [
      {
        "length": 32,
        "start": 3954
      }
    ],
    "3499": [
      {
        "length": 32,
        "start": 3868
      }
    ],
    "3501": [
      {
        "length": 32,
        "start": 5090
      }
    ],
    "3503": [
      {
        "length": 32,
        "start": 5123
      }
    ],
    "3506": [
      {
        "length": 32,
        "start": 1497
      }
    ],
    "3509": [
      {
        "length": 32,
        "start": 1549
      }
    ]
  },
  "source": "// SPDX-License-Identifier: MIT\r\n// Compatible with OpenZeppelin Contracts ^5.0.0\r\npragma solidity ^0.8.20;\r\n\r\nimport \"@openzeppelin/contracts/token/ERC20/ERC20.sol\";\r\nimport \"@openzeppelin/contracts/access/Ownable.sol\";\r\nimport \"@openzeppelin/contracts/token/ERC20/extensions/ERC20Permit.sol\";\r\n\r\ncontract CarbonCredit is ERC20, Ownable, ERC20Permit {\r\n    constructor()\r\n        ERC20(\"CarbonCredit\", \"CBC\")\r\n        Ownable()\r\n        ERC20Permit(\"CarbonCredit\")\r\n    {\r\n        _mint(msg.sender, 10000 * 10 ** decimals());\r\n    }\r\n\r\n    function mint(address to, uint256 amount) public onlyOwner {\r\n        _mint(to, amount);\r\n    }\r\n}\r\n",
  "sourcePath": "C:\\Users\\Yash kanjariya\\Desktop\\Projects\\AOH_BoiledRice\\web3\\contracts\\token.sol",
  "compiler": {
    "name": "solc",
    "version": "0.8.20+commit.a1b79de6.Emscripten.clang"
  },
  "schemaVersion": "3.4.16",
  "updatedAt": "2024-03-30T20:44:07.907Z",
  "devdoc": {
    "events": {
      "Approval(address,address,uint256)": {
        "details": "Emitted when the allowance of a `spender` for an `owner` is set by a call to {approve}. `value` is the new allowance."
      },
      "EIP712DomainChanged()": {
        "details": "MAY be emitted to signal that the domain could have changed."
      },
      "Transfer(address,address,uint256)": {
        "details": "Emitted when `value` tokens are moved from one account (`from`) to another (`to`). Note that `value` may be zero."
      }
    },
    "kind": "dev",
    "methods": {
      "DOMAIN_SEPARATOR()": {
        "details": "Returns the domain separator used in the encoding of the signature for {permit}, as defined by {EIP712}."
      },
      "allowance(address,address)": {
        "details": "See {IERC20-allowance}."
      },
      "approve(address,uint256)": {
        "details": "See {IERC20-approve}. NOTE: If `amount` is the maximum `uint256`, the allowance is not updated on `transferFrom`. This is semantically equivalent to an infinite approval. Requirements: - `spender` cannot be the zero address."
      },
      "balanceOf(address)": {
        "details": "See {IERC20-balanceOf}."
      },
      "decimals()": {
        "details": "Returns the number of decimals used to get its user representation. For example, if `decimals` equals `2`, a balance of `505` tokens should be displayed to a user as `5.05` (`505 / 10 ** 2`). Tokens usually opt for a value of 18, imitating the relationship between Ether and Wei. This is the default value returned by this function, unless it's overridden. NOTE: This information is only used for _display_ purposes: it in no way affects any of the arithmetic of the contract, including {IERC20-balanceOf} and {IERC20-transfer}."
      },
      "decreaseAllowance(address,uint256)": {
        "details": "Atomically decreases the allowance granted to `spender` by the caller. This is an alternative to {approve} that can be used as a mitigation for problems described in {IERC20-approve}. Emits an {Approval} event indicating the updated allowance. Requirements: - `spender` cannot be the zero address. - `spender` must have allowance for the caller of at least `subtractedValue`."
      },
      "eip712Domain()": {
        "details": "See {EIP-5267}. _Available since v4.9._"
      },
      "increaseAllowance(address,uint256)": {
        "details": "Atomically increases the allowance granted to `spender` by the caller. This is an alternative to {approve} that can be used as a mitigation for problems described in {IERC20-approve}. Emits an {Approval} event indicating the updated allowance. Requirements: - `spender` cannot be the zero address."
      },
      "name()": {
        "details": "Returns the name of the token."
      },
      "nonces(address)": {
        "details": "Returns the current nonce for `owner`. This value must be included whenever a signature is generated for {permit}. Every successful call to {permit} increases ``owner``'s nonce by one. This prevents a signature from being used multiple times."
      },
      "owner()": {
        "details": "Returns the address of the current owner."
      },
      "permit(address,address,uint256,uint256,uint8,bytes32,bytes32)": {
        "details": "Sets `value` as the allowance of `spender` over ``owner``'s tokens, given ``owner``'s signed approval. IMPORTANT: The same issues {IERC20-approve} has related to transaction ordering also apply here. Emits an {Approval} event. Requirements: - `spender` cannot be the zero address. - `deadline` must be a timestamp in the future. - `v`, `r` and `s` must be a valid `secp256k1` signature from `owner` over the EIP712-formatted function arguments. - the signature must use ``owner``'s current nonce (see {nonces}). For more information on the signature format, see the https://eips.ethereum.org/EIPS/eip-2612#specification[relevant EIP section]. CAUTION: See Security Considerations above."
      },
      "renounceOwnership()": {
        "details": "Leaves the contract without owner. It will not be possible to call `onlyOwner` functions. Can only be called by the current owner. NOTE: Renouncing ownership will leave the contract without an owner, thereby disabling any functionality that is only available to the owner."
      },
      "symbol()": {
        "details": "Returns the symbol of the token, usually a shorter version of the name."
      },
      "totalSupply()": {
        "details": "See {IERC20-totalSupply}."
      },
      "transfer(address,uint256)": {
        "details": "See {IERC20-transfer}. Requirements: - `to` cannot be the zero address. - the caller must have a balance of at least `amount`."
      },
      "transferFrom(address,address,uint256)": {
        "details": "See {IERC20-transferFrom}. Emits an {Approval} event indicating the updated allowance. This is not required by the EIP. See the note at the beginning of {ERC20}. NOTE: Does not update the allowance if the current allowance is the maximum `uint256`. Requirements: - `from` and `to` cannot be the zero address. - `from` must have a balance of at least `amount`. - the caller must have allowance for ``from``'s tokens of at least `amount`."
      },
      "transferOwnership(address)": {
        "details": "Transfers ownership of the contract to a new account (`newOwner`). Can only be called by the current owner."
      }
    },
    "version": 1
  },
  "userdoc": {
    "kind": "user",
    "methods": {},
    "version": 1
  }
}