{
  "contractName": "CarbonCredit",
  "abi": [
    {
      "inputs": [],
      "stateMutability": "nonpayable",
      "type": "constructor"
    },
    {
      "inputs": [],
      "name": "InvalidShortString",
      "type": "error"
    },
    {
      "inputs": [
        {
          "internalType": "string",
          "name": "str",
          "type": "string"
        }
      ],
      "name": "StringTooLong",
      "type": "error"
    },
    {
      "anonymous": false,
      "inputs": [
        {
          "indexed": true,
          "internalType": "address",
          "name": "owner",
          "type": "address"
        },
        {
          "indexed": true,
          "internalType": "address",
          "name": "spender",
          "type": "address"
        },
        {
          "indexed": false,
          "internalType": "uint256",
          "name": "value",
          "type": "uint256"
        }
      ],
      "name": "Approval",
      "type": "event"
    },
    {
      "anonymous": false,
      "inputs": [],
      "name": "EIP712DomainChanged",
      "type": "event"
    },
    {
      "anonymous": false,
      "inputs": [
        {
          "indexed": true,
          "internalType": "address",
          "name": "previousOwner",
          "type": "address"
        },
        {
          "indexed": true,
          "internalType": "address",
          "name": "newOwner",
          "type": "address"
        }
      ],
      "name": "OwnershipTransferred",
      "type": "event"
    },
    {
      "anonymous": false,
      "inputs": [
        {
          "indexed": true,
          "internalType": "address",
          "name": "from",
          "type": "address"
        },
        {
          "indexed": true,
          "internalType": "address",
          "name": "to",
          "type": "address"
        },
        {
          "indexed": false,
          "internalType": "uint256",
          "name": "value",
          "type": "uint256"
        }
      ],
      "name": "Transfer",
      "type": "event"
    },
    {
      "inputs": [],
      "name": "DOMAIN_SEPARATOR",
      "outputs": [
        {
          "internalType": "bytes32",
          "name": "",
          "type": "bytes32"
        }
      ],
      "stateMutability": "view",
      "type": "function"
    },
    {
      "inputs": [
        {
          "internalType": "address",
          "name": "owner",
          "type": "address"
        },
        {
          "internalType": "address",
          "name": "spender",
          "type": "address"
        }
      ],
      "name": "allowance",
      "outputs": [
        {
          "internalType": "uint256",
          "name": "",
          "type": "uint256"
        }
      ],
      "stateMutability": "view",
      "type": "function"
    },
    {
      "inputs": [
        {
          "internalType": "address",
          "name": "spender",
          "type": "address"
        },
        {
          "internalType": "uint256",
          "name": "amount",
          "type": "uint256"
        }
      ],
      "name": "approve",
      "outputs": [
        {
          "internalType": "bool",
          "name": "",
          "type": "bool"
        }
      ],
      "stateMutability": "nonpayable",
      "type": "function"
    },
    {
      "inputs": [
        {
          "internalType": "address",
          "name": "account",
          "type": "address"
        }
      ],
      "name": "balanceOf",
      "outputs": [
        {
          "internalType": "uint256",
          "name": "",
          "type": "uint256"
        }
      ],
      "stateMutability": "view",
      "type": "function"
    },
    {
      "inputs": [],
      "name": "decimals",
      "outputs": [
        {
          "internalType": "uint8",
          "name": "",
          "type": "uint8"
        }
      ],
      "stateMutability": "view",
      "type": "function"
    },
    {
      "inputs": [
        {
          "internalType": "address",
          "name": "spender",
          "type": "address"
        },
        {
          "internalType": "uint256",
          "name": "subtractedValue",
          "type": "uint256"
        }
      ],
      "name": "decreaseAllowance",
      "outputs": [
        {
          "internalType": "bool",
          "name": "",
          "type": "bool"
        }
      ],
      "stateMutability": "nonpayable",
      "type": "function"
    },
    {
      "inputs": [],
      "name": "eip712Domain",
      "outputs": [
        {
          "internalType": "bytes1",
          "name": "fields",
          "type": "bytes1"
        },
        {
          "internalType": "string",
          "name": "name",
          "type": "string"
        },
        {
          "internalType": "string",
          "name": "version",
          "type": "string"
        },
        {
          "internalType": "uint256",
          "name": "chainId",
          "type": "uint256"
        },
        {
          "internalType": "address",
          "name": "verifyingContract",
          "type": "address"
        },
        {
          "internalType": "bytes32",
          "name": "salt",
          "type": "bytes32"
        },
        {
          "internalType": "uint256[]",
          "name": "extensions",
          "type": "uint256[]"
        }
      ],
      "stateMutability": "view",
      "type": "function"
    },
    {
      "inputs": [
        {
          "internalType": "address",
          "name": "spender",
          "type": "address"
        },
        {
          "internalType": "uint256",
          "name": "addedValue",
          "type": "uint256"
        }
      ],
      "name": "increaseAllowance",
      "outputs": [
        {
          "internalType": "bool",
          "name": "",
          "type": "bool"
        }
      ],
      "stateMutability": "nonpayable",
      "type": "function"
    },
    {
      "inputs": [],
      "name": "name",
      "outputs": [
        {
          "internalType": "string",
          "name": "",
          "type": "string"
        }
      ],
      "stateMutability": "view",
      "type": "function"
    },
    {
      "inputs": [
        {
          "internalType": "address",
          "name": "owner",
          "type": "address"
        }
      ],
      "name": "nonces",
      "outputs": [
        {
          "internalType": "uint256",
          "name": "",
          "type": "uint256"
        }
      ],
      "stateMutability": "view",
      "type": "function"
    },
    {
      "inputs": [],
      "name": "owner",
      "outputs": [
        {
          "internalType": "address",
          "name": "",
          "type": "address"
        }
      ],
      "stateMutability": "view",
      "type": "function"
    },
    {
      "inputs": [
        {
          "internalType": "address",
          "name": "owner",
          "type": "address"
        },
        {
          "internalType": "address",
          "name": "spender",
          "type": "address"
        },
        {
          "internalType": "uint256",
          "name": "value",
          "type": "uint256"
        },
        {
          "internalType": "uint256",
          "name": "deadline",
          "type": "uint256"
        },
        {
          "internalType": "uint8",
          "name": "v",
          "type": "uint8"
        },
        {
          "internalType": "bytes32",
          "name": "r",
          "type": "bytes32"
        },
        {
          "internalType": "bytes32",
          "name": "s",
          "type": "bytes32"
        }
      ],
      "name": "permit",
      "outputs": [],
      "stateMutability": "nonpayable",
      "type": "function"
    },
    {
      "inputs": [],
      "name": "renounceOwnership",
      "outputs": [],
      "stateMutability": "nonpayable",
      "type": "function"
    },
    {
      "inputs": [],
      "name": "symbol",
      "outputs": [
        {
          "internalType": "string",
          "name": "",
          "type": "string"
        }
      ],
      "stateMutability": "view",
      "type": "function"
    },
    {
      "inputs": [],
      "name": "totalSupply",
      "outputs": [
        {
          "internalType": "uint256",
          "name": "",
          "type": "uint256"
        }
      ],
      "stateMutability": "view",
      "type": "function"
    },
    {
      "inputs": [
        {
          "internalType": "address",
          "name": "to",
          "type": "address"
        },
        {
          "internalType": "uint256",
          "name": "amount",
          "type": "uint256"
        }
      ],
      "name": "transfer",
      "outputs": [
        {
          "internalType": "bool",
          "name": "",
          "type": "bool"
        }
      ],
      "stateMutability": "nonpayable",
      "type": "function"
    },
    {
      "inputs": [
        {
          "internalType": "address",
          "name": "from",
          "type": "address"
        },
        {
          "internalType": "address",
          "name": "to",
          "type": "address"
        },
        {
          "internalType": "uint256",
          "name": "amount",
          "type": "uint256"
        }
      ],
      "name": "transferFrom",
      "outputs": [
        {
          "internalType": "bool",
          "name": "",
          "type": "bool"
        }
      ],
      "stateMutability": "nonpayable",
      "type": "function"
    },
    {
      "inputs": [
        {
          "internalType": "address",
          "name": "newOwner",
          "type": "address"
        }
      ],
      "name": "transferOwnership",
      "outputs": [],
      "stateMutability": "nonpayable",
      "type": "function"
    },
    {
      "inputs": [
        {
          "internalType": "address",
          "name": "to",
          "type": "address"
        },
        {
          "internalType": "uint256",
          "name": "amount",
          "type": "uint256"
        }
      ],
      "name": "mint",
      "outputs": [],
      "stateMutability": "nonpayable",
      "type": "function"
    }
  ],
  "bytecode": "0x6101606040523480156200001257600080fd5b506040518060400160405280600c81526020017f436172626f6e4372656469740000000000000000000000000000000000000000815250806040518060400160405280600181526020017f31000000000000000000000000000000000000000000000000000000000000008152506040518060400160405280600c81526020017f436172626f6e43726564697400000000000000000000000000000000000000008152506040518060400160405280600381526020017f4342430000000000000000000000000000000000000000000000000000000000815250816003908051906020019062000104929190620005c6565b5080600490805190602001906200011d929190620005c6565b50505062000140620001346200024060201b60201c565b6200024860201b60201c565b6200015b6006836200030e60201b62000a7f1790919060201c565b61012081815250506200017e6007826200030e60201b62000a7f1790919060201c565b6101408181525050818051906020012060e08181525050808051906020012061010081815250504660a08181525050620001bd6200037260201b60201c565b608081815250503073ffffffffffffffffffffffffffffffffffffffff1660c08173ffffffffffffffffffffffffffffffffffffffff16815250505050506200023a3362000210620003cf60201b60201c565b600a6200021e919062000810565b620186a06200022e919062000861565b620003d860201b60201c565b62000c57565b600033905090565b6000600560009054906101000a900473ffffffffffffffffffffffffffffffffffffffff16905081600560006101000a81548173ffffffffffffffffffffffffffffffffffffffff021916908373ffffffffffffffffffffffffffffffffffffffff1602179055508173ffffffffffffffffffffffffffffffffffffffff168173ffffffffffffffffffffffffffffffffffffffff167f8be0079c531659141344cd1fd0a4f28419497f9722a3daafe3b4186f6b6457e060405160405180910390a35050565b600060208351101562000334576200032c836200054560201b60201c565b90506200036c565b826200034b83620005b260201b62000aca1760201c565b600001908051906020019062000363929190620005c6565b5060ff60001b90505b92915050565b60007f8b73c3c69bb8fe3d512ecc4cf759cc79239f7b179b0ffacaa9a75d522b39400f60e051610100514630604051602001620003b495949392919062000933565b60405160208183030381529060405280519060200120905090565b60006012905090565b600073ffffffffffffffffffffffffffffffffffffffff168273ffffffffffffffffffffffffffffffffffffffff16036200044a576040517f08c379a00000000000000000000000000000000000000000000000000000000081526004016200044190620009f1565b60405180910390fd5b6200045e60008383620005bc60201b60201c565b806002600082825462000472919062000a13565b92505081905550806000808473ffffffffffffffffffffffffffffffffffffffff1673ffffffffffffffffffffffffffffffffffffffff168152602001908152602001600020600082825401925050819055508173ffffffffffffffffffffffffffffffffffffffff16600073ffffffffffffffffffffffffffffffffffffffff167fddf252ad1be2c89b69c2b068fc378daa952ba7f163c4a11628f55a4df523b3ef8360405162000525919062000a70565b60405180910390a36200054160008383620005c160201b60201c565b5050565b600080829050601f815111156200059557826040517f305a27a90000000000000000000000000000000000000000000000000000000081526004016200058c919062000b20565b60405180910390fd5b805181620005a39062000b83565b60001c1760001b915050919050565b6000819050919050565b505050565b505050565b828054620005d49062000c22565b90600052602060002090601f016020900481019282620005f8576000855562000644565b82601f106200061357805160ff191683800117855562000644565b8280016001018555821562000644579182015b828111156200064357825182559160200191906001019062000626565b5b50905062000653919062000657565b5090565b5b808211156200067257600081600090555060010162000658565b5090565b7f4e487b7100000000000000000000000000000000000000000000000000000000600052601160045260246000fd5b60008160011c9050919050565b6000808291508390505b60018511156200070457808604811115620006dc57620006db62000676565b5b6001851615620006ec5780820291505b8081029050620006fc85620006a5565b9450620006bc565b94509492505050565b6000826200071f5760019050620007f2565b816200072f5760009050620007f2565b8160018114620007485760028114620007535762000789565b6001915050620007f2565b60ff84111562000768576200076762000676565b5b8360020a91508482111562000782576200078162000676565b5b50620007f2565b5060208310610133831016604e8410600b8410161715620007c35782820a905083811115620007bd57620007bc62000676565b5b620007f2565b620007d28484846001620006b2565b92509050818404811115620007ec57620007eb62000676565b5b81810290505b9392505050565b6000819050919050565b600060ff82169050919050565b60006200081d82620007f9565b91506200082a8362000803565b9250620008597fffffffffffffffffffffffffffffffffffffffffffffffffffffffffffffffff84846200070d565b905092915050565b60006200086e82620007f9565b91506200087b83620007f9565b9250817fffffffffffffffffffffffffffffffffffffffffffffffffffffffffffffffff0483118215151615620008b757620008b662000676565b5b828202905092915050565b6000819050919050565b620008d781620008c2565b82525050565b620008e881620007f9565b82525050565b600073ffffffffffffffffffffffffffffffffffffffff82169050919050565b60006200091b82620008ee565b9050919050565b6200092d816200090e565b82525050565b600060a0820190506200094a6000830188620008cc565b620009596020830187620008cc565b620009686040830186620008cc565b620009776060830185620008dd565b62000986608083018462000922565b9695505050505050565b600082825260208201905092915050565b7f45524332303a206d696e7420746f20746865207a65726f206164647265737300600082015250565b6000620009d9601f8362000990565b9150620009e682620009a1565b602082019050919050565b6000602082019050818103600083015262000a0c81620009ca565b9050919050565b600062000a2082620007f9565b915062000a2d83620007f9565b9250827fffffffffffffffffffffffffffffffffffffffffffffffffffffffffffffffff0382111562000a655762000a6462000676565b5b828201905092915050565b600060208201905062000a876000830184620008dd565b92915050565b600081519050919050565b60005b8381101562000ab857808201518184015260208101905062000a9b565b8381111562000ac8576000848401525b50505050565b6000601f19601f8301169050919050565b600062000aec8262000a8d565b62000af8818562000990565b935062000b0a81856020860162000a98565b62000b158162000ace565b840191505092915050565b6000602082019050818103600083015262000b3c818462000adf565b905092915050565b600081519050919050565b6000819050602082019050919050565b600062000b6d8251620008c2565b80915050919050565b600082821b905092915050565b600062000b908262000b44565b8262000b9c8462000b4f565b905062000ba98162000b5f565b9250602082101562000bec5762000be77fffffffffffffffffffffffffffffffffffffffffffffffffffffffffffffffff8360200360080262000b76565b831692505b5050919050565b7f4e487b7100000000000000000000000000000000000000000000000000000000600052602260045260246000fd5b6000600282049050600182168062000c3b57607f821691505b60208210810362000c515762000c5062000bf3565b5b50919050565b60805160a05160c05160e0516101005161012051610140516129c162000cb26000396000610622015260006105ee01526000611511015260006114f001526000610fab015260006110010152600061102a01526129c16000f3fe608060405234801561001057600080fd5b50600436106101215760003560e01c8063715018a6116100ad578063a457c2d711610071578063a457c2d714610314578063a9059cbb14610344578063d505accf14610374578063dd62ed3e14610390578063f2fde38b146103c057610121565b8063715018a61461027a5780637ecebe001461028457806384b0196e146102b45780638da5cb5b146102d857806395d89b41146102f657610121565b8063313ce567116100f4578063313ce567146101c25780633644e515146101e057806339509351146101fe57806340c10f191461022e57806370a082311461024a57610121565b806306fdde0314610126578063095ea7b31461014457806318160ddd1461017457806323b872dd14610192575b600080fd5b61012e6103dc565b60405161013b9190611a00565b60405180910390f35b61015e60048036038101906101599190611abb565b61046e565b60405161016b9190611b16565b60405180910390f35b61017c610491565b6040516101899190611b40565b60405180910390f35b6101ac60048036038101906101a79190611b5b565b61049b565b6040516101b99190611b16565b60405180910390f35b6101ca6104ca565b6040516101d79190611bca565b60405180910390f35b6101e86104d3565b6040516101f59190611bfe565b60405180910390f35b61021860048036038101906102139190611abb565b6104e2565b6040516102259190611b16565b60405180910390f35b61024860048036038101906102439190611abb565b610519565b005b610264600480360381019061025f9190611c19565b61052f565b6040516102719190611b40565b60405180910390f35b610282610577565b005b61029e60048036038101906102999190611c19565b61058b565b6040516102ab9190611b40565b60405180910390f35b6102bc6105db565b6040516102cf9796959493929190611d4e565b60405180910390f35b6102e06106dd565b6040516102ed9190611dd2565b60405180910390f35b6102fe610707565b60405161030b9190611a00565b60405180910390f35b61032e60048036038101906103299190611abb565b610799565b60405161033b9190611b16565b60405180910390f35b61035e60048036038101906103599190611abb565b610810565b60405161036b9190611b16565b60405180910390f35b61038e60048036038101906103899190611e45565b610833565b005b6103aa60048036038101906103a59190611ee7565b610975565b6040516103b79190611b40565b60405180910390f35b6103da60048036038101906103d59190611c19565b6109fc565b005b6060600380546103eb90611f56565b80601f016020809104026020016040519081016040528092919081815260200182805461041790611f56565b80156104645780601f1061043957610100808354040283529160200191610464565b820191906000526020600020905b81548152906001019060200180831161044757829003601f168201915b5050505050905090565b600080610479610ad4565b9050610486818585610adc565b600191505092915050565b6000600254905090565b6000806104a6610ad4565b90506104b3858285610ca5565b6104be858585610d31565b60019150509392505050565b60006012905090565b60006104dd610fa7565b905090565b6000806104ed610ad4565b905061050e8185856104ff8589610975565b6105099190611fb6565b610adc565b600191505092915050565b61052161105e565b61052b82826110dc565b5050565b60008060008373ffffffffffffffffffffffffffffffffffffffff1673ffffffffffffffffffffffffffffffffffffffff168152602001908152602001600020549050919050565b61057f61105e565b6105896000611232565b565b60006105d4600860008473ffffffffffffffffffffffffffffffffffffffff1673ffffffffffffffffffffffffffffffffffffffff1681526020019081526020016000206112f8565b9050919050565b60006060806000806000606061061b60067f000000000000000000000000000000000000000000000000000000000000000061130690919063ffffffff16565b61064f60077f000000000000000000000000000000000000000000000000000000000000000061130690919063ffffffff16565b46306000801b600067ffffffffffffffff8111156106705761066f61200c565b5b60405190808252806020026020018201604052801561069e5781602001602082028036833780820191505090505b507f0f00000000000000000000000000000000000000000000000000000000000000959493929190965096509650965096509650965090919293949596565b6000600560009054906101000a900473ffffffffffffffffffffffffffffffffffffffff16905090565b60606004805461071690611f56565b80601f016020809104026020016040519081016040528092919081815260200182805461074290611f56565b801561078f5780601f106107645761010080835404028352916020019161078f565b820191906000526020600020905b81548152906001019060200180831161077257829003601f168201915b5050505050905090565b6000806107a4610ad4565b905060006107b28286610975565b9050838110156107f7576040517f08c379a00000000000000000000000000000000000000000000000000000000081526004016107ee906120ad565b60405180910390fd5b6108048286868403610adc565b60019250505092915050565b60008061081b610ad4565b9050610828818585610d31565b600191505092915050565b83421115610876576040517f08c379a000000000000000000000000000000000000000000000000000000000815260040161086d90612119565b60405180910390fd5b60007f6e71edae12b1b97f4d1f60370fef10105fa2faae0126114a169c64845d6126c98888886108a58c6113b6565b896040516020016108bb96959493929190612139565b60405160208183030381529060405280519060200120905060006108de82611414565b905060006108ee8287878761142e565b90508973ffffffffffffffffffffffffffffffffffffffff168173ffffffffffffffffffffffffffffffffffffffff161461095e576040517f08c379a0000000000000000000000000000000000000000000000000000000008152600401610955906121e6565b60405180910390fd5b6109698a8a8a610adc565b50505050505050505050565b6000600160008473ffffffffffffffffffffffffffffffffffffffff1673ffffffffffffffffffffffffffffffffffffffff16815260200190815260200160002060008373ffffffffffffffffffffffffffffffffffffffff1673ffffffffffffffffffffffffffffffffffffffff16815260200190815260200160002054905092915050565b610a0461105e565b600073ffffffffffffffffffffffffffffffffffffffff168173ffffffffffffffffffffffffffffffffffffffff1603610a73576040517f08c379a0000000000000000000000000000000000000000000000000000000008152600401610a6a90612278565b60405180910390fd5b610a7c81611232565b50565b6000602083511015610a9b57610a9483611459565b9050610ac4565b82610aa583610aca565b6000019080519060200190610abb9291906118c4565b5060ff60001b90505b92915050565b6000819050919050565b600033905090565b600073ffffffffffffffffffffffffffffffffffffffff168373ffffffffffffffffffffffffffffffffffffffff1603610b4b576040517f08c379a0000000000000000000000000000000000000000000000000000000008152600401610b429061230a565b60405180910390fd5b600073ffffffffffffffffffffffffffffffffffffffff168273ffffffffffffffffffffffffffffffffffffffff1603610bba576040517f08c379a0000000000000000000000000000000000000000000000000000000008152600401610bb19061239c565b60405180910390fd5b80600160008573ffffffffffffffffffffffffffffffffffffffff1673ffffffffffffffffffffffffffffffffffffffff16815260200190815260200160002060008473ffffffffffffffffffffffffffffffffffffffff1673ffffffffffffffffffffffffffffffffffffffff168152602001908152602001600020819055508173ffffffffffffffffffffffffffffffffffffffff168373ffffffffffffffffffffffffffffffffffffffff167f8c5be1e5ebec7d5bd14f71427d1e84f3dd0314c0f7b2291e5b200ac8c7c3b92583604051610c989190611b40565b60405180910390a3505050565b6000610cb18484610975565b90507fffffffffffffffffffffffffffffffffffffffffffffffffffffffffffffffff8114610d2b5781811015610d1d576040517f08c379a0000000000000000000000000000000000000000000000000000000008152600401610d1490612408565b60405180910390fd5b610d2a8484848403610adc565b5b50505050565b600073ffffffffffffffffffffffffffffffffffffffff168373ffffffffffffffffffffffffffffffffffffffff1603610da0576040517f08c379a0000000000000000000000000000000000000000000000000000000008152600401610d979061249a565b60405180910390fd5b600073ffffffffffffffffffffffffffffffffffffffff168273ffffffffffffffffffffffffffffffffffffffff1603610e0f576040517f08c379a0000000000000000000000000000000000000000000000000000000008152600401610e069061252c565b60405180910390fd5b610e1a8383836114c1565b60008060008573ffffffffffffffffffffffffffffffffffffffff1673ffffffffffffffffffffffffffffffffffffffff16815260200190815260200160002054905081811015610ea0576040517f08c379a0000000000000000000000000000000000000000000000000000000008152600401610e97906125be565b60405180910390fd5b8181036000808673ffffffffffffffffffffffffffffffffffffffff1673ffffffffffffffffffffffffffffffffffffffff16815260200190815260200160002081905550816000808573ffffffffffffffffffffffffffffffffffffffff1673ffffffffffffffffffffffffffffffffffffffff168152602001908152602001600020600082825401925050819055508273ffffffffffffffffffffffffffffffffffffffff168473ffffffffffffffffffffffffffffffffffffffff167fddf252ad1be2c89b69c2b068fc378daa952ba7f163c4a11628f55a4df523b3ef84604051610f8e9190611b40565b60405180910390a3610fa18484846114c6565b50505050565b60007f000000000000000000000000000000000000000000000000000000000000000073ffffffffffffffffffffffffffffffffffffffff163073ffffffffffffffffffffffffffffffffffffffff1614801561102357507f000000000000000000000000000000000000000000000000000000000000000046145b15611050577f0000000000000000000000000000000000000000000000000000000000000000905061105b565b6110586114cb565b90505b90565b611066610ad4565b73ffffffffffffffffffffffffffffffffffffffff166110846106dd565b73ffffffffffffffffffffffffffffffffffffffff16146110da576040517f08c379a00000000000000000000000000000000000000000000000000000000081526004016110d19061262a565b60405180910390fd5b565b600073ffffffffffffffffffffffffffffffffffffffff168273ffffffffffffffffffffffffffffffffffffffff160361114b576040517f08c379a000000000000000000000000000000000000000000000000000000000815260040161114290612696565b60405180910390fd5b611157600083836114c1565b80600260008282546111699190611fb6565b92505081905550806000808473ffffffffffffffffffffffffffffffffffffffff1673ffffffffffffffffffffffffffffffffffffffff168152602001908152602001600020600082825401925050819055508173ffffffffffffffffffffffffffffffffffffffff16600073ffffffffffffffffffffffffffffffffffffffff167fddf252ad1be2c89b69c2b068fc378daa952ba7f163c4a11628f55a4df523b3ef8360405161121a9190611b40565b60405180910390a361122e600083836114c6565b5050565b6000600560009054906101000a900473ffffffffffffffffffffffffffffffffffffffff16905081600560006101000a81548173ffffffffffffffffffffffffffffffffffffffff021916908373ffffffffffffffffffffffffffffffffffffffff1602179055508173ffffffffffffffffffffffffffffffffffffffff168173ffffffffffffffffffffffffffffffffffffffff167f8be0079c531659141344cd1fd0a4f28419497f9722a3daafe3b4186f6b6457e060405160405180910390a35050565b600081600001549050919050565b606060ff60001b83146113235761131c83611561565b90506113b0565b81805461132f90611f56565b80601f016020809104026020016040519081016040528092919081815260200182805461135b90611f56565b80156113a85780601f1061137d576101008083540402835291602001916113a8565b820191906000526020600020905b81548152906001019060200180831161138b57829003601f168201915b505050505090505b92915050565b600080600860008473ffffffffffffffffffffffffffffffffffffffff1673ffffffffffffffffffffffffffffffffffffffff1681526020019081526020016000209050611403816112f8565b915061140e816115d5565b50919050565b6000611427611421610fa7565b836115eb565b9050919050565b600080600061143f8787878761162c565b9150915061144c8161170e565b8192505050949350505050565b600080829050601f815111156114a657826040517f305a27a900000000000000000000000000000000000000000000000000000000815260040161149d9190611a00565b60405180910390fd5b8051816114b2906126f3565b60001c1760001b915050919050565b505050565b505050565b60007f8b73c3c69bb8fe3d512ecc4cf759cc79239f7b179b0ffacaa9a75d522b39400f7f00000000000000000000000000000000000000000000000000000000000000007f0000000000000000000000000000000000000000000000000000000000000000463060405160200161154695949392919061275a565b60405160208183030381529060405280519060200120905090565b6060600061156e83611874565b90506000602067ffffffffffffffff81111561158d5761158c61200c565b5b6040519080825280601f01601f1916602001820160405280156115bf5781602001600182028036833780820191505090505b5090508181528360208201528092505050919050565b6001816000016000828254019250508190555050565b60006040517f190100000000000000000000000000000000000000000000000000000000000081528360028201528260228201526042812091505092915050565b6000807f7fffffffffffffffffffffffffffffff5d576e7357a4501ddfe92f46681b20a08360001c1115611667576000600391509150611705565b60006001878787876040516000815260200160405260405161168c94939291906127ad565b6020604051602081039080840390855afa1580156116ae573d6000803e3d6000fd5b505050602060405103519050600073ffffffffffffffffffffffffffffffffffffffff168173ffffffffffffffffffffffffffffffffffffffff16036116fc57600060019250925050611705565b80600092509250505b94509492505050565b60006004811115611722576117216127f2565b5b816004811115611735576117346127f2565b5b0315611871576001600481111561174f5761174e6127f2565b5b816004811115611762576117616127f2565b5b036117a2576040517f08c379a00000000000000000000000000000000000000000000000000000000081526004016117999061286d565b60405180910390fd5b600260048111156117b6576117b56127f2565b5b8160048111156117c9576117c86127f2565b5b03611809576040517f08c379a0000000000000000000000000000000000000000000000000000000008152600401611800906128d9565b60405180910390fd5b6003600481111561181d5761181c6127f2565b5b8160048111156118305761182f6127f2565b5b03611870576040517f08c379a00000000000000000000000000000000000000000000000000000000081526004016118679061296b565b60405180910390fd5b5b50565b60008060ff8360001c169050601f8111156118bb576040517fb3512b0c00000000000000000000000000000000000000000000000000000000815260040160405180910390fd5b80915050919050565b8280546118d090611f56565b90600052602060002090601f0160209004810192826118f25760008555611939565b82601f1061190b57805160ff1916838001178555611939565b82800160010185558215611939579182015b8281111561193857825182559160200191906001019061191d565b5b509050611946919061194a565b5090565b5b8082111561196357600081600090555060010161194b565b5090565b600081519050919050565b600082825260208201905092915050565b60005b838110156119a1578082015181840152602081019050611986565b838111156119b0576000848401525b50505050565b6000601f19601f8301169050919050565b60006119d282611967565b6119dc8185611972565b93506119ec818560208601611983565b6119f5816119b6565b840191505092915050565b60006020820190508181036000830152611a1a81846119c7565b905092915050565b600080fd5b600073ffffffffffffffffffffffffffffffffffffffff82169050919050565b6000611a5282611a27565b9050919050565b611a6281611a47565b8114611a6d57600080fd5b50565b600081359050611a7f81611a59565b92915050565b6000819050919050565b611a9881611a85565b8114611aa357600080fd5b50565b600081359050611ab581611a8f565b92915050565b60008060408385031215611ad257611ad1611a22565b5b6000611ae085828601611a70565b9250506020611af185828601611aa6565b9150509250929050565b60008115159050919050565b611b1081611afb565b82525050565b6000602082019050611b2b6000830184611b07565b92915050565b611b3a81611a85565b82525050565b6000602082019050611b556000830184611b31565b92915050565b600080600060608486031215611b7457611b73611a22565b5b6000611b8286828701611a70565b9350506020611b9386828701611a70565b9250506040611ba486828701611aa6565b9150509250925092565b600060ff82169050919050565b611bc481611bae565b82525050565b6000602082019050611bdf6000830184611bbb565b92915050565b6000819050919050565b611bf881611be5565b82525050565b6000602082019050611c136000830184611bef565b92915050565b600060208284031215611c2f57611c2e611a22565b5b6000611c3d84828501611a70565b91505092915050565b60007fff0000000000000000000000000000000000000000000000000000000000000082169050919050565b611c7b81611c46565b82525050565b611c8a81611a47565b82525050565b600081519050919050565b600082825260208201905092915050565b6000819050602082019050919050565b611cc581611a85565b82525050565b6000611cd78383611cbc565b60208301905092915050565b6000602082019050919050565b6000611cfb82611c90565b611d058185611c9b565b9350611d1083611cac565b8060005b83811015611d41578151611d288882611ccb565b9750611d3383611ce3565b925050600181019050611d14565b5085935050505092915050565b600060e082019050611d63600083018a611c72565b8181036020830152611d7581896119c7565b90508181036040830152611d8981886119c7565b9050611d986060830187611b31565b611da56080830186611c81565b611db260a0830185611bef565b81810360c0830152611dc48184611cf0565b905098975050505050505050565b6000602082019050611de76000830184611c81565b92915050565b611df681611bae565b8114611e0157600080fd5b50565b600081359050611e1381611ded565b92915050565b611e2281611be5565b8114611e2d57600080fd5b50565b600081359050611e3f81611e19565b92915050565b600080600080600080600060e0888a031215611e6457611e63611a22565b5b6000611e728a828b01611a70565b9750506020611e838a828b01611a70565b9650506040611e948a828b01611aa6565b9550506060611ea58a828b01611aa6565b9450506080611eb68a828b01611e04565b93505060a0611ec78a828b01611e30565b92505060c0611ed88a828b01611e30565b91505092959891949750929550565b60008060408385031215611efe57611efd611a22565b5b6000611f0c85828601611a70565b9250506020611f1d85828601611a70565b9150509250929050565b7f4e487b7100000000000000000000000000000000000000000000000000000000600052602260045260246000fd5b60006002820490506001821680611f6e57607f821691505b602082108103611f8157611f80611f27565b5b50919050565b7f4e487b7100000000000000000000000000000000000000000000000000000000600052601160045260246000fd5b6000611fc182611a85565b9150611fcc83611a85565b9250827fffffffffffffffffffffffffffffffffffffffffffffffffffffffffffffffff0382111561200157612000611f87565b5b828201905092915050565b7f4e487b7100000000000000000000000000000000000000000000000000000000600052604160045260246000fd5b7f45524332303a2064656372656173656420616c6c6f77616e63652062656c6f7760008201527f207a65726f000000000000000000000000000000000000000000000000000000602082015250565b6000612097602583611972565b91506120a28261203b565b604082019050919050565b600060208201905081810360008301526120c68161208a565b9050919050565b7f45524332305065726d69743a206578706972656420646561646c696e65000000600082015250565b6000612103601d83611972565b915061210e826120cd565b602082019050919050565b60006020820190508181036000830152612132816120f6565b9050919050565b600060c08201905061214e6000830189611bef565b61215b6020830188611c81565b6121686040830187611c81565b6121756060830186611b31565b6121826080830185611b31565b61218f60a0830184611b31565b979650505050505050565b7f45524332305065726d69743a20696e76616c6964207369676e61747572650000600082015250565b60006121d0601e83611972565b91506121db8261219a565b602082019050919050565b600060208201905081810360008301526121ff816121c3565b9050919050565b7f4f776e61626c653a206e6577206f776e657220697320746865207a65726f206160008201527f6464726573730000000000000000000000000000000000000000000000000000602082015250565b6000612262602683611972565b915061226d82612206565b604082019050919050565b6000602082019050818103600083015261229181612255565b9050919050565b7f45524332303a20617070726f76652066726f6d20746865207a65726f2061646460008201527f7265737300000000000000000000000000000000000000000000000000000000602082015250565b60006122f4602483611972565b91506122ff82612298565b604082019050919050565b60006020820190508181036000830152612323816122e7565b9050919050565b7f45524332303a20617070726f766520746f20746865207a65726f20616464726560008201527f7373000000000000000000000000000000000000000000000000000000000000602082015250565b6000612386602283611972565b91506123918261232a565b604082019050919050565b600060208201905081810360008301526123b581612379565b9050919050565b7f45524332303a20696e73756666696369656e7420616c6c6f77616e6365000000600082015250565b60006123f2601d83611972565b91506123fd826123bc565b602082019050919050565b60006020820190508181036000830152612421816123e5565b9050919050565b7f45524332303a207472616e736665722066726f6d20746865207a65726f20616460008201527f6472657373000000000000000000000000000000000000000000000000000000602082015250565b6000612484602583611972565b915061248f82612428565b604082019050919050565b600060208201905081810360008301526124b381612477565b9050919050565b7f45524332303a207472616e7366657220746f20746865207a65726f206164647260008201527f6573730000000000000000000000000000000000000000000000000000000000602082015250565b6000612516602383611972565b9150612521826124ba565b604082019050919050565b6000602082019050818103600083015261254581612509565b9050919050565b7f45524332303a207472616e7366657220616d6f756e742065786365656473206260008201527f616c616e63650000000000000000000000000000000000000000000000000000602082015250565b60006125a8602683611972565b91506125b38261254c565b604082019050919050565b600060208201905081810360008301526125d78161259b565b9050919050565b7f4f776e61626c653a2063616c6c6572206973206e6f7420746865206f776e6572600082015250565b6000612614602083611972565b915061261f826125de565b602082019050919050565b6000602082019050818103600083015261264381612607565b9050919050565b7f45524332303a206d696e7420746f20746865207a65726f206164647265737300600082015250565b6000612680601f83611972565b915061268b8261264a565b602082019050919050565b600060208201905081810360008301526126af81612673565b9050919050565b600081519050919050565b6000819050602082019050919050565b60006126dd8251611be5565b80915050919050565b600082821b905092915050565b60006126fe826126b6565b82612708846126c1565b9050612713816126d1565b925060208210156127535761274e7fffffffffffffffffffffffffffffffffffffffffffffffffffffffffffffffff836020036008026126e6565b831692505b5050919050565b600060a08201905061276f6000830188611bef565b61277c6020830187611bef565b6127896040830186611bef565b6127966060830185611b31565b6127a36080830184611c81565b9695505050505050565b60006080820190506127c26000830187611bef565b6127cf6020830186611bbb565b6127dc6040830185611bef565b6127e96060830184611bef565b95945050505050565b7f4e487b7100000000000000000000000000000000000000000000000000000000600052602160045260246000fd5b7f45434453413a20696e76616c6964207369676e61747572650000000000000000600082015250565b6000612857601883611972565b915061286282612821565b602082019050919050565b600060208201905081810360008301526128868161284a565b9050919050565b7f45434453413a20696e76616c6964207369676e6174757265206c656e67746800600082015250565b60006128c3601f83611972565b91506128ce8261288d565b602082019050919050565b600060208201905081810360008301526128f2816128b6565b9050919050565b7f45434453413a20696e76616c6964207369676e6174757265202773272076616c60008201527f7565000000000000000000000000000000000000000000000000000000000000602082015250565b6000612955602283611972565b9150612960826128f9565b604082019050919050565b6000602082019050818103600083015261298481612948565b905091905056fea2646970667358221220635e9e6eacdd3b8ebb1925db6e535ec7262892075c2fa63ed85612293a2d322e64736f6c634300080d0033",
  "immutableReferences": {
    "3495": [
      {
        "length": 32,
        "start": 4138
      }
    ],
    "3497": [
      {
        "length": 32,
        "start": 4097
      }
    ],
    "3499": [
      {
        "length": 32,
        "start": 4011
      }
    ],
    "3501": [
      {
        "length": 32,
        "start": 5360
      }
    ],
    "3503": [
      {
        "length": 32,
        "start": 5393
      }
    ],
    "3506": [
      {
        "length": 32,
        "start": 1518
      }
    ],
    "3509": [
      {
        "length": 32,
        "start": 1570
      }
    ]
  },
  "source": "// SPDX-License-Identifier: MIT\r\n// Compatible with OpenZeppelin Contracts ^5.0.0\r\npragma solidity ^0.8.0;\r\n\r\nimport \"@openzeppelin/contracts/token/ERC20/ERC20.sol\";\r\nimport \"@openzeppelin/contracts/access/Ownable.sol\";\r\nimport \"@openzeppelin/contracts/token/ERC20/extensions/ERC20Permit.sol\";\r\n\r\ncontract CarbonCredit is ERC20, Ownable, ERC20Permit {\r\n    constructor()\r\n        ERC20(\"CarbonCredit\", \"CBC\")\r\n        Ownable()\r\n        ERC20Permit(\"CarbonCredit\")\r\n    {\r\n        _mint(msg.sender, 100000 * 10 ** decimals());\r\n    }\r\n\r\n    function mint(address to, uint256 amount) public onlyOwner {\r\n        _mint(to, amount);\r\n    }\r\n}\r\n",
  "sourcePath": "C:\\Users\\Yash kanjariya\\Desktop\\Projects\\AOH_BoiledRice\\web3\\contracts\\token.sol",
  "compiler": {
    "name": "solc",
    "version": "0.8.13+commit.abaa5c0e.Emscripten.clang"
  },
  "schemaVersion": "3.4.16",
  "updatedAt": "2024-03-31T05:02:40.424Z",
  "devdoc": {
    "kind": "dev",
    "methods": {
      "DOMAIN_SEPARATOR()": {
        "details": "Returns the domain separator used in the encoding of the signature for {permit}, as defined by {EIP712}."
      },
      "allowance(address,address)": {
        "details": "See {IERC20-allowance}."
      },
      "approve(address,uint256)": {
        "details": "See {IERC20-approve}. NOTE: If `amount` is the maximum `uint256`, the allowance is not updated on `transferFrom`. This is semantically equivalent to an infinite approval. Requirements: - `spender` cannot be the zero address."
      },
      "balanceOf(address)": {
        "details": "See {IERC20-balanceOf}."
      },
      "decimals()": {
        "details": "Returns the number of decimals used to get its user representation. For example, if `decimals` equals `2`, a balance of `505` tokens should be displayed to a user as `5.05` (`505 / 10 ** 2`). Tokens usually opt for a value of 18, imitating the relationship between Ether and Wei. This is the default value returned by this function, unless it's overridden. NOTE: This information is only used for _display_ purposes: it in no way affects any of the arithmetic of the contract, including {IERC20-balanceOf} and {IERC20-transfer}."
      },
      "decreaseAllowance(address,uint256)": {
        "details": "Atomically decreases the allowance granted to `spender` by the caller. This is an alternative to {approve} that can be used as a mitigation for problems described in {IERC20-approve}. Emits an {Approval} event indicating the updated allowance. Requirements: - `spender` cannot be the zero address. - `spender` must have allowance for the caller of at least `subtractedValue`."
      },
      "eip712Domain()": {
        "details": "See {EIP-5267}. _Available since v4.9._"
      },
      "increaseAllowance(address,uint256)": {
        "details": "Atomically increases the allowance granted to `spender` by the caller. This is an alternative to {approve} that can be used as a mitigation for problems described in {IERC20-approve}. Emits an {Approval} event indicating the updated allowance. Requirements: - `spender` cannot be the zero address."
      },
      "name()": {
        "details": "Returns the name of the token."
      },
      "nonces(address)": {
        "details": "Returns the current nonce for `owner`. This value must be included whenever a signature is generated for {permit}. Every successful call to {permit} increases ``owner``'s nonce by one. This prevents a signature from being used multiple times."
      },
      "owner()": {
        "details": "Returns the address of the current owner."
      },
      "permit(address,address,uint256,uint256,uint8,bytes32,bytes32)": {
        "details": "Sets `value` as the allowance of `spender` over ``owner``'s tokens, given ``owner``'s signed approval. IMPORTANT: The same issues {IERC20-approve} has related to transaction ordering also apply here. Emits an {Approval} event. Requirements: - `spender` cannot be the zero address. - `deadline` must be a timestamp in the future. - `v`, `r` and `s` must be a valid `secp256k1` signature from `owner` over the EIP712-formatted function arguments. - the signature must use ``owner``'s current nonce (see {nonces}). For more information on the signature format, see the https://eips.ethereum.org/EIPS/eip-2612#specification[relevant EIP section]. CAUTION: See Security Considerations above."
      },
      "renounceOwnership()": {
        "details": "Leaves the contract without owner. It will not be possible to call `onlyOwner` functions. Can only be called by the current owner. NOTE: Renouncing ownership will leave the contract without an owner, thereby disabling any functionality that is only available to the owner."
      },
      "symbol()": {
        "details": "Returns the symbol of the token, usually a shorter version of the name."
      },
      "totalSupply()": {
        "details": "See {IERC20-totalSupply}."
      },
      "transfer(address,uint256)": {
        "details": "See {IERC20-transfer}. Requirements: - `to` cannot be the zero address. - the caller must have a balance of at least `amount`."
      },
      "transferFrom(address,address,uint256)": {
        "details": "See {IERC20-transferFrom}. Emits an {Approval} event indicating the updated allowance. This is not required by the EIP. See the note at the beginning of {ERC20}. NOTE: Does not update the allowance if the current allowance is the maximum `uint256`. Requirements: - `from` and `to` cannot be the zero address. - `from` must have a balance of at least `amount`. - the caller must have allowance for ``from``'s tokens of at least `amount`."
      },
      "transferOwnership(address)": {
        "details": "Transfers ownership of the contract to a new account (`newOwner`). Can only be called by the current owner."
      }
    },
    "version": 1
  },
  "userdoc": {
    "kind": "user",
    "methods": {},
    "version": 1
  }
}