{
  "contractName": "Faucet",
  "abi": [
    {
      "inputs": [
        {
          "internalType": "address",
          "name": "_token",
          "type": "address"
        },
        {
          "internalType": "uint256",
          "name": "_dripAmount",
          "type": "uint256"
        },
        {
          "internalType": "uint256",
          "name": "_dripInterval",
          "type": "uint256"
        }
      ],
      "stateMutability": "nonpayable",
      "type": "constructor"
    },
    {
      "anonymous": false,
      "inputs": [
        {
          "indexed": true,
          "internalType": "address",
          "name": "to",
          "type": "address"
        },
        {
          "indexed": false,
          "internalType": "uint256",
          "name": "amount",
          "type": "uint256"
        }
      ],
      "name": "Drip",
      "type": "event"
    },
    {
      "anonymous": false,
      "inputs": [
        {
          "indexed": true,
          "internalType": "address",
          "name": "previousOwner",
          "type": "address"
        },
        {
          "indexed": true,
          "internalType": "address",
          "name": "newOwner",
          "type": "address"
        }
      ],
      "name": "OwnershipTransferred",
      "type": "event"
    },
    {
      "inputs": [],
      "name": "dripAmount",
      "outputs": [
        {
          "internalType": "uint256",
          "name": "",
          "type": "uint256"
        }
      ],
      "stateMutability": "view",
      "type": "function"
    },
    {
      "inputs": [],
      "name": "dripInterval",
      "outputs": [
        {
          "internalType": "uint256",
          "name": "",
          "type": "uint256"
        }
      ],
      "stateMutability": "view",
      "type": "function"
    },
    {
      "inputs": [],
      "name": "owner",
      "outputs": [
        {
          "internalType": "address",
          "name": "",
          "type": "address"
        }
      ],
      "stateMutability": "view",
      "type": "function"
    },
    {
      "inputs": [],
      "name": "renounceOwnership",
      "outputs": [],
      "stateMutability": "nonpayable",
      "type": "function"
    },
    {
      "inputs": [],
      "name": "token",
      "outputs": [
        {
          "internalType": "contract IERC20",
          "name": "",
          "type": "address"
        }
      ],
      "stateMutability": "view",
      "type": "function"
    },
    {
      "inputs": [
        {
          "internalType": "address",
          "name": "newOwner",
          "type": "address"
        }
      ],
      "name": "transferOwnership",
      "outputs": [],
      "stateMutability": "nonpayable",
      "type": "function"
    },
    {
      "inputs": [],
      "name": "drip",
      "outputs": [],
      "stateMutability": "nonpayable",
      "type": "function"
    },
    {
      "inputs": [
        {
          "internalType": "address",
          "name": "user",
          "type": "address"
        }
      ],
      "name": "getLastAccessTime",
      "outputs": [
        {
          "internalType": "uint256",
          "name": "",
          "type": "uint256"
        }
      ],
      "stateMutability": "view",
      "type": "function"
    },
    {
      "inputs": [
        {
          "internalType": "uint256",
          "name": "_dripAmount",
          "type": "uint256"
        }
      ],
      "name": "setDripAmount",
      "outputs": [],
      "stateMutability": "nonpayable",
      "type": "function"
    },
    {
      "inputs": [
        {
          "internalType": "uint256",
          "name": "_dripInterval",
          "type": "uint256"
        }
      ],
      "name": "setDripInterval",
      "outputs": [],
      "stateMutability": "nonpayable",
      "type": "function"
    },
    {
      "inputs": [
        {
          "internalType": "address",
          "name": "_token",
          "type": "address"
        },
        {
          "internalType": "uint256",
          "name": "_amount",
          "type": "uint256"
        }
      ],
      "name": "withdrawTokens",
      "outputs": [],
      "stateMutability": "nonpayable",
      "type": "function"
    },
    {
      "inputs": [
        {
          "internalType": "uint256",
          "name": "_amount",
          "type": "uint256"
        }
      ],
      "name": "withdrawETH",
      "outputs": [],
      "stateMutability": "nonpayable",
      "type": "function"
    }
  ],
  "bytecode": "0x608060405234801562000010575f80fd5b5060405162000e8938038062000e89833981810160405281019062000036919062000212565b620000566200004a620000ad60201b60201c565b620000b460201b60201c565b8260025f6101000a81548173ffffffffffffffffffffffffffffffffffffffff021916908373ffffffffffffffffffffffffffffffffffffffff16021790555081600381905550806004819055505050506200026b565b5f33905090565b5f805f9054906101000a900473ffffffffffffffffffffffffffffffffffffffff169050815f806101000a81548173ffffffffffffffffffffffffffffffffffffffff021916908373ffffffffffffffffffffffffffffffffffffffff1602179055508173ffffffffffffffffffffffffffffffffffffffff168173ffffffffffffffffffffffffffffffffffffffff167f8be0079c531659141344cd1fd0a4f28419497f9722a3daafe3b4186f6b6457e060405160405180910390a35050565b5f80fd5b5f73ffffffffffffffffffffffffffffffffffffffff82169050919050565b5f620001a48262000179565b9050919050565b620001b68162000198565b8114620001c1575f80fd5b50565b5f81519050620001d481620001ab565b92915050565b5f819050919050565b620001ee81620001da565b8114620001f9575f80fd5b50565b5f815190506200020c81620001e3565b92915050565b5f805f606084860312156200022c576200022b62000175565b5b5f6200023b86828701620001c4565b93505060206200024e86828701620001fc565b92505060406200026186828701620001fc565b9150509250925092565b610c1080620002795f395ff3fe608060405234801561000f575f80fd5b50600436106100b2575f3560e01c80638da5cb5b1161006f5780638da5cb5b146101645780639f678cca14610182578063a9a89db91461018c578063f14210a6146101a8578063f2fde38b146101c4578063fc0c546a146101e0576100b2565b806306b091f9146100b657806335a1529b146100d257806336cec69b146100f0578063543f8c58146101205780636a2148111461013c578063715018a61461015a575b5f80fd5b6100d060048036038101906100cb919061082d565b6101fe565b005b6100da610286565b6040516100e7919061087a565b60405180910390f35b61010a60048036038101906101059190610893565b61028c565b604051610117919061087a565b60405180910390f35b61013a600480360381019061013591906108be565b6102d2565b005b6101446102e4565b604051610151919061087a565b60405180910390f35b6101626102ea565b005b61016c6102fd565b60405161017991906108f8565b60405180910390f35b61018a610324565b005b6101a660048036038101906101a191906108be565b610532565b005b6101c260048036038101906101bd91906108be565b610544565b005b6101de60048036038101906101d99190610893565b61059a565b005b6101e861061c565b6040516101f5919061096c565b60405180910390f35b610206610641565b8173ffffffffffffffffffffffffffffffffffffffff1663a9059cbb33836040518363ffffffff1660e01b8152600401610241929190610985565b6020604051808303815f875af115801561025d573d5f803e3d5ffd5b505050506040513d601f19601f8201168201806040525081019061028191906109e1565b505050565b60035481565b5f60015f8373ffffffffffffffffffffffffffffffffffffffff1673ffffffffffffffffffffffffffffffffffffffff1681526020019081526020015f20549050919050565b6102da610641565b8060038190555050565b60045481565b6102f2610641565b6102fb5f6106bf565b565b5f805f9054906101000a900473ffffffffffffffffffffffffffffffffffffffff16905090565b5f60015f3373ffffffffffffffffffffffffffffffffffffffff1673ffffffffffffffffffffffffffffffffffffffff1681526020019081526020015f205414806103c057506103bc60045460015f3373ffffffffffffffffffffffffffffffffffffffff1673ffffffffffffffffffffffffffffffffffffffff1681526020019081526020015f205461078090919063ffffffff16565b4210155b6103ff576040517f08c379a00000000000000000000000000000000000000000000000000000000081526004016103f690610a66565b60405180910390fd5b4260015f3373ffffffffffffffffffffffffffffffffffffffff1673ffffffffffffffffffffffffffffffffffffffff1681526020019081526020015f208190555060025f9054906101000a900473ffffffffffffffffffffffffffffffffffffffff1673ffffffffffffffffffffffffffffffffffffffff1663a9059cbb336003546040518363ffffffff1660e01b815260040161049f929190610985565b6020604051808303815f875af11580156104bb573d5f803e3d5ffd5b505050506040513d601f19601f820116820180604052508101906104df91906109e1565b503373ffffffffffffffffffffffffffffffffffffffff167f7cad7fbe1215c486c724bf41124e0ed689d280724381379da844556025c463c1600354604051610528919061087a565b60405180910390a2565b61053a610641565b8060048190555050565b61054c610641565b6105546102fd565b73ffffffffffffffffffffffffffffffffffffffff166108fc8290811502906040515f60405180830381858888f19350505050158015610596573d5f803e3d5ffd5b5050565b6105a2610641565b5f73ffffffffffffffffffffffffffffffffffffffff168173ffffffffffffffffffffffffffffffffffffffff1603610610576040517f08c379a000000000000000000000000000000000000000000000000000000000815260040161060790610af4565b60405180910390fd5b610619816106bf565b50565b60025f9054906101000a900473ffffffffffffffffffffffffffffffffffffffff1681565b610649610795565b73ffffffffffffffffffffffffffffffffffffffff166106676102fd565b73ffffffffffffffffffffffffffffffffffffffff16146106bd576040517f08c379a00000000000000000000000000000000000000000000000000000000081526004016106b490610b5c565b60405180910390fd5b565b5f805f9054906101000a900473ffffffffffffffffffffffffffffffffffffffff169050815f806101000a81548173ffffffffffffffffffffffffffffffffffffffff021916908373ffffffffffffffffffffffffffffffffffffffff1602179055508173ffffffffffffffffffffffffffffffffffffffff168173ffffffffffffffffffffffffffffffffffffffff167f8be0079c531659141344cd1fd0a4f28419497f9722a3daafe3b4186f6b6457e060405160405180910390a35050565b5f818361078d9190610ba7565b905092915050565b5f33905090565b5f80fd5b5f73ffffffffffffffffffffffffffffffffffffffff82169050919050565b5f6107c9826107a0565b9050919050565b6107d9816107bf565b81146107e3575f80fd5b50565b5f813590506107f4816107d0565b92915050565b5f819050919050565b61080c816107fa565b8114610816575f80fd5b50565b5f8135905061082781610803565b92915050565b5f80604083850312156108435761084261079c565b5b5f610850858286016107e6565b925050602061086185828601610819565b9150509250929050565b610874816107fa565b82525050565b5f60208201905061088d5f83018461086b565b92915050565b5f602082840312156108a8576108a761079c565b5b5f6108b5848285016107e6565b91505092915050565b5f602082840312156108d3576108d261079c565b5b5f6108e084828501610819565b91505092915050565b6108f2816107bf565b82525050565b5f60208201905061090b5f8301846108e9565b92915050565b5f819050919050565b5f61093461092f61092a846107a0565b610911565b6107a0565b9050919050565b5f6109458261091a565b9050919050565b5f6109568261093b565b9050919050565b6109668161094c565b82525050565b5f60208201905061097f5f83018461095d565b92915050565b5f6040820190506109985f8301856108e9565b6109a5602083018461086b565b9392505050565b5f8115159050919050565b6109c0816109ac565b81146109ca575f80fd5b50565b5f815190506109db816109b7565b92915050565b5f602082840312156109f6576109f561079c565b5b5f610a03848285016109cd565b91505092915050565b5f82825260208201905092915050565b7f4661756365743a20596f752063616e27742064726970207965740000000000005f82015250565b5f610a50601a83610a0c565b9150610a5b82610a1c565b602082019050919050565b5f6020820190508181035f830152610a7d81610a44565b9050919050565b7f4f776e61626c653a206e6577206f776e657220697320746865207a65726f20615f8201527f6464726573730000000000000000000000000000000000000000000000000000602082015250565b5f610ade602683610a0c565b9150610ae982610a84565b604082019050919050565b5f6020820190508181035f830152610b0b81610ad2565b9050919050565b7f4f776e61626c653a2063616c6c6572206973206e6f7420746865206f776e65725f82015250565b5f610b46602083610a0c565b9150610b5182610b12565b602082019050919050565b5f6020820190508181035f830152610b7381610b3a565b9050919050565b7f4e487b71000000000000000000000000000000000000000000000000000000005f52601160045260245ffd5b5f610bb1826107fa565b9150610bbc836107fa565b9250828201905080821115610bd457610bd3610b7a565b5b9291505056fea2646970667358221220ab1f800aadc28d0c01e15964a573fac99df47377b659a02c26120eb0275b944464736f6c63430008140033",
  "immutableReferences": {},
  "source": "// SPDX-License-Identifier: MIT\r\npragma solidity ^0.8.0;\r\n\r\nimport \"@openzeppelin/contracts/access/Ownable.sol\";\r\nimport \"@openzeppelin/contracts/utils/math/SafeMath.sol\";\r\nimport \"@openzeppelin/contracts/token/ERC20/IERC20.sol\";\r\n\r\ncontract Faucet is Ownable {\r\n    using SafeMath for uint256;\r\n\r\n    mapping(address => uint256) private lastAccessTime;\r\n\r\n    IERC20 public token; // Change to the appropriate token interface\r\n\r\n    uint256 public dripAmount; // Amount to drip each time\r\n    uint256 public dripInterval; // Time interval between drips\r\n\r\n    event Drip(address indexed to, uint256 amount);\r\n\r\n    constructor(address _token, uint256 _dripAmount, uint256 _dripInterval) {\r\n        token = IERC20(_token);\r\n        dripAmount = _dripAmount;\r\n        dripInterval = _dripInterval;\r\n    }\r\n\r\n    function drip() external {\r\n        require(\r\n            lastAccessTime[msg.sender] == 0 ||\r\n                block.timestamp >= lastAccessTime[msg.sender].add(dripInterval),\r\n            \"Faucet: You can't drip yet\"\r\n        );\r\n\r\n        lastAccessTime[msg.sender] = block.timestamp;\r\n\r\n        token.transfer(msg.sender, dripAmount);\r\n        emit Drip(msg.sender, dripAmount);\r\n    }\r\n\r\n    function getLastAccessTime(address user) external view returns (uint256) {\r\n        return lastAccessTime[user];\r\n    }\r\n\r\n    function setDripAmount(uint256 _dripAmount) external onlyOwner {\r\n        dripAmount = _dripAmount;\r\n    }\r\n\r\n    function setDripInterval(uint256 _dripInterval) external onlyOwner {\r\n        dripInterval = _dripInterval;\r\n    }\r\n\r\n    function withdrawTokens(\r\n        address _token,\r\n        uint256 _amount\r\n    ) external onlyOwner {\r\n        IERC20(_token).transfer(msg.sender, _amount);\r\n    }\r\n\r\n    function withdrawETH(uint256 _amount) external onlyOwner {\r\n        payable(owner()).transfer(_amount);\r\n    }\r\n}\r\n",
  "sourcePath": "C:\\Users\\Yash kanjariya\\Desktop\\Projects\\AOH_BoiledRice\\web3\\contracts\\faucet.sol",
  "compiler": {
    "name": "solc",
    "version": "0.8.20+commit.a1b79de6.Emscripten.clang"
  },
  "schemaVersion": "3.4.16",
  "updatedAt": "2024-03-30T20:44:07.885Z",
  "devdoc": {
    "kind": "dev",
    "methods": {
      "owner()": {
        "details": "Returns the address of the current owner."
      },
      "renounceOwnership()": {
        "details": "Leaves the contract without owner. It will not be possible to call `onlyOwner` functions. Can only be called by the current owner. NOTE: Renouncing ownership will leave the contract without an owner, thereby disabling any functionality that is only available to the owner."
      },
      "transferOwnership(address)": {
        "details": "Transfers ownership of the contract to a new account (`newOwner`). Can only be called by the current owner."
      }
    },
    "version": 1
  },
  "userdoc": {
    "kind": "user",
    "methods": {},
    "version": 1
  }
}