{
  "contractName": "Faucet",
  "abi": [
    {
      "inputs": [
        {
          "internalType": "address",
          "name": "_token",
          "type": "address"
        },
        {
          "internalType": "uint256",
          "name": "_dripAmount",
          "type": "uint256"
        },
        {
          "internalType": "uint256",
          "name": "_dripInterval",
          "type": "uint256"
        }
      ],
      "stateMutability": "nonpayable",
      "type": "constructor"
    },
    {
      "anonymous": false,
      "inputs": [
        {
          "indexed": true,
          "internalType": "address",
          "name": "to",
          "type": "address"
        },
        {
          "indexed": false,
          "internalType": "uint256",
          "name": "amount",
          "type": "uint256"
        }
      ],
      "name": "Drip",
      "type": "event"
    },
    {
      "anonymous": false,
      "inputs": [
        {
          "indexed": true,
          "internalType": "address",
          "name": "previousOwner",
          "type": "address"
        },
        {
          "indexed": true,
          "internalType": "address",
          "name": "newOwner",
          "type": "address"
        }
      ],
      "name": "OwnershipTransferred",
      "type": "event"
    },
    {
      "inputs": [],
      "name": "dripAmount",
      "outputs": [
        {
          "internalType": "uint256",
          "name": "",
          "type": "uint256"
        }
      ],
      "stateMutability": "view",
      "type": "function",
      "constant": true
    },
    {
      "inputs": [],
      "name": "dripInterval",
      "outputs": [
        {
          "internalType": "uint256",
          "name": "",
          "type": "uint256"
        }
      ],
      "stateMutability": "view",
      "type": "function",
      "constant": true
    },
    {
      "inputs": [],
      "name": "owner",
      "outputs": [
        {
          "internalType": "address",
          "name": "",
          "type": "address"
        }
      ],
      "stateMutability": "view",
      "type": "function",
      "constant": true
    },
    {
      "inputs": [],
      "name": "renounceOwnership",
      "outputs": [],
      "stateMutability": "nonpayable",
      "type": "function"
    },
    {
      "inputs": [],
      "name": "token",
      "outputs": [
        {
          "internalType": "contract IERC20",
          "name": "",
          "type": "address"
        }
      ],
      "stateMutability": "view",
      "type": "function",
      "constant": true
    },
    {
      "inputs": [
        {
          "internalType": "address",
          "name": "newOwner",
          "type": "address"
        }
      ],
      "name": "transferOwnership",
      "outputs": [],
      "stateMutability": "nonpayable",
      "type": "function"
    },
    {
      "inputs": [],
      "name": "drip",
      "outputs": [],
      "stateMutability": "nonpayable",
      "type": "function"
    },
    {
      "inputs": [
        {
          "internalType": "uint256",
          "name": "_dripAmount",
          "type": "uint256"
        }
      ],
      "name": "setDripAmount",
      "outputs": [],
      "stateMutability": "nonpayable",
      "type": "function"
    },
    {
      "inputs": [
        {
          "internalType": "uint256",
          "name": "_dripInterval",
          "type": "uint256"
        }
      ],
      "name": "setDripInterval",
      "outputs": [],
      "stateMutability": "nonpayable",
      "type": "function"
    },
    {
      "inputs": [
        {
          "internalType": "address",
          "name": "_token",
          "type": "address"
        },
        {
          "internalType": "uint256",
          "name": "_amount",
          "type": "uint256"
        }
      ],
      "name": "withdrawTokens",
      "outputs": [],
      "stateMutability": "nonpayable",
      "type": "function"
    },
    {
      "inputs": [
        {
          "internalType": "uint256",
          "name": "_amount",
          "type": "uint256"
        }
      ],
      "name": "withdrawETH",
      "outputs": [],
      "stateMutability": "nonpayable",
      "type": "function"
    }
  ],
  "bytecode": "0x60806040523480156200001157600080fd5b5060405162001073380380620010738339818101604052810190620000379190620001a9565b620000576200004b620000af60201b60201c565b620000b760201b60201c565b82600260006101000a81548173ffffffffffffffffffffffffffffffffffffffff021916908373ffffffffffffffffffffffffffffffffffffffff160217905550816003819055508060048190555050505062000271565b600033905090565b60008060009054906101000a900473ffffffffffffffffffffffffffffffffffffffff169050816000806101000a81548173ffffffffffffffffffffffffffffffffffffffff021916908373ffffffffffffffffffffffffffffffffffffffff1602179055508173ffffffffffffffffffffffffffffffffffffffff168173ffffffffffffffffffffffffffffffffffffffff167f8be0079c531659141344cd1fd0a4f28419497f9722a3daafe3b4186f6b6457e060405160405180910390a35050565b6000815190506200018c816200023d565b92915050565b600081519050620001a38162000257565b92915050565b600080600060608486031215620001bf57600080fd5b6000620001cf868287016200017b565b9350506020620001e28682870162000192565b9250506040620001f58682870162000192565b9150509250925092565b60006200020c8262000213565b9050919050565b600073ffffffffffffffffffffffffffffffffffffffff82169050919050565b6000819050919050565b6200024881620001ff565b81146200025457600080fd5b50565b620002628162000233565b81146200026e57600080fd5b50565b610df280620002816000396000f3fe608060405234801561001057600080fd5b50600436106100a95760003560e01c80638da5cb5b116100715780638da5cb5b1461012c5780639f678cca1461014a578063a9a89db914610154578063f14210a614610170578063f2fde38b1461018c578063fc0c546a146101a8576100a9565b806306b091f9146100ae57806335a1529b146100ca578063543f8c58146100e85780636a21481114610104578063715018a614610122575b600080fd5b6100c860048036038101906100c391906109fa565b6101c6565b005b6100d26102d4565b6040516100df9190610c5a565b60405180910390f35b61010260048036038101906100fd9190610a5f565b6102da565b005b61010c610360565b6040516101199190610c5a565b60405180910390f35b61012a610366565b005b6101346103ee565b6040516101419190610b9b565b60405180910390f35b610152610417565b005b61016e60048036038101906101699190610a5f565b61063f565b005b61018a60048036038101906101859190610a5f565b6106c5565b005b6101a660048036038101906101a191906109d1565b610792565b005b6101b061088a565b6040516101bd9190610bdf565b60405180910390f35b6101ce6108b0565b73ffffffffffffffffffffffffffffffffffffffff166101ec6103ee565b73ffffffffffffffffffffffffffffffffffffffff1614610242576040517f08c379a000000000000000000000000000000000000000000000000000000000815260040161023990610c1a565b60405180910390fd5b8173ffffffffffffffffffffffffffffffffffffffff1663a9059cbb33836040518363ffffffff1660e01b815260040161027d929190610bb6565b602060405180830381600087803b15801561029757600080fd5b505af11580156102ab573d6000803e3d6000fd5b505050506040513d601f19601f820116820180604052508101906102cf9190610a36565b505050565b60035481565b6102e26108b0565b73ffffffffffffffffffffffffffffffffffffffff166103006103ee565b73ffffffffffffffffffffffffffffffffffffffff1614610356576040517f08c379a000000000000000000000000000000000000000000000000000000000815260040161034d90610c1a565b60405180910390fd5b8060038190555050565b60045481565b61036e6108b0565b73ffffffffffffffffffffffffffffffffffffffff1661038c6103ee565b73ffffffffffffffffffffffffffffffffffffffff16146103e2576040517f08c379a00000000000000000000000000000000000000000000000000000000081526004016103d990610c1a565b60405180910390fd5b6103ec60006108b8565b565b60008060009054906101000a900473ffffffffffffffffffffffffffffffffffffffff16905090565b6000600160003373ffffffffffffffffffffffffffffffffffffffff1673ffffffffffffffffffffffffffffffffffffffff1681526020019081526020016000205414806104b857506104b4600454600160003373ffffffffffffffffffffffffffffffffffffffff1673ffffffffffffffffffffffffffffffffffffffff1681526020019081526020016000205461097c90919063ffffffff16565b4210155b6104f7576040517f08c379a00000000000000000000000000000000000000000000000000000000081526004016104ee90610c3a565b60405180910390fd5b42600160003373ffffffffffffffffffffffffffffffffffffffff1673ffffffffffffffffffffffffffffffffffffffff16815260200190815260200160002081905550600260009054906101000a900473ffffffffffffffffffffffffffffffffffffffff1673ffffffffffffffffffffffffffffffffffffffff1663a9059cbb336003546040518363ffffffff1660e01b815260040161059a929190610bb6565b602060405180830381600087803b1580156105b457600080fd5b505af11580156105c8573d6000803e3d6000fd5b505050506040513d601f19601f820116820180604052508101906105ec9190610a36565b503373ffffffffffffffffffffffffffffffffffffffff167f7cad7fbe1215c486c724bf41124e0ed689d280724381379da844556025c463c16003546040516106359190610c5a565b60405180910390a2565b6106476108b0565b73ffffffffffffffffffffffffffffffffffffffff166106656103ee565b73ffffffffffffffffffffffffffffffffffffffff16146106bb576040517f08c379a00000000000000000000000000000000000000000000000000000000081526004016106b290610c1a565b60405180910390fd5b8060048190555050565b6106cd6108b0565b73ffffffffffffffffffffffffffffffffffffffff166106eb6103ee565b73ffffffffffffffffffffffffffffffffffffffff1614610741576040517f08c379a000000000000000000000000000000000000000000000000000000000815260040161073890610c1a565b60405180910390fd5b6107496103ee565b73ffffffffffffffffffffffffffffffffffffffff166108fc829081150290604051600060405180830381858888f1935050505015801561078e573d6000803e3d6000fd5b5050565b61079a6108b0565b73ffffffffffffffffffffffffffffffffffffffff166107b86103ee565b73ffffffffffffffffffffffffffffffffffffffff161461080e576040517f08c379a000000000000000000000000000000000000000000000000000000000815260040161080590610c1a565b60405180910390fd5b600073ffffffffffffffffffffffffffffffffffffffff168173ffffffffffffffffffffffffffffffffffffffff16141561087e576040517f08c379a000000000000000000000000000000000000000000000000000000000815260040161087590610bfa565b60405180910390fd5b610887816108b8565b50565b600260009054906101000a900473ffffffffffffffffffffffffffffffffffffffff1681565b600033905090565b60008060009054906101000a900473ffffffffffffffffffffffffffffffffffffffff169050816000806101000a81548173ffffffffffffffffffffffffffffffffffffffff021916908373ffffffffffffffffffffffffffffffffffffffff1602179055508173ffffffffffffffffffffffffffffffffffffffff168173ffffffffffffffffffffffffffffffffffffffff167f8be0079c531659141344cd1fd0a4f28419497f9722a3daafe3b4186f6b6457e060405160405180910390a35050565b6000818361098a9190610c86565b905092915050565b6000813590506109a181610d77565b92915050565b6000815190506109b681610d8e565b92915050565b6000813590506109cb81610da5565b92915050565b6000602082840312156109e357600080fd5b60006109f184828501610992565b91505092915050565b60008060408385031215610a0d57600080fd5b6000610a1b85828601610992565b9250506020610a2c858286016109bc565b9150509250929050565b600060208284031215610a4857600080fd5b6000610a56848285016109a7565b91505092915050565b600060208284031215610a7157600080fd5b6000610a7f848285016109bc565b91505092915050565b610a9181610cdc565b82525050565b610aa081610d24565b82525050565b6000610ab3602683610c75565b91507f4f776e61626c653a206e6577206f776e657220697320746865207a65726f206160008301527f64647265737300000000000000000000000000000000000000000000000000006020830152604082019050919050565b6000610b19602083610c75565b91507f4f776e61626c653a2063616c6c6572206973206e6f7420746865206f776e65726000830152602082019050919050565b6000610b59601a83610c75565b91507f4661756365743a20596f752063616e27742064726970207965740000000000006000830152602082019050919050565b610b9581610d1a565b82525050565b6000602082019050610bb06000830184610a88565b92915050565b6000604082019050610bcb6000830185610a88565b610bd86020830184610b8c565b9392505050565b6000602082019050610bf46000830184610a97565b92915050565b60006020820190508181036000830152610c1381610aa6565b9050919050565b60006020820190508181036000830152610c3381610b0c565b9050919050565b60006020820190508181036000830152610c5381610b4c565b9050919050565b6000602082019050610c6f6000830184610b8c565b92915050565b600082825260208201905092915050565b6000610c9182610d1a565b9150610c9c83610d1a565b9250827fffffffffffffffffffffffffffffffffffffffffffffffffffffffffffffffff03821115610cd157610cd0610d48565b5b828201905092915050565b6000610ce782610cfa565b9050919050565b60008115159050919050565b600073ffffffffffffffffffffffffffffffffffffffff82169050919050565b6000819050919050565b6000610d2f82610d36565b9050919050565b6000610d4182610cfa565b9050919050565b7f4e487b7100000000000000000000000000000000000000000000000000000000600052601160045260246000fd5b610d8081610cdc565b8114610d8b57600080fd5b50565b610d9781610cee565b8114610da257600080fd5b50565b610dae81610d1a565b8114610db957600080fd5b5056fea26469706673582212203e16b967621b62fc98a0b3ce922d8ded9f9f5bc38c42fd93c8b4a76483c0f9fa64736f6c63430008000033",
  "immutableReferences": {},
  "source": "// SPDX-License-Identifier: MIT\r\npragma solidity ^0.8.0;\r\n\r\nimport \"@openzeppelin/contracts/access/Ownable.sol\";\r\nimport \"@openzeppelin/contracts/utils/math/SafeMath.sol\";\r\nimport \"@openzeppelin/contracts/token/ERC20/IERC20.sol\";\r\n\r\ncontract Faucet is Ownable {\r\n    using SafeMath for uint256;\r\n\r\n    mapping(address => uint256) private lastAccessTime;\r\n\r\n    IERC20 public token; // Change to the appropriate token interface\r\n\r\n    uint256 public dripAmount; // Amount to drip each time\r\n    uint256 public dripInterval; // Time interval between drips\r\n\r\n    event Drip(address indexed to, uint256 amount);\r\n\r\n    constructor(address _token, uint256 _dripAmount, uint256 _dripInterval) {\r\n        token = IERC20(_token);\r\n        dripAmount = _dripAmount;\r\n        dripInterval = _dripInterval;\r\n    }\r\n\r\n    function drip() external {\r\n        require(\r\n            lastAccessTime[msg.sender] == 0 ||\r\n                block.timestamp >= lastAccessTime[msg.sender].add(dripInterval),\r\n            \"Faucet: You can't drip yet\"\r\n        );\r\n\r\n        lastAccessTime[msg.sender] = block.timestamp;\r\n\r\n        token.transfer(msg.sender, dripAmount);\r\n        emit Drip(msg.sender, dripAmount);\r\n    }\r\n\r\n    function setDripAmount(uint256 _dripAmount) external onlyOwner {\r\n        dripAmount = _dripAmount;\r\n    }\r\n\r\n    function setDripInterval(uint256 _dripInterval) external onlyOwner {\r\n        dripInterval = _dripInterval;\r\n    }\r\n\r\n    function withdrawTokens(address _token, uint256 _amount) external onlyOwner {\r\n        IERC20(_token).transfer(msg.sender, _amount);\r\n    }\r\n\r\n    function withdrawETH(uint256 _amount) external onlyOwner {\r\n        payable(owner()).transfer(_amount);\r\n    }\r\n}\r\n",
  "sourcePath": "C:\\Users\\Yash kanjariya\\Desktop\\Projects\\AOH_BoiledRice\\web3\\contracts\\faucet.sol",
  "compiler": {
    "name": "solc",
    "version": "0.8.0+commit.c7dfd78e.Emscripten.clang"
  },
  "schemaVersion": "3.4.16",
  "updatedAt": "2024-03-30T12:46:35.594Z",
  "networkType": "ethereum",
  "devdoc": {
    "kind": "dev",
    "methods": {
      "owner()": {
        "details": "Returns the address of the current owner."
      },
      "renounceOwnership()": {
        "details": "Leaves the contract without owner. It will not be possible to call `onlyOwner` functions anymore. Can only be called by the current owner. NOTE: Renouncing ownership will leave the contract without an owner, thereby removing any functionality that is only available to the owner."
      },
      "transferOwnership(address)": {
        "details": "Transfers ownership of the contract to a new account (`newOwner`). Can only be called by the current owner."
      }
    },
    "version": 1
  },
  "userdoc": {
    "kind": "user",
    "methods": {},
    "version": 1
  }
}