{
  "contractName": "UserDataContract",
  "abi": [
    {
      "inputs": [],
      "stateMutability": "nonpayable",
      "type": "constructor"
    },
    {
      "anonymous": false,
      "inputs": [
        {
          "indexed": true,
          "internalType": "uint256",
          "name": "tokenId",
          "type": "uint256"
        },
        {
          "indexed": false,
          "internalType": "string",
          "name": "newAdminUsername",
          "type": "string"
        }
      ],
      "name": "AdminUsernameUpdated",
      "type": "event"
    },
    {
      "anonymous": false,
      "inputs": [
        {
          "indexed": true,
          "internalType": "address",
          "name": "owner",
          "type": "address"
        },
        {
          "indexed": true,
          "internalType": "address",
          "name": "approved",
          "type": "address"
        },
        {
          "indexed": true,
          "internalType": "uint256",
          "name": "tokenId",
          "type": "uint256"
        }
      ],
      "name": "Approval",
      "type": "event"
    },
    {
      "anonymous": false,
      "inputs": [
        {
          "indexed": true,
          "internalType": "address",
          "name": "owner",
          "type": "address"
        },
        {
          "indexed": true,
          "internalType": "address",
          "name": "operator",
          "type": "address"
        },
        {
          "indexed": false,
          "internalType": "bool",
          "name": "approved",
          "type": "bool"
        }
      ],
      "name": "ApprovalForAll",
      "type": "event"
    },
    {
      "anonymous": false,
      "inputs": [
        {
          "indexed": true,
          "internalType": "uint256",
          "name": "tokenId",
          "type": "uint256"
        },
        {
          "indexed": false,
          "internalType": "string",
          "name": "newDailyPlan",
          "type": "string"
        }
      ],
      "name": "DailyPlanUpdated",
      "type": "event"
    },
    {
      "anonymous": false,
      "inputs": [
        {
          "indexed": true,
          "internalType": "uint256",
          "name": "tokenId",
          "type": "uint256"
        },
        {
          "indexed": false,
          "internalType": "uint256",
          "name": "newTotalDays",
          "type": "uint256"
        }
      ],
      "name": "TotalDaysUpdated",
      "type": "event"
    },
    {
      "anonymous": false,
      "inputs": [
        {
          "indexed": true,
          "internalType": "address",
          "name": "from",
          "type": "address"
        },
        {
          "indexed": true,
          "internalType": "address",
          "name": "to",
          "type": "address"
        },
        {
          "indexed": true,
          "internalType": "uint256",
          "name": "tokenId",
          "type": "uint256"
        }
      ],
      "name": "Transfer",
      "type": "event"
    },
    {
      "anonymous": false,
      "inputs": [
        {
          "indexed": true,
          "internalType": "uint256",
          "name": "tokenId",
          "type": "uint256"
        },
        {
          "indexed": false,
          "internalType": "string",
          "name": "adminUsername",
          "type": "string"
        },
        {
          "indexed": false,
          "internalType": "string",
          "name": "username",
          "type": "string"
        }
      ],
      "name": "UserRegistered",
      "type": "event"
    },
    {
      "anonymous": false,
      "inputs": [
        {
          "indexed": true,
          "internalType": "uint256",
          "name": "tokenId",
          "type": "uint256"
        },
        {
          "indexed": false,
          "internalType": "string",
          "name": "newUsername",
          "type": "string"
        }
      ],
      "name": "UsernameUpdated",
      "type": "event"
    },
    {
      "inputs": [
        {
          "internalType": "address",
          "name": "to",
          "type": "address"
        },
        {
          "internalType": "uint256",
          "name": "tokenId",
          "type": "uint256"
        }
      ],
      "name": "approve",
      "outputs": [],
      "stateMutability": "nonpayable",
      "type": "function"
    },
    {
      "inputs": [
        {
          "internalType": "address",
          "name": "owner",
          "type": "address"
        }
      ],
      "name": "balanceOf",
      "outputs": [
        {
          "internalType": "uint256",
          "name": "",
          "type": "uint256"
        }
      ],
      "stateMutability": "view",
      "type": "function",
      "constant": true
    },
    {
      "inputs": [
        {
          "internalType": "uint256",
          "name": "tokenId",
          "type": "uint256"
        }
      ],
      "name": "getApproved",
      "outputs": [
        {
          "internalType": "address",
          "name": "",
          "type": "address"
        }
      ],
      "stateMutability": "view",
      "type": "function",
      "constant": true
    },
    {
      "inputs": [
        {
          "internalType": "address",
          "name": "owner",
          "type": "address"
        },
        {
          "internalType": "address",
          "name": "operator",
          "type": "address"
        }
      ],
      "name": "isApprovedForAll",
      "outputs": [
        {
          "internalType": "bool",
          "name": "",
          "type": "bool"
        }
      ],
      "stateMutability": "view",
      "type": "function",
      "constant": true
    },
    {
      "inputs": [],
      "name": "name",
      "outputs": [
        {
          "internalType": "string",
          "name": "",
          "type": "string"
        }
      ],
      "stateMutability": "view",
      "type": "function",
      "constant": true
    },
    {
      "inputs": [
        {
          "internalType": "uint256",
          "name": "tokenId",
          "type": "uint256"
        }
      ],
      "name": "ownerOf",
      "outputs": [
        {
          "internalType": "address",
          "name": "",
          "type": "address"
        }
      ],
      "stateMutability": "view",
      "type": "function",
      "constant": true
    },
    {
      "inputs": [
        {
          "internalType": "address",
          "name": "from",
          "type": "address"
        },
        {
          "internalType": "address",
          "name": "to",
          "type": "address"
        },
        {
          "internalType": "uint256",
          "name": "tokenId",
          "type": "uint256"
        }
      ],
      "name": "safeTransferFrom",
      "outputs": [],
      "stateMutability": "nonpayable",
      "type": "function"
    },
    {
      "inputs": [
        {
          "internalType": "address",
          "name": "from",
          "type": "address"
        },
        {
          "internalType": "address",
          "name": "to",
          "type": "address"
        },
        {
          "internalType": "uint256",
          "name": "tokenId",
          "type": "uint256"
        },
        {
          "internalType": "bytes",
          "name": "_data",
          "type": "bytes"
        }
      ],
      "name": "safeTransferFrom",
      "outputs": [],
      "stateMutability": "nonpayable",
      "type": "function"
    },
    {
      "inputs": [
        {
          "internalType": "address",
          "name": "operator",
          "type": "address"
        },
        {
          "internalType": "bool",
          "name": "approved",
          "type": "bool"
        }
      ],
      "name": "setApprovalForAll",
      "outputs": [],
      "stateMutability": "nonpayable",
      "type": "function"
    },
    {
      "inputs": [
        {
          "internalType": "bytes4",
          "name": "interfaceId",
          "type": "bytes4"
        }
      ],
      "name": "supportsInterface",
      "outputs": [
        {
          "internalType": "bool",
          "name": "",
          "type": "bool"
        }
      ],
      "stateMutability": "view",
      "type": "function",
      "constant": true
    },
    {
      "inputs": [],
      "name": "symbol",
      "outputs": [
        {
          "internalType": "string",
          "name": "",
          "type": "string"
        }
      ],
      "stateMutability": "view",
      "type": "function",
      "constant": true
    },
    {
      "inputs": [
        {
          "internalType": "uint256",
          "name": "tokenId",
          "type": "uint256"
        }
      ],
      "name": "tokenURI",
      "outputs": [
        {
          "internalType": "string",
          "name": "",
          "type": "string"
        }
      ],
      "stateMutability": "view",
      "type": "function",
      "constant": true
    },
    {
      "inputs": [
        {
          "internalType": "address",
          "name": "from",
          "type": "address"
        },
        {
          "internalType": "address",
          "name": "to",
          "type": "address"
        },
        {
          "internalType": "uint256",
          "name": "tokenId",
          "type": "uint256"
        }
      ],
      "name": "transferFrom",
      "outputs": [],
      "stateMutability": "nonpayable",
      "type": "function"
    },
    {
      "inputs": [
        {
          "internalType": "string",
          "name": "_adminUsername",
          "type": "string"
        },
        {
          "internalType": "string",
          "name": "_username",
          "type": "string"
        },
        {
          "internalType": "uint256",
          "name": "_totalDays",
          "type": "uint256"
        },
        {
          "internalType": "string",
          "name": "_dailyPlan",
          "type": "string"
        }
      ],
      "name": "registerUser",
      "outputs": [],
      "stateMutability": "nonpayable",
      "type": "function"
    },
    {
      "inputs": [
        {
          "internalType": "uint256",
          "name": "_tokenId",
          "type": "uint256"
        },
        {
          "internalType": "string",
          "name": "_dailyPlan",
          "type": "string"
        }
      ],
      "name": "updateDailyPlan",
      "outputs": [],
      "stateMutability": "nonpayable",
      "type": "function"
    },
    {
      "inputs": [
        {
          "internalType": "uint256",
          "name": "_tokenId",
          "type": "uint256"
        },
        {
          "internalType": "string",
          "name": "_adminUsername",
          "type": "string"
        }
      ],
      "name": "updateAdminUsername",
      "outputs": [],
      "stateMutability": "nonpayable",
      "type": "function"
    },
    {
      "inputs": [
        {
          "internalType": "uint256",
          "name": "_tokenId",
          "type": "uint256"
        },
        {
          "internalType": "string",
          "name": "_username",
          "type": "string"
        }
      ],
      "name": "updateUsername",
      "outputs": [],
      "stateMutability": "nonpayable",
      "type": "function"
    },
    {
      "inputs": [
        {
          "internalType": "uint256",
          "name": "_tokenId",
          "type": "uint256"
        },
        {
          "internalType": "uint256",
          "name": "_totalDays",
          "type": "uint256"
        }
      ],
      "name": "updateTotalDays",
      "outputs": [],
      "stateMutability": "nonpayable",
      "type": "function"
    },
    {
      "inputs": [
        {
          "internalType": "uint256",
          "name": "_tokenId",
          "type": "uint256"
        }
      ],
      "name": "getUserData",
      "outputs": [
        {
          "internalType": "string",
          "name": "adminUsername",
          "type": "string"
        },
        {
          "internalType": "string",
          "name": "username",
          "type": "string"
        },
        {
          "internalType": "uint256",
          "name": "totalDays",
          "type": "uint256"
        },
        {
          "internalType": "string",
          "name": "dailyPlan",
          "type": "string"
        }
      ],
      "stateMutability": "view",
      "type": "function",
      "constant": true
    }
  ],
  "bytecode": "0x60806040523480156200001157600080fd5b506040518060400160405280600d81526020017f5573657244617461546f6b656e000000000000000000000000000000000000008152506040518060400160405280600381526020017f5544540000000000000000000000000000000000000000000000000000000000815250816000908051906020019062000096929190620000b8565b508060019080519060200190620000af929190620000b8565b505050620001cd565b828054620000c69062000168565b90600052602060002090601f016020900481019282620000ea576000855562000136565b82601f106200010557805160ff191683800117855562000136565b8280016001018555821562000136579182015b828111156200013557825182559160200191906001019062000118565b5b50905062000145919062000149565b5090565b5b80821115620001645760008160009055506001016200014a565b5090565b600060028204905060018216806200018157607f821691505b602082108114156200019857620001976200019e565b5b50919050565b7f4e487b7100000000000000000000000000000000000000000000000000000000600052602260045260246000fd5b61313580620001dd6000396000f3fe608060405234801561001057600080fd5b50600436106101215760003560e01c80636d9c72d9116100ad578063b85a647511610071578063b85a647514610319578063b88d4fde14610335578063c87b56dd14610351578063d28b934214610381578063e985e9c51461039d57610121565b80636d9c72d91461027757806370a0823114610293578063881546af146102c357806395d89b41146102df578063a22cb465146102fd57610121565b80631fef580c116100f45780631fef580c146101c057806323b872dd146101f357806342842e0e1461020f5780636352211e1461022b57806365d66d911461025b57610121565b806301ffc9a71461012657806306fdde0314610156578063081812fc14610174578063095ea7b3146101a4575b600080fd5b610140600480360381019061013b91906120e9565b6103cd565b60405161014d91906129dc565b60405180910390f35b61015e6104af565b60405161016b91906129f7565b60405180910390f35b61018e600480360381019061018991906121e6565b610541565b60405161019b9190612975565b60405180910390f35b6101be60048036038101906101b991906120ad565b6105c6565b005b6101da60048036038101906101d591906121e6565b6106de565b6040516101ea9493929190612a50565b60405180910390f35b61020d60048036038101906102089190611fa7565b6108c1565b005b61022960048036038101906102249190611fa7565b610921565b005b610245600480360381019061024091906121e6565b610941565b6040516102529190612975565b60405180910390f35b6102756004803603810190610270919061213b565b6109f3565b005b610291600480360381019061028c9190612263565b610b51565b005b6102ad60048036038101906102a89190611f42565b610bf6565b6040516102ba9190612cca565b60405180910390f35b6102dd60048036038101906102d8919061220f565b610cae565b005b6102e7610d63565b6040516102f491906129f7565b60405180910390f35b61031760048036038101906103129190612071565b610df5565b005b610333600480360381019061032e919061220f565b610e0b565b005b61034f600480360381019061034a9190611ff6565b610ec0565b005b61036b600480360381019061036691906121e6565b610f22565b60405161037891906129f7565b60405180910390f35b61039b6004803603810190610396919061220f565b610fc9565b005b6103b760048036038101906103b29190611f6b565b61107e565b6040516103c491906129dc565b60405180910390f35b60007f80ac58cd000000000000000000000000000000000000000000000000000000007bffffffffffffffffffffffffffffffffffffffffffffffffffffffff1916827bffffffffffffffffffffffffffffffffffffffffffffffffffffffff1916148061049857507f5b5e139f000000000000000000000000000000000000000000000000000000007bffffffffffffffffffffffffffffffffffffffffffffffffffffffff1916827bffffffffffffffffffffffffffffffffffffffffffffffffffffffff1916145b806104a857506104a782611112565b5b9050919050565b6060600080546104be90612f2a565b80601f01602080910402602001604051908101604052809291908181526020018280546104ea90612f2a565b80156105375780601f1061050c57610100808354040283529160200191610537565b820191906000526020600020905b81548152906001019060200180831161051a57829003601f168201915b5050505050905090565b600061054c8261117c565b61058b576040517f08c379a000000000000000000000000000000000000000000000000000000000815260040161058290612c2a565b60405180910390fd5b6004600083815260200190815260200160002060009054906101000a900473ffffffffffffffffffffffffffffffffffffffff169050919050565b60006105d182610941565b90508073ffffffffffffffffffffffffffffffffffffffff168373ffffffffffffffffffffffffffffffffffffffff161415610642576040517f08c379a000000000000000000000000000000000000000000000000000000000815260040161063990612c8a565b60405180910390fd5b8073ffffffffffffffffffffffffffffffffffffffff166106616111e8565b73ffffffffffffffffffffffffffffffffffffffff161480610690575061068f8161068a6111e8565b61107e565b5b6106cf576040517f08c379a00000000000000000000000000000000000000000000000000000000081526004016106c690612baa565b60405180910390fd5b6106d983836111f0565b505050565b606080600060606000600660008781526020019081526020016000209050806000018160010182600201548360030183805461071990612f2a565b80601f016020809104026020016040519081016040528092919081815260200182805461074590612f2a565b80156107925780601f1061076757610100808354040283529160200191610792565b820191906000526020600020905b81548152906001019060200180831161077557829003601f168201915b505050505093508280546107a590612f2a565b80601f01602080910402602001604051908101604052809291908181526020018280546107d190612f2a565b801561081e5780601f106107f35761010080835404028352916020019161081e565b820191906000526020600020905b81548152906001019060200180831161080157829003601f168201915b5050505050925080805461083190612f2a565b80601f016020809104026020016040519081016040528092919081815260200182805461085d90612f2a565b80156108aa5780601f1061087f576101008083540402835291602001916108aa565b820191906000526020600020905b81548152906001019060200180831161088d57829003601f168201915b505050505090509450945094509450509193509193565b6108d26108cc6111e8565b826112a9565b610911576040517f08c379a000000000000000000000000000000000000000000000000000000000815260040161090890612caa565b60405180910390fd5b61091c838383611387565b505050565b61093c83838360405180602001604052806000815250610ec0565b505050565b6000806002600084815260200190815260200160002060009054906101000a900473ffffffffffffffffffffffffffffffffffffffff169050600073ffffffffffffffffffffffffffffffffffffffff168173ffffffffffffffffffffffffffffffffffffffff1614156109ea576040517f08c379a00000000000000000000000000000000000000000000000000000000081526004016109e190612bea565b60405180910390fd5b80915050919050565b6000845111610a37576040517f08c379a0000000000000000000000000000000000000000000000000000000008152600401610a2e90612b8a565b60405180910390fd5b6000835111610a7b576040517f08c379a0000000000000000000000000000000000000000000000000000000008152600401610a7290612aaa565b60405180910390fd5b6000600754905060076000815480929190610a9590612f5c565b9190505550600060066000838152602001908152602001600020905085816000019080519060200190610ac9929190611d66565b5084816001019080519060200190610ae2929190611d66565b5083816002018190555082816003019080519060200190610b04929190611d66565b50610b0f33836115e3565b817fc0136e698521b2b54232c22cf5019bdacfde56c9541d8e0466ff06069775ead88787604051610b41929190612a19565b60405180910390a2505050505050565b610b5a8261117c565b610b99576040517f08c379a0000000000000000000000000000000000000000000000000000000008152600401610b9090612b4a565b60405180910390fd5b6000600660008481526020019081526020016000209050818160020181905550827fe369164f6e36bbebc75e0c57a310efb7f1548a6d17cb673430a423966053faba83604051610be99190612cca565b60405180910390a2505050565b60008073ffffffffffffffffffffffffffffffffffffffff168273ffffffffffffffffffffffffffffffffffffffff161415610c67576040517f08c379a0000000000000000000000000000000000000000000000000000000008152600401610c5e90612bca565b60405180910390fd5b600360008373ffffffffffffffffffffffffffffffffffffffff1673ffffffffffffffffffffffffffffffffffffffff168152602001908152602001600020549050919050565b610cb78261117c565b610cf6576040517f08c379a0000000000000000000000000000000000000000000000000000000008152600401610ced90612b4a565b60405180910390fd5b600060066000848152602001908152602001600020905081816000019080519060200190610d25929190611d66565b50827f20b797ff93c2ad080dae49244cca0c87f114be76fbc61176d9907bd2cf66086283604051610d5691906129f7565b60405180910390a2505050565b606060018054610d7290612f2a565b80601f0160208091040260200160405190810160405280929190818152602001828054610d9e90612f2a565b8015610deb5780601f10610dc057610100808354040283529160200191610deb565b820191906000526020600020905b815481529060010190602001808311610dce57829003601f168201915b5050505050905090565b610e07610e006111e8565b8383611601565b5050565b610e148261117c565b610e53576040517f08c379a0000000000000000000000000000000000000000000000000000000008152600401610e4a90612b4a565b60405180910390fd5b600060066000848152602001908152602001600020905081816003019080519060200190610e82929190611d66565b50827f0d1654a6109e1c833ac2f0f3b5c1277ce26a54678eed03f82b1fad771b20b17183604051610eb391906129f7565b60405180910390a2505050565b610ed1610ecb6111e8565b836112a9565b610f10576040517f08c379a0000000000000000000000000000000000000000000000000000000008152600401610f0790612caa565b60405180910390fd5b610f1c8484848461176e565b50505050565b6060610f2d8261117c565b610f6c576040517f08c379a0000000000000000000000000000000000000000000000000000000008152600401610f6390612c6a565b60405180910390fd5b6000610f766117ca565b90506000815111610f965760405180602001604052806000815250610fc1565b80610fa0846117e1565b604051602001610fb1929190612951565b6040516020818303038152906040525b915050919050565b610fd28261117c565b611011576040517f08c379a000000000000000000000000000000000000000000000000000000000815260040161100890612b4a565b60405180910390fd5b600060066000848152602001908152602001600020905081816001019080519060200190611040929190611d66565b50827f9b1938358c27badbf167378124bb93e4b729ac8271b961db0a70f322eed2f4f58360405161107191906129f7565b60405180910390a2505050565b6000600560008473ffffffffffffffffffffffffffffffffffffffff1673ffffffffffffffffffffffffffffffffffffffff16815260200190815260200160002060008373ffffffffffffffffffffffffffffffffffffffff1673ffffffffffffffffffffffffffffffffffffffff16815260200190815260200160002060009054906101000a900460ff16905092915050565b60007f01ffc9a7000000000000000000000000000000000000000000000000000000007bffffffffffffffffffffffffffffffffffffffffffffffffffffffff1916827bffffffffffffffffffffffffffffffffffffffffffffffffffffffff1916149050919050565b60008073ffffffffffffffffffffffffffffffffffffffff166002600084815260200190815260200160002060009054906101000a900473ffffffffffffffffffffffffffffffffffffffff1673ffffffffffffffffffffffffffffffffffffffff1614159050919050565b600033905090565b816004600083815260200190815260200160002060006101000a81548173ffffffffffffffffffffffffffffffffffffffff021916908373ffffffffffffffffffffffffffffffffffffffff160217905550808273ffffffffffffffffffffffffffffffffffffffff1661126383610941565b73ffffffffffffffffffffffffffffffffffffffff167f8c5be1e5ebec7d5bd14f71427d1e84f3dd0314c0f7b2291e5b200ac8c7c3b92560405160405180910390a45050565b60006112b48261117c565b6112f3576040517f08c379a00000000000000000000000000000000000000000000000000000000081526004016112ea90612b6a565b60405180910390fd5b60006112fe83610941565b90508073ffffffffffffffffffffffffffffffffffffffff168473ffffffffffffffffffffffffffffffffffffffff16148061136d57508373ffffffffffffffffffffffffffffffffffffffff1661135584610541565b73ffffffffffffffffffffffffffffffffffffffff16145b8061137e575061137d818561107e565b5b91505092915050565b8273ffffffffffffffffffffffffffffffffffffffff166113a782610941565b73ffffffffffffffffffffffffffffffffffffffff16146113fd576040517f08c379a00000000000000000000000000000000000000000000000000000000081526004016113f490612c4a565b60405180910390fd5b600073ffffffffffffffffffffffffffffffffffffffff168273ffffffffffffffffffffffffffffffffffffffff16141561146d576040517f08c379a000000000000000000000000000000000000000000000000000000000815260040161146490612b0a565b60405180910390fd5b61147883838361198e565b6114836000826111f0565b6001600360008573ffffffffffffffffffffffffffffffffffffffff1673ffffffffffffffffffffffffffffffffffffffff16815260200190815260200160002060008282546114d39190612e40565b925050819055506001600360008473ffffffffffffffffffffffffffffffffffffffff1673ffffffffffffffffffffffffffffffffffffffff168152602001908152602001600020600082825461152a9190612db9565b92505081905550816002600083815260200190815260200160002060006101000a81548173ffffffffffffffffffffffffffffffffffffffff021916908373ffffffffffffffffffffffffffffffffffffffff160217905550808273ffffffffffffffffffffffffffffffffffffffff168473ffffffffffffffffffffffffffffffffffffffff167fddf252ad1be2c89b69c2b068fc378daa952ba7f163c4a11628f55a4df523b3ef60405160405180910390a4505050565b6115fd828260405180602001604052806000815250611993565b5050565b8173ffffffffffffffffffffffffffffffffffffffff168373ffffffffffffffffffffffffffffffffffffffff161415611670576040517f08c379a000000000000000000000000000000000000000000000000000000000815260040161166790612b2a565b60405180910390fd5b80600560008573ffffffffffffffffffffffffffffffffffffffff1673ffffffffffffffffffffffffffffffffffffffff16815260200190815260200160002060008473ffffffffffffffffffffffffffffffffffffffff1673ffffffffffffffffffffffffffffffffffffffff16815260200190815260200160002060006101000a81548160ff0219169083151502179055508173ffffffffffffffffffffffffffffffffffffffff168373ffffffffffffffffffffffffffffffffffffffff167f17307eab39ab6107e8899845ad3d59bd9653f200f220920489ca2b5937696c318360405161176191906129dc565b60405180910390a3505050565b611779848484611387565b611785848484846119ee565b6117c4576040517f08c379a00000000000000000000000000000000000000000000000000000000081526004016117bb90612aca565b60405180910390fd5b50505050565b606060405180602001604052806000815250905090565b60606000821415611829576040518060400160405280600181526020017f30000000000000000000000000000000000000000000000000000000000000008152509050611989565b600082905060005b6000821461185b57808061184490612f5c565b915050600a826118549190612e0f565b9150611831565b60008167ffffffffffffffff81111561189d577f4e487b7100000000000000000000000000000000000000000000000000000000600052604160045260246000fd5b6040519080825280601f01601f1916602001820160405280156118cf5781602001600182028036833780820191505090505b5090505b60008514611982576001826118e89190612e40565b9150600a856118f79190612fa5565b60306119039190612db9565b60f81b81838151811061193f577f4e487b7100000000000000000000000000000000000000000000000000000000600052603260045260246000fd5b60200101907effffffffffffffffffffffffffffffffffffffffffffffffffffffffffffff1916908160001a905350600a8561197b9190612e0f565b94506118d3565b8093505050505b919050565b505050565b61199d8383611b85565b6119aa60008484846119ee565b6119e9576040517f08c379a00000000000000000000000000000000000000000000000000000000081526004016119e090612aca565b60405180910390fd5b505050565b6000611a0f8473ffffffffffffffffffffffffffffffffffffffff16611d53565b15611b78578373ffffffffffffffffffffffffffffffffffffffff1663150b7a02611a386111e8565b8786866040518563ffffffff1660e01b8152600401611a5a9493929190612990565b602060405180830381600087803b158015611a7457600080fd5b505af1925050508015611aa557506040513d601f19601f82011682018060405250810190611aa29190612112565b60015b611b28573d8060008114611ad5576040519150601f19603f3d011682016040523d82523d6000602084013e611ada565b606091505b50600081511415611b20576040517f08c379a0000000000000000000000000000000000000000000000000000000008152600401611b1790612aca565b60405180910390fd5b805181602001fd5b63150b7a0260e01b7bffffffffffffffffffffffffffffffffffffffffffffffffffffffff1916817bffffffffffffffffffffffffffffffffffffffffffffffffffffffff191614915050611b7d565b600190505b949350505050565b600073ffffffffffffffffffffffffffffffffffffffff168273ffffffffffffffffffffffffffffffffffffffff161415611bf5576040517f08c379a0000000000000000000000000000000000000000000000000000000008152600401611bec90612c0a565b60405180910390fd5b611bfe8161117c565b15611c3e576040517f08c379a0000000000000000000000000000000000000000000000000000000008152600401611c3590612aea565b60405180910390fd5b611c4a6000838361198e565b6001600360008473ffffffffffffffffffffffffffffffffffffffff1673ffffffffffffffffffffffffffffffffffffffff1681526020019081526020016000206000828254611c9a9190612db9565b92505081905550816002600083815260200190815260200160002060006101000a81548173ffffffffffffffffffffffffffffffffffffffff021916908373ffffffffffffffffffffffffffffffffffffffff160217905550808273ffffffffffffffffffffffffffffffffffffffff16600073ffffffffffffffffffffffffffffffffffffffff167fddf252ad1be2c89b69c2b068fc378daa952ba7f163c4a11628f55a4df523b3ef60405160405180910390a45050565b600080823b905060008111915050919050565b828054611d7290612f2a565b90600052602060002090601f016020900481019282611d945760008555611ddb565b82601f10611dad57805160ff1916838001178555611ddb565b82800160010185558215611ddb579182015b82811115611dda578251825591602001919060010190611dbf565b5b509050611de89190611dec565b5090565b5b80821115611e05576000816000905550600101611ded565b5090565b6000611e1c611e1784612d16565b612ce5565b905082815260208101848484011115611e3457600080fd5b611e3f848285612ee8565b509392505050565b6000611e5a611e5584612d46565b612ce5565b905082815260208101848484011115611e7257600080fd5b611e7d848285612ee8565b509392505050565b600081359050611e94816130a3565b92915050565b600081359050611ea9816130ba565b92915050565b600081359050611ebe816130d1565b92915050565b600081519050611ed3816130d1565b92915050565b600082601f830112611eea57600080fd5b8135611efa848260208601611e09565b91505092915050565b600082601f830112611f1457600080fd5b8135611f24848260208601611e47565b91505092915050565b600081359050611f3c816130e8565b92915050565b600060208284031215611f5457600080fd5b6000611f6284828501611e85565b91505092915050565b60008060408385031215611f7e57600080fd5b6000611f8c85828601611e85565b9250506020611f9d85828601611e85565b9150509250929050565b600080600060608486031215611fbc57600080fd5b6000611fca86828701611e85565b9350506020611fdb86828701611e85565b9250506040611fec86828701611f2d565b9150509250925092565b6000806000806080858703121561200c57600080fd5b600061201a87828801611e85565b945050602061202b87828801611e85565b935050604061203c87828801611f2d565b925050606085013567ffffffffffffffff81111561205957600080fd5b61206587828801611ed9565b91505092959194509250565b6000806040838503121561208457600080fd5b600061209285828601611e85565b92505060206120a385828601611e9a565b9150509250929050565b600080604083850312156120c057600080fd5b60006120ce85828601611e85565b92505060206120df85828601611f2d565b9150509250929050565b6000602082840312156120fb57600080fd5b600061210984828501611eaf565b91505092915050565b60006020828403121561212457600080fd5b600061213284828501611ec4565b91505092915050565b6000806000806080858703121561215157600080fd5b600085013567ffffffffffffffff81111561216b57600080fd5b61217787828801611f03565b945050602085013567ffffffffffffffff81111561219457600080fd5b6121a087828801611f03565b93505060406121b187828801611f2d565b925050606085013567ffffffffffffffff8111156121ce57600080fd5b6121da87828801611f03565b91505092959194509250565b6000602082840312156121f857600080fd5b600061220684828501611f2d565b91505092915050565b6000806040838503121561222257600080fd5b600061223085828601611f2d565b925050602083013567ffffffffffffffff81111561224d57600080fd5b61225985828601611f03565b9150509250929050565b6000806040838503121561227657600080fd5b600061228485828601611f2d565b925050602061229585828601611f2d565b9150509250929050565b6122a881612e74565b82525050565b6122b781612e86565b82525050565b60006122c882612d76565b6122d28185612d8c565b93506122e2818560208601612ef7565b6122eb81613092565b840191505092915050565b600061230182612d81565b61230b8185612d9d565b935061231b818560208601612ef7565b61232481613092565b840191505092915050565b600061233a82612d81565b6123448185612dae565b9350612354818560208601612ef7565b80840191505092915050565b600061236d601883612d9d565b91507f557365726e616d652063616e6e6f7420626520656d70747900000000000000006000830152602082019050919050565b60006123ad603283612d9d565b91507f4552433732313a207472616e7366657220746f206e6f6e20455243373231526560008301527f63656976657220696d706c656d656e74657200000000000000000000000000006020830152604082019050919050565b6000612413601c83612d9d565b91507f4552433732313a20746f6b656e20616c7265616479206d696e746564000000006000830152602082019050919050565b6000612453602483612d9d565b91507f4552433732313a207472616e7366657220746f20746865207a65726f2061646460008301527f72657373000000000000000000000000000000000000000000000000000000006020830152604082019050919050565b60006124b9601983612d9d565b91507f4552433732313a20617070726f766520746f2063616c6c6572000000000000006000830152602082019050919050565b60006124f9601783612d9d565b91507f546f6b656e20494420646f6573206e6f742065786973740000000000000000006000830152602082019050919050565b6000612539602c83612d9d565b91507f4552433732313a206f70657261746f7220717565727920666f72206e6f6e657860008301527f697374656e7420746f6b656e00000000000000000000000000000000000000006020830152604082019050919050565b600061259f601e83612d9d565b91507f41646d696e20557365726e616d652063616e6e6f7420626520656d70747900006000830152602082019050919050565b60006125df603883612d9d565b91507f4552433732313a20617070726f76652063616c6c6572206973206e6f74206f7760008301527f6e6572206e6f7220617070726f76656420666f7220616c6c00000000000000006020830152604082019050919050565b6000612645602a83612d9d565b91507f4552433732313a2062616c616e636520717565727920666f7220746865207a6560008301527f726f2061646472657373000000000000000000000000000000000000000000006020830152604082019050919050565b60006126ab602983612d9d565b91507f4552433732313a206f776e657220717565727920666f72206e6f6e657869737460008301527f656e7420746f6b656e00000000000000000000000000000000000000000000006020830152604082019050919050565b6000612711602083612d9d565b91507f4552433732313a206d696e7420746f20746865207a65726f20616464726573736000830152602082019050919050565b6000612751602c83612d9d565b91507f4552433732313a20617070726f76656420717565727920666f72206e6f6e657860008301527f697374656e7420746f6b656e00000000000000000000000000000000000000006020830152604082019050919050565b60006127b7602983612d9d565b91507f4552433732313a207472616e73666572206f6620746f6b656e2074686174206960008301527f73206e6f74206f776e00000000000000000000000000000000000000000000006020830152604082019050919050565b600061281d602f83612d9d565b91507f4552433732314d657461646174613a2055524920717565727920666f72206e6f60008301527f6e6578697374656e7420746f6b656e00000000000000000000000000000000006020830152604082019050919050565b6000612883602183612d9d565b91507f4552433732313a20617070726f76616c20746f2063757272656e74206f776e6560008301527f72000000000000000000000000000000000000000000000000000000000000006020830152604082019050919050565b60006128e9603183612d9d565b91507f4552433732313a207472616e736665722063616c6c6572206973206e6f74206f60008301527f776e6572206e6f7220617070726f7665640000000000000000000000000000006020830152604082019050919050565b61294b81612ede565b82525050565b600061295d828561232f565b9150612969828461232f565b91508190509392505050565b600060208201905061298a600083018461229f565b92915050565b60006080820190506129a5600083018761229f565b6129b2602083018661229f565b6129bf6040830185612942565b81810360608301526129d181846122bd565b905095945050505050565b60006020820190506129f160008301846122ae565b92915050565b60006020820190508181036000830152612a1181846122f6565b905092915050565b60006040820190508181036000830152612a3381856122f6565b90508181036020830152612a4781846122f6565b90509392505050565b60006080820190508181036000830152612a6a81876122f6565b90508181036020830152612a7e81866122f6565b9050612a8d6040830185612942565b8181036060830152612a9f81846122f6565b905095945050505050565b60006020820190508181036000830152612ac381612360565b9050919050565b60006020820190508181036000830152612ae3816123a0565b9050919050565b60006020820190508181036000830152612b0381612406565b9050919050565b60006020820190508181036000830152612b2381612446565b9050919050565b60006020820190508181036000830152612b43816124ac565b9050919050565b60006020820190508181036000830152612b63816124ec565b9050919050565b60006020820190508181036000830152612b838161252c565b9050919050565b60006020820190508181036000830152612ba381612592565b9050919050565b60006020820190508181036000830152612bc3816125d2565b9050919050565b60006020820190508181036000830152612be381612638565b9050919050565b60006020820190508181036000830152612c038161269e565b9050919050565b60006020820190508181036000830152612c2381612704565b9050919050565b60006020820190508181036000830152612c4381612744565b9050919050565b60006020820190508181036000830152612c63816127aa565b9050919050565b60006020820190508181036000830152612c8381612810565b9050919050565b60006020820190508181036000830152612ca381612876565b9050919050565b60006020820190508181036000830152612cc3816128dc565b9050919050565b6000602082019050612cdf6000830184612942565b92915050565b6000604051905081810181811067ffffffffffffffff82111715612d0c57612d0b613063565b5b8060405250919050565b600067ffffffffffffffff821115612d3157612d30613063565b5b601f19601f8301169050602081019050919050565b600067ffffffffffffffff821115612d6157612d60613063565b5b601f19601f8301169050602081019050919050565b600081519050919050565b600081519050919050565b600082825260208201905092915050565b600082825260208201905092915050565b600081905092915050565b6000612dc482612ede565b9150612dcf83612ede565b9250827fffffffffffffffffffffffffffffffffffffffffffffffffffffffffffffffff03821115612e0457612e03612fd6565b5b828201905092915050565b6000612e1a82612ede565b9150612e2583612ede565b925082612e3557612e34613005565b5b828204905092915050565b6000612e4b82612ede565b9150612e5683612ede565b925082821015612e6957612e68612fd6565b5b828203905092915050565b6000612e7f82612ebe565b9050919050565b60008115159050919050565b60007fffffffff0000000000000000000000000000000000000000000000000000000082169050919050565b600073ffffffffffffffffffffffffffffffffffffffff82169050919050565b6000819050919050565b82818337600083830152505050565b60005b83811015612f15578082015181840152602081019050612efa565b83811115612f24576000848401525b50505050565b60006002820490506001821680612f4257607f821691505b60208210811415612f5657612f55613034565b5b50919050565b6000612f6782612ede565b91507fffffffffffffffffffffffffffffffffffffffffffffffffffffffffffffffff821415612f9a57612f99612fd6565b5b600182019050919050565b6000612fb082612ede565b9150612fbb83612ede565b925082612fcb57612fca613005565b5b828206905092915050565b7f4e487b7100000000000000000000000000000000000000000000000000000000600052601160045260246000fd5b7f4e487b7100000000000000000000000000000000000000000000000000000000600052601260045260246000fd5b7f4e487b7100000000000000000000000000000000000000000000000000000000600052602260045260246000fd5b7f4e487b7100000000000000000000000000000000000000000000000000000000600052604160045260246000fd5b6000601f19601f8301169050919050565b6130ac81612e74565b81146130b757600080fd5b50565b6130c381612e86565b81146130ce57600080fd5b50565b6130da81612e92565b81146130e557600080fd5b50565b6130f181612ede565b81146130fc57600080fd5b5056fea2646970667358221220b204bb779adb633d05ddea663330236e924fb8d488ff420c256d0407d4f21f3864736f6c63430008000033",
  "immutableReferences": {},
  "source": "// SPDX-License-Identifier: MIT\r\npragma solidity ^0.8.0;\r\n\r\nimport \"@openzeppelin/contracts/token/ERC721/ERC721.sol\";\r\n\r\ncontract UserDataContract is ERC721 {\r\n    struct UserData {\r\n        string adminUsername;\r\n        string username;\r\n        uint256 totalDays;\r\n        string dailyPlan;\r\n    }\r\n\r\n    mapping(uint256 => UserData) private userDataMap;\r\n    uint256 private tokenIdCounter;\r\n\r\n    constructor() ERC721(\"UserDataToken\", \"UDT\") {}\r\n\r\n    event UserRegistered(uint256 indexed tokenId, string adminUsername, string username);\r\n    event DailyPlanUpdated(uint256 indexed tokenId, string newDailyPlan);\r\n    event AdminUsernameUpdated(uint256 indexed tokenId, string newAdminUsername);\r\n    event UsernameUpdated(uint256 indexed tokenId, string newUsername);\r\n    event TotalDaysUpdated(uint256 indexed tokenId, uint256 newTotalDays);\r\n\r\n    function registerUser(\r\n        string memory _adminUsername,\r\n        string memory _username,\r\n        uint256 _totalDays,\r\n        string memory _dailyPlan\r\n    ) external {\r\n        require(bytes(_adminUsername).length > 0, \"Admin Username cannot be empty\");\r\n        require(bytes(_username).length > 0, \"Username cannot be empty\");\r\n\r\n        uint256 newTokenId = tokenIdCounter;\r\n        tokenIdCounter++;\r\n\r\n        UserData storage userData = userDataMap[newTokenId];\r\n\r\n        userData.adminUsername = _adminUsername;\r\n        userData.username = _username;\r\n        userData.totalDays = _totalDays;\r\n        userData.dailyPlan = _dailyPlan;\r\n\r\n        _safeMint(msg.sender, newTokenId);\r\n\r\n        emit UserRegistered(newTokenId, _adminUsername, _username);\r\n    }\r\n\r\n    function updateDailyPlan(uint256 _tokenId, string memory _dailyPlan) external {\r\n        require(_exists(_tokenId), \"Token ID does not exist\");\r\n        UserData storage userData = userDataMap[_tokenId];\r\n        userData.dailyPlan = _dailyPlan;\r\n        emit DailyPlanUpdated(_tokenId, _dailyPlan);\r\n    }\r\n\r\n    function updateAdminUsername(uint256 _tokenId, string memory _adminUsername) external {\r\n        require(_exists(_tokenId), \"Token ID does not exist\");\r\n        UserData storage userData = userDataMap[_tokenId];\r\n        userData.adminUsername = _adminUsername;\r\n        emit AdminUsernameUpdated(_tokenId, _adminUsername);\r\n    }\r\n\r\n    function updateUsername(uint256 _tokenId, string memory _username) external {\r\n        require(_exists(_tokenId), \"Token ID does not exist\");\r\n        UserData storage userData = userDataMap[_tokenId];\r\n        userData.username = _username;\r\n        emit UsernameUpdated(_tokenId, _username);\r\n    }\r\n\r\n    function updateTotalDays(uint256 _tokenId, uint256 _totalDays) external {\r\n        require(_exists(_tokenId), \"Token ID does not exist\");\r\n        UserData storage userData = userDataMap[_tokenId];\r\n        userData.totalDays = _totalDays;\r\n        emit TotalDaysUpdated(_tokenId, _totalDays);\r\n    }\r\n\r\n    function getUserData(uint256 _tokenId)\r\n        external\r\n        view\r\n        returns (\r\n            string memory adminUsername,\r\n            string memory username,\r\n            uint256 totalDays,\r\n            string memory dailyPlan\r\n        )\r\n    {\r\n        UserData storage userData = userDataMap[_tokenId];\r\n        return (\r\n            userData.adminUsername,\r\n            userData.username,\r\n            userData.totalDays,\r\n            userData.dailyPlan\r\n        );\r\n    }\r\n}\r\n",
  "sourcePath": "C:\\Users\\Yash kanjariya\\Desktop\\Projects\\AOH_BoiledRice\\web3\\contracts\\userdata.sol",
  "compiler": {
    "name": "solc",
    "version": "0.8.0+commit.c7dfd78e.Emscripten.clang"
  },
  "schemaVersion": "3.4.16",
  "updatedAt": "2024-03-30T11:30:00.228Z",
  "networkType": "ethereum",
  "devdoc": {
    "kind": "dev",
    "methods": {
      "approve(address,uint256)": {
        "details": "See {IERC721-approve}."
      },
      "balanceOf(address)": {
        "details": "See {IERC721-balanceOf}."
      },
      "getApproved(uint256)": {
        "details": "See {IERC721-getApproved}."
      },
      "isApprovedForAll(address,address)": {
        "details": "See {IERC721-isApprovedForAll}."
      },
      "name()": {
        "details": "See {IERC721Metadata-name}."
      },
      "ownerOf(uint256)": {
        "details": "See {IERC721-ownerOf}."
      },
      "safeTransferFrom(address,address,uint256)": {
        "details": "See {IERC721-safeTransferFrom}."
      },
      "safeTransferFrom(address,address,uint256,bytes)": {
        "details": "See {IERC721-safeTransferFrom}."
      },
      "setApprovalForAll(address,bool)": {
        "details": "See {IERC721-setApprovalForAll}."
      },
      "supportsInterface(bytes4)": {
        "details": "See {IERC165-supportsInterface}."
      },
      "symbol()": {
        "details": "See {IERC721Metadata-symbol}."
      },
      "tokenURI(uint256)": {
        "details": "See {IERC721Metadata-tokenURI}."
      },
      "transferFrom(address,address,uint256)": {
        "details": "See {IERC721-transferFrom}."
      }
    },
    "version": 1
  },
  "userdoc": {
    "kind": "user",
    "methods": {},
    "version": 1
  }
}