{
  "contractName": "UserDataContract",
  "abi": [
    {
      "inputs": [],
      "stateMutability": "nonpayable",
      "type": "constructor"
    },
    {
      "anonymous": false,
      "inputs": [
        {
          "indexed": true,
          "internalType": "uint256",
          "name": "tokenId",
          "type": "uint256"
        },
        {
          "indexed": false,
          "internalType": "string",
          "name": "newAdminUsername",
          "type": "string"
        }
      ],
      "name": "AdminUsernameUpdated",
      "type": "event"
    },
    {
      "anonymous": false,
      "inputs": [
        {
          "indexed": true,
          "internalType": "address",
          "name": "owner",
          "type": "address"
        },
        {
          "indexed": true,
          "internalType": "address",
          "name": "approved",
          "type": "address"
        },
        {
          "indexed": true,
          "internalType": "uint256",
          "name": "tokenId",
          "type": "uint256"
        }
      ],
      "name": "Approval",
      "type": "event"
    },
    {
      "anonymous": false,
      "inputs": [
        {
          "indexed": true,
          "internalType": "address",
          "name": "owner",
          "type": "address"
        },
        {
          "indexed": true,
          "internalType": "address",
          "name": "operator",
          "type": "address"
        },
        {
          "indexed": false,
          "internalType": "bool",
          "name": "approved",
          "type": "bool"
        }
      ],
      "name": "ApprovalForAll",
      "type": "event"
    },
    {
      "anonymous": false,
      "inputs": [
        {
          "indexed": true,
          "internalType": "uint256",
          "name": "tokenId",
          "type": "uint256"
        },
        {
          "indexed": false,
          "internalType": "string",
          "name": "newDailyPlan",
          "type": "string"
        }
      ],
      "name": "DailyPlanUpdated",
      "type": "event"
    },
    {
      "anonymous": false,
      "inputs": [
        {
          "indexed": true,
          "internalType": "uint256",
          "name": "tokenId",
          "type": "uint256"
        },
        {
          "indexed": false,
          "internalType": "uint256[]",
          "name": "newDates",
          "type": "uint256[]"
        }
      ],
      "name": "DatesUpdated",
      "type": "event"
    },
    {
      "anonymous": false,
      "inputs": [
        {
          "indexed": true,
          "internalType": "uint256",
          "name": "tokenId",
          "type": "uint256"
        },
        {
          "indexed": false,
          "internalType": "uint256",
          "name": "newTotalDays",
          "type": "uint256"
        }
      ],
      "name": "TotalDaysUpdated",
      "type": "event"
    },
    {
      "anonymous": false,
      "inputs": [
        {
          "indexed": true,
          "internalType": "address",
          "name": "from",
          "type": "address"
        },
        {
          "indexed": true,
          "internalType": "address",
          "name": "to",
          "type": "address"
        },
        {
          "indexed": true,
          "internalType": "uint256",
          "name": "tokenId",
          "type": "uint256"
        }
      ],
      "name": "Transfer",
      "type": "event"
    },
    {
      "anonymous": false,
      "inputs": [
        {
          "indexed": true,
          "internalType": "uint256",
          "name": "tokenId",
          "type": "uint256"
        },
        {
          "indexed": false,
          "internalType": "string",
          "name": "adminUsername",
          "type": "string"
        },
        {
          "indexed": false,
          "internalType": "string",
          "name": "username",
          "type": "string"
        }
      ],
      "name": "UserRegistered",
      "type": "event"
    },
    {
      "anonymous": false,
      "inputs": [
        {
          "indexed": true,
          "internalType": "uint256",
          "name": "tokenId",
          "type": "uint256"
        },
        {
          "indexed": false,
          "internalType": "string",
          "name": "newUsername",
          "type": "string"
        }
      ],
      "name": "UsernameUpdated",
      "type": "event"
    },
    {
      "inputs": [
        {
          "internalType": "address",
          "name": "to",
          "type": "address"
        },
        {
          "internalType": "uint256",
          "name": "tokenId",
          "type": "uint256"
        }
      ],
      "name": "approve",
      "outputs": [],
      "stateMutability": "nonpayable",
      "type": "function"
    },
    {
      "inputs": [
        {
          "internalType": "address",
          "name": "owner",
          "type": "address"
        }
      ],
      "name": "balanceOf",
      "outputs": [
        {
          "internalType": "uint256",
          "name": "",
          "type": "uint256"
        }
      ],
      "stateMutability": "view",
      "type": "function",
      "constant": true
    },
    {
      "inputs": [
        {
          "internalType": "uint256",
          "name": "tokenId",
          "type": "uint256"
        }
      ],
      "name": "getApproved",
      "outputs": [
        {
          "internalType": "address",
          "name": "",
          "type": "address"
        }
      ],
      "stateMutability": "view",
      "type": "function",
      "constant": true
    },
    {
      "inputs": [
        {
          "internalType": "address",
          "name": "owner",
          "type": "address"
        },
        {
          "internalType": "address",
          "name": "operator",
          "type": "address"
        }
      ],
      "name": "isApprovedForAll",
      "outputs": [
        {
          "internalType": "bool",
          "name": "",
          "type": "bool"
        }
      ],
      "stateMutability": "view",
      "type": "function",
      "constant": true
    },
    {
      "inputs": [],
      "name": "name",
      "outputs": [
        {
          "internalType": "string",
          "name": "",
          "type": "string"
        }
      ],
      "stateMutability": "view",
      "type": "function",
      "constant": true
    },
    {
      "inputs": [
        {
          "internalType": "uint256",
          "name": "tokenId",
          "type": "uint256"
        }
      ],
      "name": "ownerOf",
      "outputs": [
        {
          "internalType": "address",
          "name": "",
          "type": "address"
        }
      ],
      "stateMutability": "view",
      "type": "function",
      "constant": true
    },
    {
      "inputs": [
        {
          "internalType": "address",
          "name": "from",
          "type": "address"
        },
        {
          "internalType": "address",
          "name": "to",
          "type": "address"
        },
        {
          "internalType": "uint256",
          "name": "tokenId",
          "type": "uint256"
        }
      ],
      "name": "safeTransferFrom",
      "outputs": [],
      "stateMutability": "nonpayable",
      "type": "function"
    },
    {
      "inputs": [
        {
          "internalType": "address",
          "name": "from",
          "type": "address"
        },
        {
          "internalType": "address",
          "name": "to",
          "type": "address"
        },
        {
          "internalType": "uint256",
          "name": "tokenId",
          "type": "uint256"
        },
        {
          "internalType": "bytes",
          "name": "_data",
          "type": "bytes"
        }
      ],
      "name": "safeTransferFrom",
      "outputs": [],
      "stateMutability": "nonpayable",
      "type": "function"
    },
    {
      "inputs": [
        {
          "internalType": "address",
          "name": "operator",
          "type": "address"
        },
        {
          "internalType": "bool",
          "name": "approved",
          "type": "bool"
        }
      ],
      "name": "setApprovalForAll",
      "outputs": [],
      "stateMutability": "nonpayable",
      "type": "function"
    },
    {
      "inputs": [
        {
          "internalType": "bytes4",
          "name": "interfaceId",
          "type": "bytes4"
        }
      ],
      "name": "supportsInterface",
      "outputs": [
        {
          "internalType": "bool",
          "name": "",
          "type": "bool"
        }
      ],
      "stateMutability": "view",
      "type": "function",
      "constant": true
    },
    {
      "inputs": [],
      "name": "symbol",
      "outputs": [
        {
          "internalType": "string",
          "name": "",
          "type": "string"
        }
      ],
      "stateMutability": "view",
      "type": "function",
      "constant": true
    },
    {
      "inputs": [
        {
          "internalType": "uint256",
          "name": "tokenId",
          "type": "uint256"
        }
      ],
      "name": "tokenURI",
      "outputs": [
        {
          "internalType": "string",
          "name": "",
          "type": "string"
        }
      ],
      "stateMutability": "view",
      "type": "function",
      "constant": true
    },
    {
      "inputs": [
        {
          "internalType": "address",
          "name": "from",
          "type": "address"
        },
        {
          "internalType": "address",
          "name": "to",
          "type": "address"
        },
        {
          "internalType": "uint256",
          "name": "tokenId",
          "type": "uint256"
        }
      ],
      "name": "transferFrom",
      "outputs": [],
      "stateMutability": "nonpayable",
      "type": "function"
    },
    {
      "inputs": [
        {
          "internalType": "string",
          "name": "_adminUsername",
          "type": "string"
        },
        {
          "internalType": "string",
          "name": "_username",
          "type": "string"
        },
        {
          "internalType": "uint256",
          "name": "_totalDays",
          "type": "uint256"
        },
        {
          "internalType": "string",
          "name": "_dailyPlan",
          "type": "string"
        },
        {
          "internalType": "uint256[]",
          "name": "_dates",
          "type": "uint256[]"
        }
      ],
      "name": "registerUser",
      "outputs": [],
      "stateMutability": "nonpayable",
      "type": "function"
    },
    {
      "inputs": [
        {
          "internalType": "uint256",
          "name": "_tokenId",
          "type": "uint256"
        },
        {
          "internalType": "string",
          "name": "_dailyPlan",
          "type": "string"
        }
      ],
      "name": "updateDailyPlan",
      "outputs": [],
      "stateMutability": "nonpayable",
      "type": "function"
    },
    {
      "inputs": [
        {
          "internalType": "uint256",
          "name": "_tokenId",
          "type": "uint256"
        },
        {
          "internalType": "string",
          "name": "_adminUsername",
          "type": "string"
        }
      ],
      "name": "updateAdminUsername",
      "outputs": [],
      "stateMutability": "nonpayable",
      "type": "function"
    },
    {
      "inputs": [
        {
          "internalType": "uint256",
          "name": "_tokenId",
          "type": "uint256"
        },
        {
          "internalType": "string",
          "name": "_username",
          "type": "string"
        }
      ],
      "name": "updateUsername",
      "outputs": [],
      "stateMutability": "nonpayable",
      "type": "function"
    },
    {
      "inputs": [
        {
          "internalType": "uint256",
          "name": "_tokenId",
          "type": "uint256"
        },
        {
          "internalType": "uint256",
          "name": "_totalDays",
          "type": "uint256"
        }
      ],
      "name": "updateTotalDays",
      "outputs": [],
      "stateMutability": "nonpayable",
      "type": "function"
    },
    {
      "inputs": [
        {
          "internalType": "uint256",
          "name": "_tokenId",
          "type": "uint256"
        },
        {
          "internalType": "uint256[]",
          "name": "_dates",
          "type": "uint256[]"
        }
      ],
      "name": "updateDates",
      "outputs": [],
      "stateMutability": "nonpayable",
      "type": "function"
    },
    {
      "inputs": [
        {
          "internalType": "uint256",
          "name": "_tokenId",
          "type": "uint256"
        }
      ],
      "name": "getUserData",
      "outputs": [
        {
          "internalType": "string",
          "name": "adminUsername",
          "type": "string"
        },
        {
          "internalType": "string",
          "name": "username",
          "type": "string"
        },
        {
          "internalType": "uint256",
          "name": "totalDays",
          "type": "uint256"
        },
        {
          "internalType": "string",
          "name": "dailyPlan",
          "type": "string"
        },
        {
          "internalType": "uint256[]",
          "name": "dates",
          "type": "uint256[]"
        }
      ],
      "stateMutability": "view",
      "type": "function",
      "constant": true
    }
  ],
  "bytecode": "0x60806040523480156200001157600080fd5b506040518060400160405280600d81526020017f5573657244617461546f6b656e000000000000000000000000000000000000008152506040518060400160405280600381526020017f5544540000000000000000000000000000000000000000000000000000000000815250816000908051906020019062000096929190620000b8565b508060019080519060200190620000af929190620000b8565b505050620001cd565b828054620000c69062000168565b90600052602060002090601f016020900481019282620000ea576000855562000136565b82601f106200010557805160ff191683800117855562000136565b8280016001018555821562000136579182015b828111156200013557825182559160200191906001019062000118565b5b50905062000145919062000149565b5090565b5b80821115620001645760008160009055506001016200014a565b5090565b600060028204905060018216806200018157607f821691505b602082108114156200019857620001976200019e565b5b50919050565b7f4e487b7100000000000000000000000000000000000000000000000000000000600052602260045260246000fd5b61350b80620001dd6000396000f3fe608060405234801561001057600080fd5b506004361061012c5760003560e01c80637fea358d116100ad578063b85a647511610071578063b85a647514610341578063b88d4fde1461035d578063c87b56dd14610379578063d28b9342146103a9578063e985e9c5146103c55761012c565b80637fea358d146102b357806386394d6a146102cf578063881546af146102eb57806395d89b4114610307578063a22cb465146103255761012c565b806323b872dd116100f457806323b872dd146101ff57806342842e0e1461021b5780636352211e146102375780636d9c72d91461026757806370a08231146102835761012c565b806301ffc9a71461013157806306fdde0314610161578063081812fc1461017f578063095ea7b3146101af5780631fef580c146101cb575b600080fd5b61014b6004803603810190610146919061231e565b6103f5565b6040516101589190612d38565b60405180910390f35b6101696104d7565b6040516101769190612d53565b60405180910390f35b61019960048036038101906101949190612447565b610569565b6040516101a69190612caf565b60405180910390f35b6101c960048036038101906101c491906122e2565b6105ee565b005b6101e560048036038101906101e09190612447565b610706565b6040516101f6959493929190612dac565b60405180910390f35b610219600480360381019061021491906121dc565b610944565b005b610235600480360381019061023091906121dc565b6109a4565b005b610251600480360381019061024c9190612447565b6109c4565b60405161025e9190612caf565b60405180910390f35b610281600480360381019061027c9190612518565b610a76565b005b61029d60048036038101906102989190612177565b610b1b565b6040516102aa919061303b565b60405180910390f35b6102cd60048036038101906102c89190612470565b610bd3565b005b6102e960048036038101906102e49190612370565b610c88565b005b610305600480360381019061030091906124c4565b610e00565b005b61030f610eb5565b60405161031c9190612d53565b60405180910390f35b61033f600480360381019061033a91906122a6565b610f47565b005b61035b600480360381019061035691906124c4565b610f5d565b005b6103776004803603810190610372919061222b565b611012565b005b610393600480360381019061038e9190612447565b611074565b6040516103a09190612d53565b60405180910390f35b6103c360048036038101906103be91906124c4565b61111b565b005b6103df60048036038101906103da91906121a0565b6111d0565b6040516103ec9190612d38565b60405180910390f35b60007f80ac58cd000000000000000000000000000000000000000000000000000000007bffffffffffffffffffffffffffffffffffffffffffffffffffffffff1916827bffffffffffffffffffffffffffffffffffffffffffffffffffffffff191614806104c057507f5b5e139f000000000000000000000000000000000000000000000000000000007bffffffffffffffffffffffffffffffffffffffffffffffffffffffff1916827bffffffffffffffffffffffffffffffffffffffffffffffffffffffff1916145b806104d057506104cf82611264565b5b9050919050565b6060600080546104e690613300565b80601f016020809104026020016040519081016040528092919081815260200182805461051290613300565b801561055f5780601f106105345761010080835404028352916020019161055f565b820191906000526020600020905b81548152906001019060200180831161054257829003601f168201915b5050505050905090565b6000610574826112ce565b6105b3576040517f08c379a00000000000000000000000000000000000000000000000000000000081526004016105aa90612f9b565b60405180910390fd5b6004600083815260200190815260200160002060009054906101000a900473ffffffffffffffffffffffffffffffffffffffff169050919050565b60006105f9826109c4565b90508073ffffffffffffffffffffffffffffffffffffffff168373ffffffffffffffffffffffffffffffffffffffff16141561066a576040517f08c379a000000000000000000000000000000000000000000000000000000000815260040161066190612ffb565b60405180910390fd5b8073ffffffffffffffffffffffffffffffffffffffff1661068961133a565b73ffffffffffffffffffffffffffffffffffffffff1614806106b857506106b7816106b261133a565b6111d0565b5b6106f7576040517f08c379a00000000000000000000000000000000000000000000000000000000081526004016106ee90612f1b565b60405180910390fd5b6107018383611342565b505050565b6060806000606080600060066000888152602001908152602001600020905080600001816001018260020154836003018460040184805461074690613300565b80601f016020809104026020016040519081016040528092919081815260200182805461077290613300565b80156107bf5780601f10610794576101008083540402835291602001916107bf565b820191906000526020600020905b8154815290600101906020018083116107a257829003601f168201915b505050505094508380546107d290613300565b80601f01602080910402602001604051908101604052809291908181526020018280546107fe90613300565b801561084b5780601f106108205761010080835404028352916020019161084b565b820191906000526020600020905b81548152906001019060200180831161082e57829003601f168201915b5050505050935081805461085e90613300565b80601f016020809104026020016040519081016040528092919081815260200182805461088a90613300565b80156108d75780601f106108ac576101008083540402835291602001916108d7565b820191906000526020600020905b8154815290600101906020018083116108ba57829003601f168201915b505050505091508080548060200260200160405190810160405280929190818152602001828054801561092957602002820191906000526020600020905b815481526020019060010190808311610915575b50505050509050955095509550955095505091939590929450565b61095561094f61133a565b826113fb565b610994576040517f08c379a000000000000000000000000000000000000000000000000000000000815260040161098b9061301b565b60405180910390fd5b61099f8383836114d9565b505050565b6109bf83838360405180602001604052806000815250611012565b505050565b6000806002600084815260200190815260200160002060009054906101000a900473ffffffffffffffffffffffffffffffffffffffff169050600073ffffffffffffffffffffffffffffffffffffffff168173ffffffffffffffffffffffffffffffffffffffff161415610a6d576040517f08c379a0000000000000000000000000000000000000000000000000000000008152600401610a6490612f5b565b60405180910390fd5b80915050919050565b610a7f826112ce565b610abe576040517f08c379a0000000000000000000000000000000000000000000000000000000008152600401610ab590612ebb565b60405180910390fd5b6000600660008481526020019081526020016000209050818160020181905550827fe369164f6e36bbebc75e0c57a310efb7f1548a6d17cb673430a423966053faba83604051610b0e919061303b565b60405180910390a2505050565b60008073ffffffffffffffffffffffffffffffffffffffff168273ffffffffffffffffffffffffffffffffffffffff161415610b8c576040517f08c379a0000000000000000000000000000000000000000000000000000000008152600401610b8390612f3b565b60405180910390fd5b600360008373ffffffffffffffffffffffffffffffffffffffff1673ffffffffffffffffffffffffffffffffffffffff168152602001908152602001600020549050919050565b610bdc826112ce565b610c1b576040517f08c379a0000000000000000000000000000000000000000000000000000000008152600401610c1290612ebb565b60405180910390fd5b600060066000848152602001908152602001600020905081816004019080519060200190610c4a929190611eb8565b50827fbf3a55dceead868ecfeb95b46ad3cfb12302aa8470df6647390c2913ac14f80f83604051610c7b9190612d16565b60405180910390a2505050565b6000855111610ccc576040517f08c379a0000000000000000000000000000000000000000000000000000000008152600401610cc390612efb565b60405180910390fd5b6000845111610d10576040517f08c379a0000000000000000000000000000000000000000000000000000000008152600401610d0790612e1b565b60405180910390fd5b6000600754905060076000815480929190610d2a90613332565b9190505550600060066000838152602001908152602001600020905086816000019080519060200190610d5e929190611f05565b5085816001019080519060200190610d77929190611f05565b5084816002018190555083816003019080519060200190610d99929190611f05565b5082816004019080519060200190610db2929190611eb8565b50610dbd3383611735565b817fc0136e698521b2b54232c22cf5019bdacfde56c9541d8e0466ff06069775ead88888604051610def929190612d75565b60405180910390a250505050505050565b610e09826112ce565b610e48576040517f08c379a0000000000000000000000000000000000000000000000000000000008152600401610e3f90612ebb565b60405180910390fd5b600060066000848152602001908152602001600020905081816000019080519060200190610e77929190611f05565b50827f20b797ff93c2ad080dae49244cca0c87f114be76fbc61176d9907bd2cf66086283604051610ea89190612d53565b60405180910390a2505050565b606060018054610ec490613300565b80601f0160208091040260200160405190810160405280929190818152602001828054610ef090613300565b8015610f3d5780601f10610f1257610100808354040283529160200191610f3d565b820191906000526020600020905b815481529060010190602001808311610f2057829003601f168201915b5050505050905090565b610f59610f5261133a565b8383611753565b5050565b610f66826112ce565b610fa5576040517f08c379a0000000000000000000000000000000000000000000000000000000008152600401610f9c90612ebb565b60405180910390fd5b600060066000848152602001908152602001600020905081816003019080519060200190610fd4929190611f05565b50827f0d1654a6109e1c833ac2f0f3b5c1277ce26a54678eed03f82b1fad771b20b171836040516110059190612d53565b60405180910390a2505050565b61102361101d61133a565b836113fb565b611062576040517f08c379a00000000000000000000000000000000000000000000000000000000081526004016110599061301b565b60405180910390fd5b61106e848484846118c0565b50505050565b606061107f826112ce565b6110be576040517f08c379a00000000000000000000000000000000000000000000000000000000081526004016110b590612fdb565b60405180910390fd5b60006110c861191c565b905060008151116110e85760405180602001604052806000815250611113565b806110f284611933565b604051602001611103929190612c8b565b6040516020818303038152906040525b915050919050565b611124826112ce565b611163576040517f08c379a000000000000000000000000000000000000000000000000000000000815260040161115a90612ebb565b60405180910390fd5b600060066000848152602001908152602001600020905081816001019080519060200190611192929190611f05565b50827f9b1938358c27badbf167378124bb93e4b729ac8271b961db0a70f322eed2f4f5836040516111c39190612d53565b60405180910390a2505050565b6000600560008473ffffffffffffffffffffffffffffffffffffffff1673ffffffffffffffffffffffffffffffffffffffff16815260200190815260200160002060008373ffffffffffffffffffffffffffffffffffffffff1673ffffffffffffffffffffffffffffffffffffffff16815260200190815260200160002060009054906101000a900460ff16905092915050565b60007f01ffc9a7000000000000000000000000000000000000000000000000000000007bffffffffffffffffffffffffffffffffffffffffffffffffffffffff1916827bffffffffffffffffffffffffffffffffffffffffffffffffffffffff1916149050919050565b60008073ffffffffffffffffffffffffffffffffffffffff166002600084815260200190815260200160002060009054906101000a900473ffffffffffffffffffffffffffffffffffffffff1673ffffffffffffffffffffffffffffffffffffffff1614159050919050565b600033905090565b816004600083815260200190815260200160002060006101000a81548173ffffffffffffffffffffffffffffffffffffffff021916908373ffffffffffffffffffffffffffffffffffffffff160217905550808273ffffffffffffffffffffffffffffffffffffffff166113b5836109c4565b73ffffffffffffffffffffffffffffffffffffffff167f8c5be1e5ebec7d5bd14f71427d1e84f3dd0314c0f7b2291e5b200ac8c7c3b92560405160405180910390a45050565b6000611406826112ce565b611445576040517f08c379a000000000000000000000000000000000000000000000000000000000815260040161143c90612edb565b60405180910390fd5b6000611450836109c4565b90508073ffffffffffffffffffffffffffffffffffffffff168473ffffffffffffffffffffffffffffffffffffffff1614806114bf57508373ffffffffffffffffffffffffffffffffffffffff166114a784610569565b73ffffffffffffffffffffffffffffffffffffffff16145b806114d057506114cf81856111d0565b5b91505092915050565b8273ffffffffffffffffffffffffffffffffffffffff166114f9826109c4565b73ffffffffffffffffffffffffffffffffffffffff161461154f576040517f08c379a000000000000000000000000000000000000000000000000000000000815260040161154690612fbb565b60405180910390fd5b600073ffffffffffffffffffffffffffffffffffffffff168273ffffffffffffffffffffffffffffffffffffffff1614156115bf576040517f08c379a00000000000000000000000000000000000000000000000000000000081526004016115b690612e7b565b60405180910390fd5b6115ca838383611ae0565b6115d5600082611342565b6001600360008573ffffffffffffffffffffffffffffffffffffffff1673ffffffffffffffffffffffffffffffffffffffff16815260200190815260200160002060008282546116259190613216565b925050819055506001600360008473ffffffffffffffffffffffffffffffffffffffff1673ffffffffffffffffffffffffffffffffffffffff168152602001908152602001600020600082825461167c919061318f565b92505081905550816002600083815260200190815260200160002060006101000a81548173ffffffffffffffffffffffffffffffffffffffff021916908373ffffffffffffffffffffffffffffffffffffffff160217905550808273ffffffffffffffffffffffffffffffffffffffff168473ffffffffffffffffffffffffffffffffffffffff167fddf252ad1be2c89b69c2b068fc378daa952ba7f163c4a11628f55a4df523b3ef60405160405180910390a4505050565b61174f828260405180602001604052806000815250611ae5565b5050565b8173ffffffffffffffffffffffffffffffffffffffff168373ffffffffffffffffffffffffffffffffffffffff1614156117c2576040517f08c379a00000000000000000000000000000000000000000000000000000000081526004016117b990612e9b565b60405180910390fd5b80600560008573ffffffffffffffffffffffffffffffffffffffff1673ffffffffffffffffffffffffffffffffffffffff16815260200190815260200160002060008473ffffffffffffffffffffffffffffffffffffffff1673ffffffffffffffffffffffffffffffffffffffff16815260200190815260200160002060006101000a81548160ff0219169083151502179055508173ffffffffffffffffffffffffffffffffffffffff168373ffffffffffffffffffffffffffffffffffffffff167f17307eab39ab6107e8899845ad3d59bd9653f200f220920489ca2b5937696c31836040516118b39190612d38565b60405180910390a3505050565b6118cb8484846114d9565b6118d784848484611b40565b611916576040517f08c379a000000000000000000000000000000000000000000000000000000000815260040161190d90612e3b565b60405180910390fd5b50505050565b606060405180602001604052806000815250905090565b6060600082141561197b576040518060400160405280600181526020017f30000000000000000000000000000000000000000000000000000000000000008152509050611adb565b600082905060005b600082146119ad57808061199690613332565b915050600a826119a691906131e5565b9150611983565b60008167ffffffffffffffff8111156119ef577f4e487b7100000000000000000000000000000000000000000000000000000000600052604160045260246000fd5b6040519080825280601f01601f191660200182016040528015611a215781602001600182028036833780820191505090505b5090505b60008514611ad457600182611a3a9190613216565b9150600a85611a49919061337b565b6030611a55919061318f565b60f81b818381518110611a91577f4e487b7100000000000000000000000000000000000000000000000000000000600052603260045260246000fd5b60200101907effffffffffffffffffffffffffffffffffffffffffffffffffffffffffffff1916908160001a905350600a85611acd91906131e5565b9450611a25565b8093505050505b919050565b505050565b611aef8383611cd7565b611afc6000848484611b40565b611b3b576040517f08c379a0000000000000000000000000000000000000000000000000000000008152600401611b3290612e3b565b60405180910390fd5b505050565b6000611b618473ffffffffffffffffffffffffffffffffffffffff16611ea5565b15611cca578373ffffffffffffffffffffffffffffffffffffffff1663150b7a02611b8a61133a565b8786866040518563ffffffff1660e01b8152600401611bac9493929190612cca565b602060405180830381600087803b158015611bc657600080fd5b505af1925050508015611bf757506040513d601f19601f82011682018060405250810190611bf49190612347565b60015b611c7a573d8060008114611c27576040519150601f19603f3d011682016040523d82523d6000602084013e611c2c565b606091505b50600081511415611c72576040517f08c379a0000000000000000000000000000000000000000000000000000000008152600401611c6990612e3b565b60405180910390fd5b805181602001fd5b63150b7a0260e01b7bffffffffffffffffffffffffffffffffffffffffffffffffffffffff1916817bffffffffffffffffffffffffffffffffffffffffffffffffffffffff191614915050611ccf565b600190505b949350505050565b600073ffffffffffffffffffffffffffffffffffffffff168273ffffffffffffffffffffffffffffffffffffffff161415611d47576040517f08c379a0000000000000000000000000000000000000000000000000000000008152600401611d3e90612f7b565b60405180910390fd5b611d50816112ce565b15611d90576040517f08c379a0000000000000000000000000000000000000000000000000000000008152600401611d8790612e5b565b60405180910390fd5b611d9c60008383611ae0565b6001600360008473ffffffffffffffffffffffffffffffffffffffff1673ffffffffffffffffffffffffffffffffffffffff1681526020019081526020016000206000828254611dec919061318f565b92505081905550816002600083815260200190815260200160002060006101000a81548173ffffffffffffffffffffffffffffffffffffffff021916908373ffffffffffffffffffffffffffffffffffffffff160217905550808273ffffffffffffffffffffffffffffffffffffffff16600073ffffffffffffffffffffffffffffffffffffffff167fddf252ad1be2c89b69c2b068fc378daa952ba7f163c4a11628f55a4df523b3ef60405160405180910390a45050565b600080823b905060008111915050919050565b828054828255906000526020600020908101928215611ef4579160200282015b82811115611ef3578251825591602001919060010190611ed8565b5b509050611f019190611f8b565b5090565b828054611f1190613300565b90600052602060002090601f016020900481019282611f335760008555611f7a565b82601f10611f4c57805160ff1916838001178555611f7a565b82800160010185558215611f7a579182015b82811115611f79578251825591602001919060010190611f5e565b5b509050611f879190611f8b565b5090565b5b80821115611fa4576000816000905550600101611f8c565b5090565b6000611fbb611fb684613087565b613056565b90508083825260208201905082856020860282011115611fda57600080fd5b60005b8581101561200a5781611ff08882612162565b845260208401935060208301925050600181019050611fdd565b5050509392505050565b6000612027612022846130b3565b613056565b90508281526020810184848401111561203f57600080fd5b61204a8482856132be565b509392505050565b6000612065612060846130e3565b613056565b90508281526020810184848401111561207d57600080fd5b6120888482856132be565b509392505050565b60008135905061209f81613479565b92915050565b600082601f8301126120b657600080fd5b81356120c6848260208601611fa8565b91505092915050565b6000813590506120de81613490565b92915050565b6000813590506120f3816134a7565b92915050565b600081519050612108816134a7565b92915050565b600082601f83011261211f57600080fd5b813561212f848260208601612014565b91505092915050565b600082601f83011261214957600080fd5b8135612159848260208601612052565b91505092915050565b600081359050612171816134be565b92915050565b60006020828403121561218957600080fd5b600061219784828501612090565b91505092915050565b600080604083850312156121b357600080fd5b60006121c185828601612090565b92505060206121d285828601612090565b9150509250929050565b6000806000606084860312156121f157600080fd5b60006121ff86828701612090565b935050602061221086828701612090565b925050604061222186828701612162565b9150509250925092565b6000806000806080858703121561224157600080fd5b600061224f87828801612090565b945050602061226087828801612090565b935050604061227187828801612162565b925050606085013567ffffffffffffffff81111561228e57600080fd5b61229a8782880161210e565b91505092959194509250565b600080604083850312156122b957600080fd5b60006122c785828601612090565b92505060206122d8858286016120cf565b9150509250929050565b600080604083850312156122f557600080fd5b600061230385828601612090565b925050602061231485828601612162565b9150509250929050565b60006020828403121561233057600080fd5b600061233e848285016120e4565b91505092915050565b60006020828403121561235957600080fd5b6000612367848285016120f9565b91505092915050565b600080600080600060a0868803121561238857600080fd5b600086013567ffffffffffffffff8111156123a257600080fd5b6123ae88828901612138565b955050602086013567ffffffffffffffff8111156123cb57600080fd5b6123d788828901612138565b94505060406123e888828901612162565b935050606086013567ffffffffffffffff81111561240557600080fd5b61241188828901612138565b925050608086013567ffffffffffffffff81111561242e57600080fd5b61243a888289016120a5565b9150509295509295909350565b60006020828403121561245957600080fd5b600061246784828501612162565b91505092915050565b6000806040838503121561248357600080fd5b600061249185828601612162565b925050602083013567ffffffffffffffff8111156124ae57600080fd5b6124ba858286016120a5565b9150509250929050565b600080604083850312156124d757600080fd5b60006124e585828601612162565b925050602083013567ffffffffffffffff81111561250257600080fd5b61250e85828601612138565b9150509250929050565b6000806040838503121561252b57600080fd5b600061253985828601612162565b925050602061254a85828601612162565b9150509250929050565b60006125608383612c6d565b60208301905092915050565b6125758161324a565b82525050565b600061258682613123565b6125908185613151565b935061259b83613113565b8060005b838110156125cc5781516125b38882612554565b97506125be83613144565b92505060018101905061259f565b5085935050505092915050565b6125e28161325c565b82525050565b60006125f38261312e565b6125fd8185613162565b935061260d8185602086016132cd565b61261681613468565b840191505092915050565b600061262c82613139565b6126368185613173565b93506126468185602086016132cd565b61264f81613468565b840191505092915050565b600061266582613139565b61266f8185613184565b935061267f8185602086016132cd565b80840191505092915050565b6000612698601883613173565b91507f557365726e616d652063616e6e6f7420626520656d70747900000000000000006000830152602082019050919050565b60006126d8603283613173565b91507f4552433732313a207472616e7366657220746f206e6f6e20455243373231526560008301527f63656976657220696d706c656d656e74657200000000000000000000000000006020830152604082019050919050565b600061273e601c83613173565b91507f4552433732313a20746f6b656e20616c7265616479206d696e746564000000006000830152602082019050919050565b600061277e602483613173565b91507f4552433732313a207472616e7366657220746f20746865207a65726f2061646460008301527f72657373000000000000000000000000000000000000000000000000000000006020830152604082019050919050565b60006127e4601983613173565b91507f4552433732313a20617070726f766520746f2063616c6c6572000000000000006000830152602082019050919050565b6000612824601783613173565b91507f546f6b656e20494420646f6573206e6f742065786973740000000000000000006000830152602082019050919050565b6000612864602c83613173565b91507f4552433732313a206f70657261746f7220717565727920666f72206e6f6e657860008301527f697374656e7420746f6b656e00000000000000000000000000000000000000006020830152604082019050919050565b60006128ca601e83613173565b91507f41646d696e20557365726e616d652063616e6e6f7420626520656d70747900006000830152602082019050919050565b600061290a603883613173565b91507f4552433732313a20617070726f76652063616c6c6572206973206e6f74206f7760008301527f6e6572206e6f7220617070726f76656420666f7220616c6c00000000000000006020830152604082019050919050565b6000612970602a83613173565b91507f4552433732313a2062616c616e636520717565727920666f7220746865207a6560008301527f726f2061646472657373000000000000000000000000000000000000000000006020830152604082019050919050565b60006129d6602983613173565b91507f4552433732313a206f776e657220717565727920666f72206e6f6e657869737460008301527f656e7420746f6b656e00000000000000000000000000000000000000000000006020830152604082019050919050565b6000612a3c602083613173565b91507f4552433732313a206d696e7420746f20746865207a65726f20616464726573736000830152602082019050919050565b6000612a7c602c83613173565b91507f4552433732313a20617070726f76656420717565727920666f72206e6f6e657860008301527f697374656e7420746f6b656e00000000000000000000000000000000000000006020830152604082019050919050565b6000612ae2602983613173565b91507f4552433732313a207472616e73666572206f6620746f6b656e2074686174206960008301527f73206e6f74206f776e00000000000000000000000000000000000000000000006020830152604082019050919050565b6000612b48602f83613173565b91507f4552433732314d657461646174613a2055524920717565727920666f72206e6f60008301527f6e6578697374656e7420746f6b656e00000000000000000000000000000000006020830152604082019050919050565b6000612bae602183613173565b91507f4552433732313a20617070726f76616c20746f2063757272656e74206f776e6560008301527f72000000000000000000000000000000000000000000000000000000000000006020830152604082019050919050565b6000612c14603183613173565b91507f4552433732313a207472616e736665722063616c6c6572206973206e6f74206f60008301527f776e6572206e6f7220617070726f7665640000000000000000000000000000006020830152604082019050919050565b612c76816132b4565b82525050565b612c85816132b4565b82525050565b6000612c97828561265a565b9150612ca3828461265a565b91508190509392505050565b6000602082019050612cc4600083018461256c565b92915050565b6000608082019050612cdf600083018761256c565b612cec602083018661256c565b612cf96040830185612c7c565b8181036060830152612d0b81846125e8565b905095945050505050565b60006020820190508181036000830152612d30818461257b565b905092915050565b6000602082019050612d4d60008301846125d9565b92915050565b60006020820190508181036000830152612d6d8184612621565b905092915050565b60006040820190508181036000830152612d8f8185612621565b90508181036020830152612da38184612621565b90509392505050565b600060a0820190508181036000830152612dc68188612621565b90508181036020830152612dda8187612621565b9050612de96040830186612c7c565b8181036060830152612dfb8185612621565b90508181036080830152612e0f818461257b565b90509695505050505050565b60006020820190508181036000830152612e348161268b565b9050919050565b60006020820190508181036000830152612e54816126cb565b9050919050565b60006020820190508181036000830152612e7481612731565b9050919050565b60006020820190508181036000830152612e9481612771565b9050919050565b60006020820190508181036000830152612eb4816127d7565b9050919050565b60006020820190508181036000830152612ed481612817565b9050919050565b60006020820190508181036000830152612ef481612857565b9050919050565b60006020820190508181036000830152612f14816128bd565b9050919050565b60006020820190508181036000830152612f34816128fd565b9050919050565b60006020820190508181036000830152612f5481612963565b9050919050565b60006020820190508181036000830152612f74816129c9565b9050919050565b60006020820190508181036000830152612f9481612a2f565b9050919050565b60006020820190508181036000830152612fb481612a6f565b9050919050565b60006020820190508181036000830152612fd481612ad5565b9050919050565b60006020820190508181036000830152612ff481612b3b565b9050919050565b6000602082019050818103600083015261301481612ba1565b9050919050565b6000602082019050818103600083015261303481612c07565b9050919050565b60006020820190506130506000830184612c7c565b92915050565b6000604051905081810181811067ffffffffffffffff8211171561307d5761307c613439565b5b8060405250919050565b600067ffffffffffffffff8211156130a2576130a1613439565b5b602082029050602081019050919050565b600067ffffffffffffffff8211156130ce576130cd613439565b5b601f19601f8301169050602081019050919050565b600067ffffffffffffffff8211156130fe576130fd613439565b5b601f19601f8301169050602081019050919050565b6000819050602082019050919050565b600081519050919050565b600081519050919050565b600081519050919050565b6000602082019050919050565b600082825260208201905092915050565b600082825260208201905092915050565b600082825260208201905092915050565b600081905092915050565b600061319a826132b4565b91506131a5836132b4565b9250827fffffffffffffffffffffffffffffffffffffffffffffffffffffffffffffffff038211156131da576131d96133ac565b5b828201905092915050565b60006131f0826132b4565b91506131fb836132b4565b92508261320b5761320a6133db565b5b828204905092915050565b6000613221826132b4565b915061322c836132b4565b92508282101561323f5761323e6133ac565b5b828203905092915050565b600061325582613294565b9050919050565b60008115159050919050565b60007fffffffff0000000000000000000000000000000000000000000000000000000082169050919050565b600073ffffffffffffffffffffffffffffffffffffffff82169050919050565b6000819050919050565b82818337600083830152505050565b60005b838110156132eb5780820151818401526020810190506132d0565b838111156132fa576000848401525b50505050565b6000600282049050600182168061331857607f821691505b6020821081141561332c5761332b61340a565b5b50919050565b600061333d826132b4565b91507fffffffffffffffffffffffffffffffffffffffffffffffffffffffffffffffff8214156133705761336f6133ac565b5b600182019050919050565b6000613386826132b4565b9150613391836132b4565b9250826133a1576133a06133db565b5b828206905092915050565b7f4e487b7100000000000000000000000000000000000000000000000000000000600052601160045260246000fd5b7f4e487b7100000000000000000000000000000000000000000000000000000000600052601260045260246000fd5b7f4e487b7100000000000000000000000000000000000000000000000000000000600052602260045260246000fd5b7f4e487b7100000000000000000000000000000000000000000000000000000000600052604160045260246000fd5b6000601f19601f8301169050919050565b6134828161324a565b811461348d57600080fd5b50565b6134998161325c565b81146134a457600080fd5b50565b6134b081613268565b81146134bb57600080fd5b50565b6134c7816132b4565b81146134d257600080fd5b5056fea2646970667358221220677cbbdfea04c544fcdc1d89b24f59c9aa68a5492397d05c44b3244866ca5ac064736f6c63430008000033",
  "immutableReferences": {},
  "source": "// SPDX-License-Identifier: MIT\r\npragma solidity ^0.8.0;\r\n\r\nimport \"@openzeppelin/contracts/token/ERC721/ERC721.sol\";\r\n\r\ncontract UserDataContract is ERC721 {\r\n    struct UserData {\r\n        string adminUsername;\r\n        string username;\r\n        uint256 totalDays;\r\n        string dailyPlan;\r\n        uint256[] dates;\r\n    }\r\n\r\n    mapping(uint256 => UserData) private userDataMap;\r\n    uint256 private tokenIdCounter;\r\n\r\n    constructor() ERC721(\"UserDataToken\", \"UDT\") {}\r\n\r\n    event UserRegistered(\r\n        uint256 indexed tokenId,\r\n        string adminUsername,\r\n        string username\r\n    );\r\n    event DailyPlanUpdated(uint256 indexed tokenId, string newDailyPlan);\r\n    event AdminUsernameUpdated(\r\n        uint256 indexed tokenId,\r\n        string newAdminUsername\r\n    );\r\n    event UsernameUpdated(uint256 indexed tokenId, string newUsername);\r\n    event TotalDaysUpdated(uint256 indexed tokenId, uint256 newTotalDays);\r\n    event DatesUpdated(uint256 indexed tokenId, uint256[] newDates);\r\n\r\n    function registerUser(\r\n        string memory _adminUsername,\r\n        string memory _username,\r\n        uint256 _totalDays,\r\n        string memory _dailyPlan,\r\n        uint256[] memory _dates\r\n    ) external {\r\n        require(\r\n            bytes(_adminUsername).length > 0,\r\n            \"Admin Username cannot be empty\"\r\n        );\r\n        require(bytes(_username).length > 0, \"Username cannot be empty\");\r\n\r\n        uint256 newTokenId = tokenIdCounter;\r\n        tokenIdCounter++;\r\n\r\n        UserData storage userData = userDataMap[newTokenId];\r\n\r\n        userData.adminUsername = _adminUsername;\r\n        userData.username = _username;\r\n        userData.totalDays = _totalDays;\r\n        userData.dailyPlan = _dailyPlan;\r\n        userData.dates = _dates;\r\n\r\n        _safeMint(msg.sender, newTokenId);\r\n\r\n        emit UserRegistered(newTokenId, _adminUsername, _username);\r\n    }\r\n\r\n    function updateDailyPlan(\r\n        uint256 _tokenId,\r\n        string memory _dailyPlan\r\n    ) external {\r\n        require(_exists(_tokenId), \"Token ID does not exist\");\r\n        UserData storage userData = userDataMap[_tokenId];\r\n        userData.dailyPlan = _dailyPlan;\r\n        emit DailyPlanUpdated(_tokenId, _dailyPlan);\r\n    }\r\n\r\n    function updateAdminUsername(\r\n        uint256 _tokenId,\r\n        string memory _adminUsername\r\n    ) external {\r\n        require(_exists(_tokenId), \"Token ID does not exist\");\r\n        UserData storage userData = userDataMap[_tokenId];\r\n        userData.adminUsername = _adminUsername;\r\n        emit AdminUsernameUpdated(_tokenId, _adminUsername);\r\n    }\r\n\r\n    function updateUsername(\r\n        uint256 _tokenId,\r\n        string memory _username\r\n    ) external {\r\n        require(_exists(_tokenId), \"Token ID does not exist\");\r\n        UserData storage userData = userDataMap[_tokenId];\r\n        userData.username = _username;\r\n        emit UsernameUpdated(_tokenId, _username);\r\n    }\r\n\r\n    function updateTotalDays(uint256 _tokenId, uint256 _totalDays) external {\r\n        require(_exists(_tokenId), \"Token ID does not exist\");\r\n        UserData storage userData = userDataMap[_tokenId];\r\n        userData.totalDays = _totalDays;\r\n        emit TotalDaysUpdated(_tokenId, _totalDays);\r\n    }\r\n\r\n    function updateDates(uint256 _tokenId, uint256[] memory _dates) external {\r\n        require(_exists(_tokenId), \"Token ID does not exist\");\r\n        UserData storage userData = userDataMap[_tokenId];\r\n        userData.dates = _dates;\r\n        emit DatesUpdated(_tokenId, _dates);\r\n    }\r\n\r\n    function getUserData(\r\n        uint256 _tokenId\r\n    )\r\n        external\r\n        view\r\n        returns (\r\n            string memory adminUsername,\r\n            string memory username,\r\n            uint256 totalDays,\r\n            string memory dailyPlan,\r\n            uint256[] memory dates\r\n        )\r\n    {\r\n        UserData storage userData = userDataMap[_tokenId];\r\n        return (\r\n            userData.adminUsername,\r\n            userData.username,\r\n            userData.totalDays,\r\n            userData.dailyPlan,\r\n            userData.dates\r\n        );\r\n    }\r\n}\r\n",
  "sourcePath": "C:\\Users\\Yash kanjariya\\Desktop\\Projects\\AOH_BoiledRice\\web3\\contracts\\userdata.sol",
  "compiler": {
    "name": "solc",
    "version": "0.8.0+commit.c7dfd78e.Emscripten.clang"
  },
  "schemaVersion": "3.4.16",
  "updatedAt": "2024-03-30T12:46:35.605Z",
  "networkType": "ethereum",
  "devdoc": {
    "kind": "dev",
    "methods": {
      "approve(address,uint256)": {
        "details": "See {IERC721-approve}."
      },
      "balanceOf(address)": {
        "details": "See {IERC721-balanceOf}."
      },
      "getApproved(uint256)": {
        "details": "See {IERC721-getApproved}."
      },
      "isApprovedForAll(address,address)": {
        "details": "See {IERC721-isApprovedForAll}."
      },
      "name()": {
        "details": "See {IERC721Metadata-name}."
      },
      "ownerOf(uint256)": {
        "details": "See {IERC721-ownerOf}."
      },
      "safeTransferFrom(address,address,uint256)": {
        "details": "See {IERC721-safeTransferFrom}."
      },
      "safeTransferFrom(address,address,uint256,bytes)": {
        "details": "See {IERC721-safeTransferFrom}."
      },
      "setApprovalForAll(address,bool)": {
        "details": "See {IERC721-setApprovalForAll}."
      },
      "supportsInterface(bytes4)": {
        "details": "See {IERC165-supportsInterface}."
      },
      "symbol()": {
        "details": "See {IERC721Metadata-symbol}."
      },
      "tokenURI(uint256)": {
        "details": "See {IERC721Metadata-tokenURI}."
      },
      "transferFrom(address,address,uint256)": {
        "details": "See {IERC721-transferFrom}."
      }
    },
    "version": 1
  },
  "userdoc": {
    "kind": "user",
    "methods": {},
    "version": 1
  }
}