{
  "contractName": "UserDataContract",
  "abi": [
    {
      "inputs": [],
      "stateMutability": "nonpayable",
      "type": "constructor"
    },
    {
      "anonymous": false,
      "inputs": [
        {
          "indexed": true,
          "internalType": "uint256",
          "name": "tokenId",
          "type": "uint256"
        },
        {
          "indexed": false,
          "internalType": "string",
          "name": "newAdminUsername",
          "type": "string"
        }
      ],
      "name": "AdminUsernameUpdated",
      "type": "event"
    },
    {
      "anonymous": false,
      "inputs": [
        {
          "indexed": true,
          "internalType": "address",
          "name": "owner",
          "type": "address"
        },
        {
          "indexed": true,
          "internalType": "address",
          "name": "approved",
          "type": "address"
        },
        {
          "indexed": true,
          "internalType": "uint256",
          "name": "tokenId",
          "type": "uint256"
        }
      ],
      "name": "Approval",
      "type": "event"
    },
    {
      "anonymous": false,
      "inputs": [
        {
          "indexed": true,
          "internalType": "address",
          "name": "owner",
          "type": "address"
        },
        {
          "indexed": true,
          "internalType": "address",
          "name": "operator",
          "type": "address"
        },
        {
          "indexed": false,
          "internalType": "bool",
          "name": "approved",
          "type": "bool"
        }
      ],
      "name": "ApprovalForAll",
      "type": "event"
    },
    {
      "anonymous": false,
      "inputs": [
        {
          "indexed": true,
          "internalType": "uint256",
          "name": "tokenId",
          "type": "uint256"
        },
        {
          "indexed": false,
          "internalType": "string",
          "name": "newDailyPlan",
          "type": "string"
        }
      ],
      "name": "DailyPlanUpdated",
      "type": "event"
    },
    {
      "anonymous": false,
      "inputs": [
        {
          "indexed": true,
          "internalType": "uint256",
          "name": "tokenId",
          "type": "uint256"
        },
        {
          "indexed": false,
          "internalType": "uint256[]",
          "name": "newDates",
          "type": "uint256[]"
        }
      ],
      "name": "DatesUpdated",
      "type": "event"
    },
    {
      "anonymous": false,
      "inputs": [
        {
          "indexed": true,
          "internalType": "uint256",
          "name": "tokenId",
          "type": "uint256"
        },
        {
          "indexed": false,
          "internalType": "uint256",
          "name": "newTotalDays",
          "type": "uint256"
        }
      ],
      "name": "TotalDaysUpdated",
      "type": "event"
    },
    {
      "anonymous": false,
      "inputs": [
        {
          "indexed": true,
          "internalType": "address",
          "name": "from",
          "type": "address"
        },
        {
          "indexed": true,
          "internalType": "address",
          "name": "to",
          "type": "address"
        },
        {
          "indexed": true,
          "internalType": "uint256",
          "name": "tokenId",
          "type": "uint256"
        }
      ],
      "name": "Transfer",
      "type": "event"
    },
    {
      "anonymous": false,
      "inputs": [
        {
          "indexed": true,
          "internalType": "uint256",
          "name": "tokenId",
          "type": "uint256"
        },
        {
          "indexed": false,
          "internalType": "string",
          "name": "adminUsername",
          "type": "string"
        },
        {
          "indexed": false,
          "internalType": "string",
          "name": "username",
          "type": "string"
        }
      ],
      "name": "UserRegistered",
      "type": "event"
    },
    {
      "anonymous": false,
      "inputs": [
        {
          "indexed": true,
          "internalType": "uint256",
          "name": "tokenId",
          "type": "uint256"
        },
        {
          "indexed": false,
          "internalType": "string",
          "name": "newUsername",
          "type": "string"
        }
      ],
      "name": "UsernameUpdated",
      "type": "event"
    },
    {
      "inputs": [
        {
          "internalType": "address",
          "name": "to",
          "type": "address"
        },
        {
          "internalType": "uint256",
          "name": "tokenId",
          "type": "uint256"
        }
      ],
      "name": "approve",
      "outputs": [],
      "stateMutability": "nonpayable",
      "type": "function"
    },
    {
      "inputs": [
        {
          "internalType": "address",
          "name": "owner",
          "type": "address"
        }
      ],
      "name": "balanceOf",
      "outputs": [
        {
          "internalType": "uint256",
          "name": "",
          "type": "uint256"
        }
      ],
      "stateMutability": "view",
      "type": "function"
    },
    {
      "inputs": [
        {
          "internalType": "uint256",
          "name": "tokenId",
          "type": "uint256"
        }
      ],
      "name": "getApproved",
      "outputs": [
        {
          "internalType": "address",
          "name": "",
          "type": "address"
        }
      ],
      "stateMutability": "view",
      "type": "function"
    },
    {
      "inputs": [
        {
          "internalType": "address",
          "name": "owner",
          "type": "address"
        },
        {
          "internalType": "address",
          "name": "operator",
          "type": "address"
        }
      ],
      "name": "isApprovedForAll",
      "outputs": [
        {
          "internalType": "bool",
          "name": "",
          "type": "bool"
        }
      ],
      "stateMutability": "view",
      "type": "function"
    },
    {
      "inputs": [],
      "name": "name",
      "outputs": [
        {
          "internalType": "string",
          "name": "",
          "type": "string"
        }
      ],
      "stateMutability": "view",
      "type": "function"
    },
    {
      "inputs": [
        {
          "internalType": "uint256",
          "name": "tokenId",
          "type": "uint256"
        }
      ],
      "name": "ownerOf",
      "outputs": [
        {
          "internalType": "address",
          "name": "",
          "type": "address"
        }
      ],
      "stateMutability": "view",
      "type": "function"
    },
    {
      "inputs": [
        {
          "internalType": "address",
          "name": "from",
          "type": "address"
        },
        {
          "internalType": "address",
          "name": "to",
          "type": "address"
        },
        {
          "internalType": "uint256",
          "name": "tokenId",
          "type": "uint256"
        }
      ],
      "name": "safeTransferFrom",
      "outputs": [],
      "stateMutability": "nonpayable",
      "type": "function"
    },
    {
      "inputs": [
        {
          "internalType": "address",
          "name": "from",
          "type": "address"
        },
        {
          "internalType": "address",
          "name": "to",
          "type": "address"
        },
        {
          "internalType": "uint256",
          "name": "tokenId",
          "type": "uint256"
        },
        {
          "internalType": "bytes",
          "name": "data",
          "type": "bytes"
        }
      ],
      "name": "safeTransferFrom",
      "outputs": [],
      "stateMutability": "nonpayable",
      "type": "function"
    },
    {
      "inputs": [
        {
          "internalType": "address",
          "name": "operator",
          "type": "address"
        },
        {
          "internalType": "bool",
          "name": "approved",
          "type": "bool"
        }
      ],
      "name": "setApprovalForAll",
      "outputs": [],
      "stateMutability": "nonpayable",
      "type": "function"
    },
    {
      "inputs": [
        {
          "internalType": "bytes4",
          "name": "interfaceId",
          "type": "bytes4"
        }
      ],
      "name": "supportsInterface",
      "outputs": [
        {
          "internalType": "bool",
          "name": "",
          "type": "bool"
        }
      ],
      "stateMutability": "view",
      "type": "function"
    },
    {
      "inputs": [],
      "name": "symbol",
      "outputs": [
        {
          "internalType": "string",
          "name": "",
          "type": "string"
        }
      ],
      "stateMutability": "view",
      "type": "function"
    },
    {
      "inputs": [
        {
          "internalType": "uint256",
          "name": "tokenId",
          "type": "uint256"
        }
      ],
      "name": "tokenURI",
      "outputs": [
        {
          "internalType": "string",
          "name": "",
          "type": "string"
        }
      ],
      "stateMutability": "view",
      "type": "function"
    },
    {
      "inputs": [
        {
          "internalType": "address",
          "name": "from",
          "type": "address"
        },
        {
          "internalType": "address",
          "name": "to",
          "type": "address"
        },
        {
          "internalType": "uint256",
          "name": "tokenId",
          "type": "uint256"
        }
      ],
      "name": "transferFrom",
      "outputs": [],
      "stateMutability": "nonpayable",
      "type": "function"
    },
    {
      "inputs": [
        {
          "internalType": "string",
          "name": "_adminUsername",
          "type": "string"
        },
        {
          "internalType": "string",
          "name": "_username",
          "type": "string"
        },
        {
          "internalType": "uint256",
          "name": "_totalDays",
          "type": "uint256"
        },
        {
          "internalType": "string",
          "name": "_dailyPlan",
          "type": "string"
        },
        {
          "internalType": "uint256[]",
          "name": "_dates",
          "type": "uint256[]"
        }
      ],
      "name": "registerUser",
      "outputs": [],
      "stateMutability": "nonpayable",
      "type": "function"
    },
    {
      "inputs": [
        {
          "internalType": "uint256",
          "name": "_tokenId",
          "type": "uint256"
        },
        {
          "internalType": "string",
          "name": "_dailyPlan",
          "type": "string"
        }
      ],
      "name": "updateDailyPlan",
      "outputs": [],
      "stateMutability": "nonpayable",
      "type": "function"
    },
    {
      "inputs": [
        {
          "internalType": "uint256",
          "name": "_tokenId",
          "type": "uint256"
        },
        {
          "internalType": "string",
          "name": "_adminUsername",
          "type": "string"
        }
      ],
      "name": "updateAdminUsername",
      "outputs": [],
      "stateMutability": "nonpayable",
      "type": "function"
    },
    {
      "inputs": [
        {
          "internalType": "uint256",
          "name": "_tokenId",
          "type": "uint256"
        },
        {
          "internalType": "string",
          "name": "_username",
          "type": "string"
        }
      ],
      "name": "updateUsername",
      "outputs": [],
      "stateMutability": "nonpayable",
      "type": "function"
    },
    {
      "inputs": [
        {
          "internalType": "uint256",
          "name": "_tokenId",
          "type": "uint256"
        },
        {
          "internalType": "uint256",
          "name": "_totalDays",
          "type": "uint256"
        }
      ],
      "name": "updateTotalDays",
      "outputs": [],
      "stateMutability": "nonpayable",
      "type": "function"
    },
    {
      "inputs": [
        {
          "internalType": "uint256",
          "name": "_tokenId",
          "type": "uint256"
        },
        {
          "internalType": "uint256[]",
          "name": "_dates",
          "type": "uint256[]"
        }
      ],
      "name": "updateDates",
      "outputs": [],
      "stateMutability": "nonpayable",
      "type": "function"
    },
    {
      "inputs": [
        {
          "internalType": "uint256",
          "name": "_tokenId",
          "type": "uint256"
        }
      ],
      "name": "getUserData",
      "outputs": [
        {
          "internalType": "string",
          "name": "adminUsername",
          "type": "string"
        },
        {
          "internalType": "string",
          "name": "username",
          "type": "string"
        },
        {
          "internalType": "uint256",
          "name": "totalDays",
          "type": "uint256"
        },
        {
          "internalType": "string",
          "name": "dailyPlan",
          "type": "string"
        },
        {
          "internalType": "uint256[]",
          "name": "dates",
          "type": "uint256[]"
        }
      ],
      "stateMutability": "view",
      "type": "function"
    }
  ],
  "bytecode": "0x608060405234801562000010575f80fd5b506040518060400160405280600d81526020017f5573657244617461546f6b656e000000000000000000000000000000000000008152506040518060400160405280600381526020017f5544540000000000000000000000000000000000000000000000000000000000815250815f90816200008d91906200030c565b5080600190816200009f91906200030c565b505050620003f0565b5f81519050919050565b7f4e487b71000000000000000000000000000000000000000000000000000000005f52604160045260245ffd5b7f4e487b71000000000000000000000000000000000000000000000000000000005f52602260045260245ffd5b5f60028204905060018216806200012457607f821691505b6020821081036200013a5762000139620000df565b5b50919050565b5f819050815f5260205f209050919050565b5f6020601f8301049050919050565b5f82821b905092915050565b5f600883026200019e7fffffffffffffffffffffffffffffffffffffffffffffffffffffffffffffffff8262000161565b620001aa868362000161565b95508019841693508086168417925050509392505050565b5f819050919050565b5f819050919050565b5f620001f4620001ee620001e884620001c2565b620001cb565b620001c2565b9050919050565b5f819050919050565b6200020f83620001d4565b620002276200021e82620001fb565b8484546200016d565b825550505050565b5f90565b6200023d6200022f565b6200024a81848462000204565b505050565b5b818110156200027157620002655f8262000233565b60018101905062000250565b5050565b601f821115620002c0576200028a8162000140565b620002958462000152565b81016020851015620002a5578190505b620002bd620002b48562000152565b8301826200024f565b50505b505050565b5f82821c905092915050565b5f620002e25f1984600802620002c5565b1980831691505092915050565b5f620002fc8383620002d1565b9150826002028217905092915050565b6200031782620000a8565b67ffffffffffffffff811115620003335762000332620000b2565b5b6200033f82546200010c565b6200034c82828562000275565b5f60209050601f83116001811462000382575f84156200036d578287015190505b620003798582620002ef565b865550620003e8565b601f198416620003928662000140565b5f5b82811015620003bb5784890151825560018201915060208501945060208101905062000394565b86831015620003db5784890151620003d7601f891682620002d1565b8355505b6001600288020188555050505b505050505050565b61351180620003fe5f395ff3fe608060405234801561000f575f80fd5b506004361061012a575f3560e01c80637fea358d116100ab578063b85a64751161006f578063b85a64751461033e578063b88d4fde1461035a578063c87b56dd14610376578063d28b9342146103a6578063e985e9c5146103c25761012a565b80637fea358d146102b057806386394d6a146102cc578063881546af146102e857806395d89b4114610304578063a22cb465146103225761012a565b806323b872dd116100f257806323b872dd146101fc57806342842e0e146102185780636352211e146102345780636d9c72d91461026457806370a08231146102805761012a565b806301ffc9a71461012e57806306fdde031461015e578063081812fc1461017c578063095ea7b3146101ac5780631fef580c146101c8575b5f80fd5b61014860048036038101906101439190611fb0565b6103f2565b6040516101559190611ff5565b60405180910390f35b6101666104d3565b6040516101739190612098565b60405180910390f35b610196600480360381019061019191906120eb565b610562565b6040516101a39190612155565b60405180910390f35b6101c660048036038101906101c19190612198565b6105a4565b005b6101e260048036038101906101dd91906120eb565b6106ba565b6040516101f395949392919061229c565b60405180910390f35b61021660048036038101906102119190612309565b6108eb565b005b610232600480360381019061022d9190612309565b61094b565b005b61024e600480360381019061024991906120eb565b61096a565b60405161025b9190612155565b60405180910390f35b61027e60048036038101906102799190612359565b6109ee565b005b61029a60048036038101906102959190612397565b610a90565b6040516102a791906123c2565b60405180910390f35b6102ca60048036038101906102c5919061251b565b610b44565b005b6102e660048036038101906102e19190612625565b610bf6565b005b61030260048036038101906102fd919061270c565b610d51565b005b61030c610dfb565b6040516103199190612098565b60405180910390f35b61033c60048036038101906103379190612790565b610e8b565b005b6103586004803603810190610353919061270c565b610ea1565b005b610374600480360381019061036f919061286c565b610f4c565b005b610390600480360381019061038b91906120eb565b610fae565b60405161039d9190612098565b60405180910390f35b6103c060048036038101906103bb919061270c565b611013565b005b6103dc60048036038101906103d791906128ec565b6110be565b6040516103e99190611ff5565b60405180910390f35b5f7f80ac58cd000000000000000000000000000000000000000000000000000000007bffffffffffffffffffffffffffffffffffffffffffffffffffffffff1916827bffffffffffffffffffffffffffffffffffffffffffffffffffffffff191614806104bc57507f5b5e139f000000000000000000000000000000000000000000000000000000007bffffffffffffffffffffffffffffffffffffffffffffffffffffffff1916827bffffffffffffffffffffffffffffffffffffffffffffffffffffffff1916145b806104cc57506104cb8261114c565b5b9050919050565b60605f80546104e190612957565b80601f016020809104026020016040519081016040528092919081815260200182805461050d90612957565b80156105585780601f1061052f57610100808354040283529160200191610558565b820191905f5260205f20905b81548152906001019060200180831161053b57829003601f168201915b5050505050905090565b5f61056c826111b5565b60045f8381526020019081526020015f205f9054906101000a900473ffffffffffffffffffffffffffffffffffffffff169050919050565b5f6105ae8261096a565b90508073ffffffffffffffffffffffffffffffffffffffff168373ffffffffffffffffffffffffffffffffffffffff160361061e576040517f08c379a0000000000000000000000000000000000000000000000000000000008152600401610615906129f7565b60405180910390fd5b8073ffffffffffffffffffffffffffffffffffffffff1661063d611200565b73ffffffffffffffffffffffffffffffffffffffff16148061066c575061066b81610666611200565b6110be565b5b6106ab576040517f08c379a00000000000000000000000000000000000000000000000000000000081526004016106a290612a85565b60405180910390fd5b6106b58383611207565b505050565b6060805f6060805f60065f8881526020019081526020015f209050805f0181600101826002015483600301846004018480546106f590612957565b80601f016020809104026020016040519081016040528092919081815260200182805461072190612957565b801561076c5780601f106107435761010080835404028352916020019161076c565b820191905f5260205f20905b81548152906001019060200180831161074f57829003601f168201915b5050505050945083805461077f90612957565b80601f01602080910402602001604051908101604052809291908181526020018280546107ab90612957565b80156107f65780601f106107cd576101008083540402835291602001916107f6565b820191905f5260205f20905b8154815290600101906020018083116107d957829003601f168201915b5050505050935081805461080990612957565b80601f016020809104026020016040519081016040528092919081815260200182805461083590612957565b80156108805780601f1061085757610100808354040283529160200191610880565b820191905f5260205f20905b81548152906001019060200180831161086357829003601f168201915b50505050509150808054806020026020016040519081016040528092919081815260200182805480156108d057602002820191905f5260205f20905b8154815260200190600101908083116108bc575b50505050509050955095509550955095505091939590929450565b6108fc6108f6611200565b826112bd565b61093b576040517f08c379a000000000000000000000000000000000000000000000000000000000815260040161093290612b13565b60405180910390fd5b610946838383611351565b505050565b61096583838360405180602001604052805f815250610f4c565b505050565b5f806109758361163d565b90505f73ffffffffffffffffffffffffffffffffffffffff168173ffffffffffffffffffffffffffffffffffffffff16036109e5576040517f08c379a00000000000000000000000000000000000000000000000000000000081526004016109dc90612b7b565b60405180910390fd5b80915050919050565b6109f782611676565b610a36576040517f08c379a0000000000000000000000000000000000000000000000000000000008152600401610a2d90612be3565b60405180910390fd5b5f60065f8481526020019081526020015f209050818160020181905550827fe369164f6e36bbebc75e0c57a310efb7f1548a6d17cb673430a423966053faba83604051610a8391906123c2565b60405180910390a2505050565b5f8073ffffffffffffffffffffffffffffffffffffffff168273ffffffffffffffffffffffffffffffffffffffff1603610aff576040517f08c379a0000000000000000000000000000000000000000000000000000000008152600401610af690612c71565b60405180910390fd5b60035f8373ffffffffffffffffffffffffffffffffffffffff1673ffffffffffffffffffffffffffffffffffffffff1681526020019081526020015f20549050919050565b610b4d82611676565b610b8c576040517f08c379a0000000000000000000000000000000000000000000000000000000008152600401610b8390612be3565b60405180910390fd5b5f60065f8481526020019081526020015f20905081816004019080519060200190610bb8929190611ee4565b50827fbf3a55dceead868ecfeb95b46ad3cfb12302aa8470df6647390c2913ac14f80f83604051610be99190612c8f565b60405180910390a2505050565b5f855111610c39576040517f08c379a0000000000000000000000000000000000000000000000000000000008152600401610c3090612cf9565b60405180910390fd5b5f845111610c7c576040517f08c379a0000000000000000000000000000000000000000000000000000000008152600401610c7390612d61565b60405180910390fd5b5f600754905060075f815480929190610c9490612dac565b91905055505f60065f8381526020019081526020015f20905086815f019081610cbd9190612f90565b5085816001019081610ccf9190612f90565b5084816002018190555083816003019081610cea9190612f90565b5082816004019080519060200190610d03929190611ee4565b50610d0e33836116b6565b817fc0136e698521b2b54232c22cf5019bdacfde56c9541d8e0466ff06069775ead88888604051610d4092919061305f565b60405180910390a250505050505050565b610d5a82611676565b610d99576040517f08c379a0000000000000000000000000000000000000000000000000000000008152600401610d9090612be3565b60405180910390fd5b5f60065f8481526020019081526020015f20905081815f019081610dbd9190612f90565b50827f20b797ff93c2ad080dae49244cca0c87f114be76fbc61176d9907bd2cf66086283604051610dee9190612098565b60405180910390a2505050565b606060018054610e0a90612957565b80601f0160208091040260200160405190810160405280929190818152602001828054610e3690612957565b8015610e815780601f10610e5857610100808354040283529160200191610e81565b820191905f5260205f20905b815481529060010190602001808311610e6457829003601f168201915b5050505050905090565b610e9d610e96611200565b83836116d3565b5050565b610eaa82611676565b610ee9576040517f08c379a0000000000000000000000000000000000000000000000000000000008152600401610ee090612be3565b60405180910390fd5b5f60065f8481526020019081526020015f20905081816003019081610f0e9190612f90565b50827f0d1654a6109e1c833ac2f0f3b5c1277ce26a54678eed03f82b1fad771b20b17183604051610f3f9190612098565b60405180910390a2505050565b610f5d610f57611200565b836112bd565b610f9c576040517f08c379a0000000000000000000000000000000000000000000000000000000008152600401610f9390612b13565b60405180910390fd5b610fa88484848461183a565b50505050565b6060610fb9826111b5565b5f610fc2611896565b90505f815111610fe05760405180602001604052805f81525061100b565b80610fea846118ac565b604051602001610ffb9291906130ce565b6040516020818303038152906040525b915050919050565b61101c82611676565b61105b576040517f08c379a000000000000000000000000000000000000000000000000000000000815260040161105290612be3565b60405180910390fd5b5f60065f8481526020019081526020015f209050818160010190816110809190612f90565b50827f9b1938358c27badbf167378124bb93e4b729ac8271b961db0a70f322eed2f4f5836040516110b19190612098565b60405180910390a2505050565b5f60055f8473ffffffffffffffffffffffffffffffffffffffff1673ffffffffffffffffffffffffffffffffffffffff1681526020019081526020015f205f8373ffffffffffffffffffffffffffffffffffffffff1673ffffffffffffffffffffffffffffffffffffffff1681526020019081526020015f205f9054906101000a900460ff16905092915050565b5f7f01ffc9a7000000000000000000000000000000000000000000000000000000007bffffffffffffffffffffffffffffffffffffffffffffffffffffffff1916827bffffffffffffffffffffffffffffffffffffffffffffffffffffffff1916149050919050565b6111be81611676565b6111fd576040517f08c379a00000000000000000000000000000000000000000000000000000000081526004016111f490612b7b565b60405180910390fd5b50565b5f33905090565b8160045f8381526020019081526020015f205f6101000a81548173ffffffffffffffffffffffffffffffffffffffff021916908373ffffffffffffffffffffffffffffffffffffffff160217905550808273ffffffffffffffffffffffffffffffffffffffff166112778361096a565b73ffffffffffffffffffffffffffffffffffffffff167f8c5be1e5ebec7d5bd14f71427d1e84f3dd0314c0f7b2291e5b200ac8c7c3b92560405160405180910390a45050565b5f806112c88361096a565b90508073ffffffffffffffffffffffffffffffffffffffff168473ffffffffffffffffffffffffffffffffffffffff16148061130a575061130981856110be565b5b8061134857508373ffffffffffffffffffffffffffffffffffffffff1661133084610562565b73ffffffffffffffffffffffffffffffffffffffff16145b91505092915050565b8273ffffffffffffffffffffffffffffffffffffffff166113718261096a565b73ffffffffffffffffffffffffffffffffffffffff16146113c7576040517f08c379a00000000000000000000000000000000000000000000000000000000081526004016113be90613161565b60405180910390fd5b5f73ffffffffffffffffffffffffffffffffffffffff168273ffffffffffffffffffffffffffffffffffffffff1603611435576040517f08c379a000000000000000000000000000000000000000000000000000000000815260040161142c906131ef565b60405180910390fd5b6114428383836001611976565b8273ffffffffffffffffffffffffffffffffffffffff166114628261096a565b73ffffffffffffffffffffffffffffffffffffffff16146114b8576040517f08c379a00000000000000000000000000000000000000000000000000000000081526004016114af90613161565b60405180910390fd5b60045f8281526020019081526020015f205f6101000a81549073ffffffffffffffffffffffffffffffffffffffff0219169055600160035f8573ffffffffffffffffffffffffffffffffffffffff1673ffffffffffffffffffffffffffffffffffffffff1681526020019081526020015f205f8282540392505081905550600160035f8473ffffffffffffffffffffffffffffffffffffffff1673ffffffffffffffffffffffffffffffffffffffff1681526020019081526020015f205f82825401925050819055508160025f8381526020019081526020015f205f6101000a81548173ffffffffffffffffffffffffffffffffffffffff021916908373ffffffffffffffffffffffffffffffffffffffff160217905550808273ffffffffffffffffffffffffffffffffffffffff168473ffffffffffffffffffffffffffffffffffffffff167fddf252ad1be2c89b69c2b068fc378daa952ba7f163c4a11628f55a4df523b3ef60405160405180910390a4611638838383600161197c565b505050565b5f60025f8381526020019081526020015f205f9054906101000a900473ffffffffffffffffffffffffffffffffffffffff169050919050565b5f8073ffffffffffffffffffffffffffffffffffffffff166116978361163d565b73ffffffffffffffffffffffffffffffffffffffff1614159050919050565b6116cf828260405180602001604052805f815250611982565b5050565b8173ffffffffffffffffffffffffffffffffffffffff168373ffffffffffffffffffffffffffffffffffffffff1603611741576040517f08c379a000000000000000000000000000000000000000000000000000000000815260040161173890613257565b60405180910390fd5b8060055f8573ffffffffffffffffffffffffffffffffffffffff1673ffffffffffffffffffffffffffffffffffffffff1681526020019081526020015f205f8473ffffffffffffffffffffffffffffffffffffffff1673ffffffffffffffffffffffffffffffffffffffff1681526020019081526020015f205f6101000a81548160ff0219169083151502179055508173ffffffffffffffffffffffffffffffffffffffff168373ffffffffffffffffffffffffffffffffffffffff167f17307eab39ab6107e8899845ad3d59bd9653f200f220920489ca2b5937696c318360405161182d9190611ff5565b60405180910390a3505050565b611845848484611351565b611851848484846119dc565b611890576040517f08c379a0000000000000000000000000000000000000000000000000000000008152600401611887906132e5565b60405180910390fd5b50505050565b606060405180602001604052805f815250905090565b60605f60016118ba84611b5e565b0190505f8167ffffffffffffffff8111156118d8576118d76123df565b5b6040519080825280601f01601f19166020018201604052801561190a5781602001600182028036833780820191505090505b5090505f82602001820190505b60011561196b578080600190039150507f3031323334353637383961626364656600000000000000000000000000000000600a86061a8153600a85816119605761195f613303565b5b0494505f8503611917575b819350505050919050565b50505050565b50505050565b61198c8383611caf565b6119985f8484846119dc565b6119d7576040517f08c379a00000000000000000000000000000000000000000000000000000000081526004016119ce906132e5565b60405180910390fd5b505050565b5f6119fc8473ffffffffffffffffffffffffffffffffffffffff16611ec2565b15611b51578373ffffffffffffffffffffffffffffffffffffffff1663150b7a02611a25611200565b8786866040518563ffffffff1660e01b8152600401611a479493929190613382565b6020604051808303815f875af1925050508015611a8257506040513d601f19601f82011682018060405250810190611a7f91906133e0565b60015b611b01573d805f8114611ab0576040519150601f19603f3d011682016040523d82523d5f602084013e611ab5565b606091505b505f815103611af9576040517f08c379a0000000000000000000000000000000000000000000000000000000008152600401611af0906132e5565b60405180910390fd5b805181602001fd5b63150b7a0260e01b7bffffffffffffffffffffffffffffffffffffffffffffffffffffffff1916817bffffffffffffffffffffffffffffffffffffffffffffffffffffffff191614915050611b56565b600190505b949350505050565b5f805f90507a184f03e93ff9f4daa797ed6e38ed64bf6a1f0100000000000000008310611bba577a184f03e93ff9f4daa797ed6e38ed64bf6a1f0100000000000000008381611bb057611baf613303565b5b0492506040810190505b6d04ee2d6d415b85acef81000000008310611bf7576d04ee2d6d415b85acef81000000008381611bed57611bec613303565b5b0492506020810190505b662386f26fc100008310611c2657662386f26fc100008381611c1c57611c1b613303565b5b0492506010810190505b6305f5e1008310611c4f576305f5e1008381611c4557611c44613303565b5b0492506008810190505b6127108310611c74576127108381611c6a57611c69613303565b5b0492506004810190505b60648310611c975760648381611c8d57611c8c613303565b5b0492506002810190505b600a8310611ca6576001810190505b80915050919050565b5f73ffffffffffffffffffffffffffffffffffffffff168273ffffffffffffffffffffffffffffffffffffffff1603611d1d576040517f08c379a0000000000000000000000000000000000000000000000000000000008152600401611d1490613455565b60405180910390fd5b611d2681611676565b15611d66576040517f08c379a0000000000000000000000000000000000000000000000000000000008152600401611d5d906134bd565b60405180910390fd5b611d735f83836001611976565b611d7c81611676565b15611dbc576040517f08c379a0000000000000000000000000000000000000000000000000000000008152600401611db3906134bd565b60405180910390fd5b600160035f8473ffffffffffffffffffffffffffffffffffffffff1673ffffffffffffffffffffffffffffffffffffffff1681526020019081526020015f205f82825401925050819055508160025f8381526020019081526020015f205f6101000a81548173ffffffffffffffffffffffffffffffffffffffff021916908373ffffffffffffffffffffffffffffffffffffffff160217905550808273ffffffffffffffffffffffffffffffffffffffff165f73ffffffffffffffffffffffffffffffffffffffff167fddf252ad1be2c89b69c2b068fc378daa952ba7f163c4a11628f55a4df523b3ef60405160405180910390a4611ebe5f8383600161197c565b5050565b5f808273ffffffffffffffffffffffffffffffffffffffff163b119050919050565b828054828255905f5260205f20908101928215611f1e579160200282015b82811115611f1d578251825591602001919060010190611f02565b5b509050611f2b9190611f2f565b5090565b5b80821115611f46575f815f905550600101611f30565b5090565b5f604051905090565b5f80fd5b5f80fd5b5f7fffffffff0000000000000000000000000000000000000000000000000000000082169050919050565b611f8f81611f5b565b8114611f99575f80fd5b50565b5f81359050611faa81611f86565b92915050565b5f60208284031215611fc557611fc4611f53565b5b5f611fd284828501611f9c565b91505092915050565b5f8115159050919050565b611fef81611fdb565b82525050565b5f6020820190506120085f830184611fe6565b92915050565b5f81519050919050565b5f82825260208201905092915050565b5f5b8381101561204557808201518184015260208101905061202a565b5f8484015250505050565b5f601f19601f8301169050919050565b5f61206a8261200e565b6120748185612018565b9350612084818560208601612028565b61208d81612050565b840191505092915050565b5f6020820190508181035f8301526120b08184612060565b905092915050565b5f819050919050565b6120ca816120b8565b81146120d4575f80fd5b50565b5f813590506120e5816120c1565b92915050565b5f60208284031215612100576120ff611f53565b5b5f61210d848285016120d7565b91505092915050565b5f73ffffffffffffffffffffffffffffffffffffffff82169050919050565b5f61213f82612116565b9050919050565b61214f81612135565b82525050565b5f6020820190506121685f830184612146565b92915050565b61217781612135565b8114612181575f80fd5b50565b5f813590506121928161216e565b92915050565b5f80604083850312156121ae576121ad611f53565b5b5f6121bb85828601612184565b92505060206121cc858286016120d7565b9150509250929050565b6121df816120b8565b82525050565b5f81519050919050565b5f82825260208201905092915050565b5f819050602082019050919050565b612217816120b8565b82525050565b5f612228838361220e565b60208301905092915050565b5f602082019050919050565b5f61224a826121e5565b61225481856121ef565b935061225f836121ff565b805f5b8381101561228f578151612276888261221d565b975061228183612234565b925050600181019050612262565b5085935050505092915050565b5f60a0820190508181035f8301526122b48188612060565b905081810360208301526122c88187612060565b90506122d760408301866121d6565b81810360608301526122e98185612060565b905081810360808301526122fd8184612240565b90509695505050505050565b5f805f606084860312156123205761231f611f53565b5b5f61232d86828701612184565b935050602061233e86828701612184565b925050604061234f868287016120d7565b9150509250925092565b5f806040838503121561236f5761236e611f53565b5b5f61237c858286016120d7565b925050602061238d858286016120d7565b9150509250929050565b5f602082840312156123ac576123ab611f53565b5b5f6123b984828501612184565b91505092915050565b5f6020820190506123d55f8301846121d6565b92915050565b5f80fd5b7f4e487b71000000000000000000000000000000000000000000000000000000005f52604160045260245ffd5b61241582612050565b810181811067ffffffffffffffff82111715612434576124336123df565b5b80604052505050565b5f612446611f4a565b9050612452828261240c565b919050565b5f67ffffffffffffffff821115612471576124706123df565b5b602082029050602081019050919050565b5f80fd5b5f61249861249384612457565b61243d565b905080838252602082019050602084028301858111156124bb576124ba612482565b5b835b818110156124e457806124d088826120d7565b8452602084019350506020810190506124bd565b5050509392505050565b5f82601f830112612502576125016123db565b5b8135612512848260208601612486565b91505092915050565b5f806040838503121561253157612530611f53565b5b5f61253e858286016120d7565b925050602083013567ffffffffffffffff81111561255f5761255e611f57565b5b61256b858286016124ee565b9150509250929050565b5f80fd5b5f67ffffffffffffffff821115612593576125926123df565b5b61259c82612050565b9050602081019050919050565b828183375f83830152505050565b5f6125c96125c484612579565b61243d565b9050828152602081018484840111156125e5576125e4612575565b5b6125f08482856125a9565b509392505050565b5f82601f83011261260c5761260b6123db565b5b813561261c8482602086016125b7565b91505092915050565b5f805f805f60a0868803121561263e5761263d611f53565b5b5f86013567ffffffffffffffff81111561265b5761265a611f57565b5b612667888289016125f8565b955050602086013567ffffffffffffffff81111561268857612687611f57565b5b612694888289016125f8565b94505060406126a5888289016120d7565b935050606086013567ffffffffffffffff8111156126c6576126c5611f57565b5b6126d2888289016125f8565b925050608086013567ffffffffffffffff8111156126f3576126f2611f57565b5b6126ff888289016124ee565b9150509295509295909350565b5f806040838503121561272257612721611f53565b5b5f61272f858286016120d7565b925050602083013567ffffffffffffffff8111156127505761274f611f57565b5b61275c858286016125f8565b9150509250929050565b61276f81611fdb565b8114612779575f80fd5b50565b5f8135905061278a81612766565b92915050565b5f80604083850312156127a6576127a5611f53565b5b5f6127b385828601612184565b92505060206127c48582860161277c565b9150509250929050565b5f67ffffffffffffffff8211156127e8576127e76123df565b5b6127f182612050565b9050602081019050919050565b5f61281061280b846127ce565b61243d565b90508281526020810184848401111561282c5761282b612575565b5b6128378482856125a9565b509392505050565b5f82601f830112612853576128526123db565b5b81356128638482602086016127fe565b91505092915050565b5f805f806080858703121561288457612883611f53565b5b5f61289187828801612184565b94505060206128a287828801612184565b93505060406128b3878288016120d7565b925050606085013567ffffffffffffffff8111156128d4576128d3611f57565b5b6128e08782880161283f565b91505092959194509250565b5f806040838503121561290257612901611f53565b5b5f61290f85828601612184565b925050602061292085828601612184565b9150509250929050565b7f4e487b71000000000000000000000000000000000000000000000000000000005f52602260045260245ffd5b5f600282049050600182168061296e57607f821691505b6020821081036129815761298061292a565b5b50919050565b7f4552433732313a20617070726f76616c20746f2063757272656e74206f776e655f8201527f7200000000000000000000000000000000000000000000000000000000000000602082015250565b5f6129e1602183612018565b91506129ec82612987565b604082019050919050565b5f6020820190508181035f830152612a0e816129d5565b9050919050565b7f4552433732313a20617070726f76652063616c6c6572206973206e6f7420746f5f8201527f6b656e206f776e6572206f7220617070726f76656420666f7220616c6c000000602082015250565b5f612a6f603d83612018565b9150612a7a82612a15565b604082019050919050565b5f6020820190508181035f830152612a9c81612a63565b9050919050565b7f4552433732313a2063616c6c6572206973206e6f7420746f6b656e206f776e655f8201527f72206f7220617070726f76656400000000000000000000000000000000000000602082015250565b5f612afd602d83612018565b9150612b0882612aa3565b604082019050919050565b5f6020820190508181035f830152612b2a81612af1565b9050919050565b7f4552433732313a20696e76616c696420746f6b656e20494400000000000000005f82015250565b5f612b65601883612018565b9150612b7082612b31565b602082019050919050565b5f6020820190508181035f830152612b9281612b59565b9050919050565b7f546f6b656e20494420646f6573206e6f742065786973740000000000000000005f82015250565b5f612bcd601783612018565b9150612bd882612b99565b602082019050919050565b5f6020820190508181035f830152612bfa81612bc1565b9050919050565b7f4552433732313a2061646472657373207a65726f206973206e6f7420612076615f8201527f6c6964206f776e65720000000000000000000000000000000000000000000000602082015250565b5f612c5b602983612018565b9150612c6682612c01565b604082019050919050565b5f6020820190508181035f830152612c8881612c4f565b9050919050565b5f6020820190508181035f830152612ca78184612240565b905092915050565b7f41646d696e20557365726e616d652063616e6e6f7420626520656d70747900005f82015250565b5f612ce3601e83612018565b9150612cee82612caf565b602082019050919050565b5f6020820190508181035f830152612d1081612cd7565b9050919050565b7f557365726e616d652063616e6e6f7420626520656d70747900000000000000005f82015250565b5f612d4b601883612018565b9150612d5682612d17565b602082019050919050565b5f6020820190508181035f830152612d7881612d3f565b9050919050565b7f4e487b71000000000000000000000000000000000000000000000000000000005f52601160045260245ffd5b5f612db6826120b8565b91507fffffffffffffffffffffffffffffffffffffffffffffffffffffffffffffffff8203612de857612de7612d7f565b5b600182019050919050565b5f819050815f5260205f209050919050565b5f6020601f8301049050919050565b5f82821b905092915050565b5f60088302612e4f7fffffffffffffffffffffffffffffffffffffffffffffffffffffffffffffffff82612e14565b612e598683612e14565b95508019841693508086168417925050509392505050565b5f819050919050565b5f612e94612e8f612e8a846120b8565b612e71565b6120b8565b9050919050565b5f819050919050565b612ead83612e7a565b612ec1612eb982612e9b565b848454612e20565b825550505050565b5f90565b612ed5612ec9565b612ee0818484612ea4565b505050565b5b81811015612f0357612ef85f82612ecd565b600181019050612ee6565b5050565b601f821115612f4857612f1981612df3565b612f2284612e05565b81016020851015612f31578190505b612f45612f3d85612e05565b830182612ee5565b50505b505050565b5f82821c905092915050565b5f612f685f1984600802612f4d565b1980831691505092915050565b5f612f808383612f59565b9150826002028217905092915050565b612f998261200e565b67ffffffffffffffff811115612fb257612fb16123df565b5b612fbc8254612957565b612fc7828285612f07565b5f60209050601f831160018114612ff8575f8415612fe6578287015190505b612ff08582612f75565b865550613057565b601f19841661300686612df3565b5f5b8281101561302d57848901518255600182019150602085019450602081019050613008565b8683101561304a5784890151613046601f891682612f59565b8355505b6001600288020188555050505b505050505050565b5f6040820190508181035f8301526130778185612060565b9050818103602083015261308b8184612060565b90509392505050565b5f81905092915050565b5f6130a88261200e565b6130b28185613094565b93506130c2818560208601612028565b80840191505092915050565b5f6130d9828561309e565b91506130e5828461309e565b91508190509392505050565b7f4552433732313a207472616e736665722066726f6d20696e636f7272656374205f8201527f6f776e6572000000000000000000000000000000000000000000000000000000602082015250565b5f61314b602583612018565b9150613156826130f1565b604082019050919050565b5f6020820190508181035f8301526131788161313f565b9050919050565b7f4552433732313a207472616e7366657220746f20746865207a65726f206164645f8201527f7265737300000000000000000000000000000000000000000000000000000000602082015250565b5f6131d9602483612018565b91506131e48261317f565b604082019050919050565b5f6020820190508181035f830152613206816131cd565b9050919050565b7f4552433732313a20617070726f766520746f2063616c6c6572000000000000005f82015250565b5f613241601983612018565b915061324c8261320d565b602082019050919050565b5f6020820190508181035f83015261326e81613235565b9050919050565b7f4552433732313a207472616e7366657220746f206e6f6e2045524337323152655f8201527f63656976657220696d706c656d656e7465720000000000000000000000000000602082015250565b5f6132cf603283612018565b91506132da82613275565b604082019050919050565b5f6020820190508181035f8301526132fc816132c3565b9050919050565b7f4e487b71000000000000000000000000000000000000000000000000000000005f52601260045260245ffd5b5f81519050919050565b5f82825260208201905092915050565b5f61335482613330565b61335e818561333a565b935061336e818560208601612028565b61337781612050565b840191505092915050565b5f6080820190506133955f830187612146565b6133a26020830186612146565b6133af60408301856121d6565b81810360608301526133c1818461334a565b905095945050505050565b5f815190506133da81611f86565b92915050565b5f602082840312156133f5576133f4611f53565b5b5f613402848285016133cc565b91505092915050565b7f4552433732313a206d696e7420746f20746865207a65726f20616464726573735f82015250565b5f61343f602083612018565b915061344a8261340b565b602082019050919050565b5f6020820190508181035f83015261346c81613433565b9050919050565b7f4552433732313a20746f6b656e20616c7265616479206d696e746564000000005f82015250565b5f6134a7601c83612018565b91506134b282613473565b602082019050919050565b5f6020820190508181035f8301526134d48161349b565b905091905056fea26469706673582212204dab819617ddf2efdc071e2b0bd380a3d75e35c105db3d977f6337eb80849a2a64736f6c63430008140033",
  "immutableReferences": {},
  "source": "// SPDX-License-Identifier: MIT\r\npragma solidity ^0.8.0;\r\n\r\nimport \"@openzeppelin/contracts/token/ERC721/ERC721.sol\";\r\n\r\ncontract UserDataContract is ERC721 {\r\n    struct UserData {\r\n        string adminUsername;\r\n        string username;\r\n        uint256 totalDays;\r\n        string dailyPlan;\r\n        uint256[] dates;\r\n    }\r\n\r\n    mapping(uint256 => UserData) private userDataMap;\r\n    uint256 private tokenIdCounter;\r\n\r\n    constructor() ERC721(\"UserDataToken\", \"UDT\") {}\r\n\r\n    event UserRegistered(\r\n        uint256 indexed tokenId,\r\n        string adminUsername,\r\n        string username\r\n    );\r\n    event DailyPlanUpdated(uint256 indexed tokenId, string newDailyPlan);\r\n    event AdminUsernameUpdated(\r\n        uint256 indexed tokenId,\r\n        string newAdminUsername\r\n    );\r\n    event UsernameUpdated(uint256 indexed tokenId, string newUsername);\r\n    event TotalDaysUpdated(uint256 indexed tokenId, uint256 newTotalDays);\r\n    event DatesUpdated(uint256 indexed tokenId, uint256[] newDates);\r\n\r\n    function registerUser(\r\n        string memory _adminUsername,\r\n        string memory _username,\r\n        uint256 _totalDays,\r\n        string memory _dailyPlan,\r\n        uint256[] memory _dates\r\n    ) external {\r\n        require(\r\n            bytes(_adminUsername).length > 0,\r\n            \"Admin Username cannot be empty\"\r\n        );\r\n        require(bytes(_username).length > 0, \"Username cannot be empty\");\r\n\r\n        uint256 newTokenId = tokenIdCounter;\r\n        tokenIdCounter++;\r\n\r\n        UserData storage userData = userDataMap[newTokenId];\r\n\r\n        userData.adminUsername = _adminUsername;\r\n        userData.username = _username;\r\n        userData.totalDays = _totalDays;\r\n        userData.dailyPlan = _dailyPlan;\r\n        userData.dates = _dates;\r\n\r\n        _safeMint(msg.sender, newTokenId);\r\n\r\n        emit UserRegistered(newTokenId, _adminUsername, _username);\r\n    }\r\n\r\n    function updateDailyPlan(\r\n        uint256 _tokenId,\r\n        string memory _dailyPlan\r\n    ) external {\r\n        require(_exists(_tokenId), \"Token ID does not exist\");\r\n        UserData storage userData = userDataMap[_tokenId];\r\n        userData.dailyPlan = _dailyPlan;\r\n        emit DailyPlanUpdated(_tokenId, _dailyPlan);\r\n    }\r\n\r\n    function updateAdminUsername(\r\n        uint256 _tokenId,\r\n        string memory _adminUsername\r\n    ) external {\r\n        require(_exists(_tokenId), \"Token ID does not exist\");\r\n        UserData storage userData = userDataMap[_tokenId];\r\n        userData.adminUsername = _adminUsername;\r\n        emit AdminUsernameUpdated(_tokenId, _adminUsername);\r\n    }\r\n\r\n    function updateUsername(\r\n        uint256 _tokenId,\r\n        string memory _username\r\n    ) external {\r\n        require(_exists(_tokenId), \"Token ID does not exist\");\r\n        UserData storage userData = userDataMap[_tokenId];\r\n        userData.username = _username;\r\n        emit UsernameUpdated(_tokenId, _username);\r\n    }\r\n\r\n    function updateTotalDays(uint256 _tokenId, uint256 _totalDays) external {\r\n        require(_exists(_tokenId), \"Token ID does not exist\");\r\n        UserData storage userData = userDataMap[_tokenId];\r\n        userData.totalDays = _totalDays;\r\n        emit TotalDaysUpdated(_tokenId, _totalDays);\r\n    }\r\n\r\n    function updateDates(uint256 _tokenId, uint256[] memory _dates) external {\r\n        require(_exists(_tokenId), \"Token ID does not exist\");\r\n        UserData storage userData = userDataMap[_tokenId];\r\n        userData.dates = _dates;\r\n        emit DatesUpdated(_tokenId, _dates);\r\n    }\r\n\r\n    function getUserData(\r\n        uint256 _tokenId\r\n    )\r\n        external\r\n        view\r\n        returns (\r\n            string memory adminUsername,\r\n            string memory username,\r\n            uint256 totalDays,\r\n            string memory dailyPlan,\r\n            uint256[] memory dates\r\n        )\r\n    {\r\n        UserData storage userData = userDataMap[_tokenId];\r\n        return (\r\n            userData.adminUsername,\r\n            userData.username,\r\n            userData.totalDays,\r\n            userData.dailyPlan,\r\n            userData.dates\r\n        );\r\n    }\r\n}\r\n",
  "sourcePath": "C:\\Users\\Yash kanjariya\\Desktop\\Projects\\AOH_BoiledRice\\web3\\contracts\\userdata.sol",
  "compiler": {
    "name": "solc",
    "version": "0.8.20+commit.a1b79de6.Emscripten.clang"
  },
  "schemaVersion": "3.4.16",
  "updatedAt": "2024-03-30T20:44:07.933Z",
  "devdoc": {
    "events": {
      "Approval(address,address,uint256)": {
        "details": "Emitted when `owner` enables `approved` to manage the `tokenId` token."
      },
      "ApprovalForAll(address,address,bool)": {
        "details": "Emitted when `owner` enables or disables (`approved`) `operator` to manage all of its assets."
      },
      "Transfer(address,address,uint256)": {
        "details": "Emitted when `tokenId` token is transferred from `from` to `to`."
      }
    },
    "kind": "dev",
    "methods": {
      "approve(address,uint256)": {
        "details": "See {IERC721-approve}."
      },
      "balanceOf(address)": {
        "details": "See {IERC721-balanceOf}."
      },
      "getApproved(uint256)": {
        "details": "See {IERC721-getApproved}."
      },
      "isApprovedForAll(address,address)": {
        "details": "See {IERC721-isApprovedForAll}."
      },
      "name()": {
        "details": "See {IERC721Metadata-name}."
      },
      "ownerOf(uint256)": {
        "details": "See {IERC721-ownerOf}."
      },
      "safeTransferFrom(address,address,uint256)": {
        "details": "See {IERC721-safeTransferFrom}."
      },
      "safeTransferFrom(address,address,uint256,bytes)": {
        "details": "See {IERC721-safeTransferFrom}."
      },
      "setApprovalForAll(address,bool)": {
        "details": "See {IERC721-setApprovalForAll}."
      },
      "supportsInterface(bytes4)": {
        "details": "See {IERC165-supportsInterface}."
      },
      "symbol()": {
        "details": "See {IERC721Metadata-symbol}."
      },
      "tokenURI(uint256)": {
        "details": "See {IERC721Metadata-tokenURI}."
      },
      "transferFrom(address,address,uint256)": {
        "details": "See {IERC721-transferFrom}."
      }
    },
    "version": 1
  },
  "userdoc": {
    "kind": "user",
    "methods": {},
    "version": 1
  }
}