{
  "contractName": "UserDataContract",
  "abi": [
    {
      "inputs": [],
      "stateMutability": "nonpayable",
      "type": "constructor"
    },
    {
      "anonymous": false,
      "inputs": [
        {
          "indexed": true,
          "internalType": "address",
          "name": "owner",
          "type": "address"
        },
        {
          "indexed": true,
          "internalType": "address",
          "name": "approved",
          "type": "address"
        },
        {
          "indexed": true,
          "internalType": "uint256",
          "name": "tokenId",
          "type": "uint256"
        }
      ],
      "name": "Approval",
      "type": "event"
    },
    {
      "anonymous": false,
      "inputs": [
        {
          "indexed": true,
          "internalType": "address",
          "name": "owner",
          "type": "address"
        },
        {
          "indexed": true,
          "internalType": "address",
          "name": "operator",
          "type": "address"
        },
        {
          "indexed": false,
          "internalType": "bool",
          "name": "approved",
          "type": "bool"
        }
      ],
      "name": "ApprovalForAll",
      "type": "event"
    },
    {
      "anonymous": false,
      "inputs": [
        {
          "indexed": true,
          "internalType": "uint256",
          "name": "tokenId",
          "type": "uint256"
        },
        {
          "indexed": false,
          "internalType": "string",
          "name": "badgeName",
          "type": "string"
        }
      ],
      "name": "BadgeEarned",
      "type": "event"
    },
    {
      "anonymous": false,
      "inputs": [
        {
          "indexed": true,
          "internalType": "uint256",
          "name": "tokenId",
          "type": "uint256"
        },
        {
          "indexed": false,
          "internalType": "string",
          "name": "newDailyPlan",
          "type": "string"
        }
      ],
      "name": "DailyPlanUpdated",
      "type": "event"
    },
    {
      "anonymous": false,
      "inputs": [
        {
          "indexed": true,
          "internalType": "uint256",
          "name": "tokenId",
          "type": "uint256"
        },
        {
          "indexed": false,
          "internalType": "string[]",
          "name": "newDates",
          "type": "string[]"
        }
      ],
      "name": "DatesUpdated",
      "type": "event"
    },
    {
      "anonymous": false,
      "inputs": [
        {
          "indexed": true,
          "internalType": "uint256",
          "name": "tokenId",
          "type": "uint256"
        },
        {
          "indexed": false,
          "internalType": "uint256",
          "name": "addedPoints",
          "type": "uint256"
        }
      ],
      "name": "PointsAdded",
      "type": "event"
    },
    {
      "anonymous": false,
      "inputs": [
        {
          "indexed": true,
          "internalType": "uint256",
          "name": "tokenId",
          "type": "uint256"
        },
        {
          "indexed": false,
          "internalType": "uint256",
          "name": "newTotalDays",
          "type": "uint256"
        }
      ],
      "name": "TotalDaysUpdated",
      "type": "event"
    },
    {
      "anonymous": false,
      "inputs": [
        {
          "indexed": true,
          "internalType": "address",
          "name": "from",
          "type": "address"
        },
        {
          "indexed": true,
          "internalType": "address",
          "name": "to",
          "type": "address"
        },
        {
          "indexed": true,
          "internalType": "uint256",
          "name": "tokenId",
          "type": "uint256"
        }
      ],
      "name": "Transfer",
      "type": "event"
    },
    {
      "anonymous": false,
      "inputs": [
        {
          "indexed": true,
          "internalType": "uint256",
          "name": "tokenId",
          "type": "uint256"
        },
        {
          "indexed": false,
          "internalType": "string",
          "name": "username",
          "type": "string"
        }
      ],
      "name": "UserRegistered",
      "type": "event"
    },
    {
      "inputs": [
        {
          "internalType": "address",
          "name": "to",
          "type": "address"
        },
        {
          "internalType": "uint256",
          "name": "tokenId",
          "type": "uint256"
        }
      ],
      "name": "approve",
      "outputs": [],
      "stateMutability": "nonpayable",
      "type": "function"
    },
    {
      "inputs": [
        {
          "internalType": "address",
          "name": "owner",
          "type": "address"
        }
      ],
      "name": "balanceOf",
      "outputs": [
        {
          "internalType": "uint256",
          "name": "",
          "type": "uint256"
        }
      ],
      "stateMutability": "view",
      "type": "function",
      "constant": true
    },
    {
      "inputs": [
        {
          "internalType": "uint256",
          "name": "tokenId",
          "type": "uint256"
        }
      ],
      "name": "getApproved",
      "outputs": [
        {
          "internalType": "address",
          "name": "",
          "type": "address"
        }
      ],
      "stateMutability": "view",
      "type": "function",
      "constant": true
    },
    {
      "inputs": [
        {
          "internalType": "address",
          "name": "owner",
          "type": "address"
        },
        {
          "internalType": "address",
          "name": "operator",
          "type": "address"
        }
      ],
      "name": "isApprovedForAll",
      "outputs": [
        {
          "internalType": "bool",
          "name": "",
          "type": "bool"
        }
      ],
      "stateMutability": "view",
      "type": "function",
      "constant": true
    },
    {
      "inputs": [],
      "name": "name",
      "outputs": [
        {
          "internalType": "string",
          "name": "",
          "type": "string"
        }
      ],
      "stateMutability": "view",
      "type": "function",
      "constant": true
    },
    {
      "inputs": [
        {
          "internalType": "uint256",
          "name": "tokenId",
          "type": "uint256"
        }
      ],
      "name": "ownerOf",
      "outputs": [
        {
          "internalType": "address",
          "name": "",
          "type": "address"
        }
      ],
      "stateMutability": "view",
      "type": "function",
      "constant": true
    },
    {
      "inputs": [
        {
          "internalType": "address",
          "name": "from",
          "type": "address"
        },
        {
          "internalType": "address",
          "name": "to",
          "type": "address"
        },
        {
          "internalType": "uint256",
          "name": "tokenId",
          "type": "uint256"
        }
      ],
      "name": "safeTransferFrom",
      "outputs": [],
      "stateMutability": "nonpayable",
      "type": "function"
    },
    {
      "inputs": [
        {
          "internalType": "address",
          "name": "from",
          "type": "address"
        },
        {
          "internalType": "address",
          "name": "to",
          "type": "address"
        },
        {
          "internalType": "uint256",
          "name": "tokenId",
          "type": "uint256"
        },
        {
          "internalType": "bytes",
          "name": "_data",
          "type": "bytes"
        }
      ],
      "name": "safeTransferFrom",
      "outputs": [],
      "stateMutability": "nonpayable",
      "type": "function"
    },
    {
      "inputs": [
        {
          "internalType": "address",
          "name": "operator",
          "type": "address"
        },
        {
          "internalType": "bool",
          "name": "approved",
          "type": "bool"
        }
      ],
      "name": "setApprovalForAll",
      "outputs": [],
      "stateMutability": "nonpayable",
      "type": "function"
    },
    {
      "inputs": [
        {
          "internalType": "bytes4",
          "name": "interfaceId",
          "type": "bytes4"
        }
      ],
      "name": "supportsInterface",
      "outputs": [
        {
          "internalType": "bool",
          "name": "",
          "type": "bool"
        }
      ],
      "stateMutability": "view",
      "type": "function",
      "constant": true
    },
    {
      "inputs": [],
      "name": "symbol",
      "outputs": [
        {
          "internalType": "string",
          "name": "",
          "type": "string"
        }
      ],
      "stateMutability": "view",
      "type": "function",
      "constant": true
    },
    {
      "inputs": [
        {
          "internalType": "uint256",
          "name": "tokenId",
          "type": "uint256"
        }
      ],
      "name": "tokenURI",
      "outputs": [
        {
          "internalType": "string",
          "name": "",
          "type": "string"
        }
      ],
      "stateMutability": "view",
      "type": "function",
      "constant": true
    },
    {
      "inputs": [
        {
          "internalType": "address",
          "name": "from",
          "type": "address"
        },
        {
          "internalType": "address",
          "name": "to",
          "type": "address"
        },
        {
          "internalType": "uint256",
          "name": "tokenId",
          "type": "uint256"
        }
      ],
      "name": "transferFrom",
      "outputs": [],
      "stateMutability": "nonpayable",
      "type": "function"
    },
    {
      "inputs": [
        {
          "internalType": "string",
          "name": "_username",
          "type": "string"
        },
        {
          "internalType": "string",
          "name": "_email",
          "type": "string"
        },
        {
          "internalType": "string",
          "name": "_location",
          "type": "string"
        },
        {
          "internalType": "uint256",
          "name": "_age",
          "type": "uint256"
        },
        {
          "internalType": "string",
          "name": "_dailyPlan",
          "type": "string"
        }
      ],
      "name": "registerUser",
      "outputs": [],
      "stateMutability": "nonpayable",
      "type": "function"
    },
    {
      "inputs": [
        {
          "internalType": "uint256",
          "name": "_tokenId",
          "type": "uint256"
        },
        {
          "internalType": "string",
          "name": "_dailyPlan",
          "type": "string"
        }
      ],
      "name": "updateDailyPlan",
      "outputs": [],
      "stateMutability": "nonpayable",
      "type": "function"
    },
    {
      "inputs": [
        {
          "internalType": "uint256",
          "name": "_tokenId",
          "type": "uint256"
        },
        {
          "internalType": "uint256",
          "name": "_totalDays",
          "type": "uint256"
        }
      ],
      "name": "updateTotalDays",
      "outputs": [],
      "stateMutability": "nonpayable",
      "type": "function"
    },
    {
      "inputs": [
        {
          "internalType": "uint256",
          "name": "_tokenId",
          "type": "uint256"
        },
        {
          "internalType": "string[]",
          "name": "_dates",
          "type": "string[]"
        }
      ],
      "name": "updateDates",
      "outputs": [],
      "stateMutability": "nonpayable",
      "type": "function"
    },
    {
      "inputs": [
        {
          "internalType": "uint256",
          "name": "_tokenId",
          "type": "uint256"
        },
        {
          "internalType": "uint256",
          "name": "_points",
          "type": "uint256"
        }
      ],
      "name": "addPoints",
      "outputs": [],
      "stateMutability": "nonpayable",
      "type": "function"
    },
    {
      "inputs": [
        {
          "internalType": "uint256",
          "name": "_tokenId",
          "type": "uint256"
        },
        {
          "internalType": "string",
          "name": "_badgeName",
          "type": "string"
        }
      ],
      "name": "addBadge",
      "outputs": [],
      "stateMutability": "nonpayable",
      "type": "function"
    },
    {
      "inputs": [
        {
          "internalType": "uint256",
          "name": "_tokenId",
          "type": "uint256"
        }
      ],
      "name": "getUserData",
      "outputs": [
        {
          "internalType": "string",
          "name": "username",
          "type": "string"
        },
        {
          "internalType": "string",
          "name": "email",
          "type": "string"
        },
        {
          "internalType": "string",
          "name": "location",
          "type": "string"
        },
        {
          "internalType": "uint256",
          "name": "age",
          "type": "uint256"
        },
        {
          "internalType": "string",
          "name": "dailyPlan",
          "type": "string"
        },
        {
          "internalType": "uint256",
          "name": "totalDays",
          "type": "uint256"
        },
        {
          "internalType": "string[]",
          "name": "dates",
          "type": "string[]"
        },
        {
          "internalType": "uint256",
          "name": "leaderboardRank",
          "type": "uint256"
        },
        {
          "internalType": "uint256",
          "name": "points",
          "type": "uint256"
        },
        {
          "internalType": "string[]",
          "name": "badges",
          "type": "string[]"
        }
      ],
      "stateMutability": "view",
      "type": "function",
      "constant": true
    }
  ],
  "bytecode": "0x60806040523480156200001157600080fd5b506040518060400160405280600d81526020017f5573657244617461546f6b656e000000000000000000000000000000000000008152506040518060400160405280600381526020017f5544540000000000000000000000000000000000000000000000000000000000815250816000908051906020019062000096929190620000b8565b508060019080519060200190620000af929190620000b8565b505050620001cd565b828054620000c69062000168565b90600052602060002090601f016020900481019282620000ea576000855562000136565b82601f106200010557805160ff191683800117855562000136565b8280016001018555821562000136579182015b828111156200013557825182559160200191906001019062000118565b5b50905062000145919062000149565b5090565b5b80821115620001645760008160009055506001016200014a565b5090565b600060028204905060018216806200018157607f821691505b602082108114156200019857620001976200019e565b5b50919050565b7f4e487b7100000000000000000000000000000000000000000000000000000000600052602260045260246000fd5b6138be80620001dd6000396000f3fe608060405234801561001057600080fd5b506004361061012c5760003560e01c806370a08231116100ad578063b88d4fde11610071578063b88d4fde14610346578063c761ba3414610362578063c87b56dd1461037e578063e985e9c5146103ae578063fe4651a0146103de5761012c565b806370a08231146102a457806395d89b41146102d4578063a22cb465146102f2578063b0cace061461030e578063b85a64751461032a5761012c565b806323b872dd116100f457806323b872dd1461020457806342842e0e146102205780636352211e1461023c57806366dfc1ac1461026c5780636d9c72d9146102885761012c565b806301ffc9a71461013157806306fdde0314610161578063081812fc1461017f578063095ea7b3146101af5780631fef580c146101cb575b600080fd5b61014b60048036038101906101469190612603565b6103fa565b604051610158919061309a565b60405180910390f35b6101696104dc565b60405161017691906130b5565b60405180910390f35b6101996004803603810190610194919061272c565b61056e565b6040516101a69190613011565b60405180910390f35b6101c960048036038101906101c491906125c7565b6105f3565b005b6101e560048036038101906101e0919061272c565b61070b565b6040516101fb9a999897969594939291906130d7565b60405180910390f35b61021e600480360381019061021991906124c1565b610b58565b005b61023a600480360381019061023591906124c1565b610bb8565b005b6102566004803603810190610251919061272c565b610bd8565b6040516102639190613011565b60405180910390f35b610286600480360381019061028191906127a9565b610c8a565b005b6102a2600480360381019061029d91906127fd565b610d64565b005b6102be60048036038101906102b9919061245c565b610e09565b6040516102cb91906133dd565b60405180910390f35b6102dc610ec1565b6040516102e991906130b5565b60405180910390f35b61030c6004803603810190610307919061258b565b610f53565b005b61032860048036038101906103239190612655565b610f69565b005b610344600480360381019061033f91906127a9565b611123565b005b610360600480360381019061035b9190612510565b6111d8565b005b61037c60048036038101906103779190612755565b61123a565b005b6103986004803603810190610393919061272c565b6112ef565b6040516103a591906130b5565b60405180910390f35b6103c860048036038101906103c39190612485565b611396565b6040516103d5919061309a565b60405180910390f35b6103f860048036038101906103f391906127fd565b61142a565b005b60007f80ac58cd000000000000000000000000000000000000000000000000000000007bffffffffffffffffffffffffffffffffffffffffffffffffffffffff1916827bffffffffffffffffffffffffffffffffffffffffffffffffffffffff191614806104c557507f5b5e139f000000000000000000000000000000000000000000000000000000007bffffffffffffffffffffffffffffffffffffffffffffffffffffffff1916827bffffffffffffffffffffffffffffffffffffffffffffffffffffffff1916145b806104d557506104d4826114e1565b5b9050919050565b6060600080546104eb906136b3565b80601f0160208091040260200160405190810160405280929190818152602001828054610517906136b3565b80156105645780601f1061053957610100808354040283529160200191610564565b820191906000526020600020905b81548152906001019060200180831161054757829003601f168201915b5050505050905090565b60006105798261154b565b6105b8576040517f08c379a00000000000000000000000000000000000000000000000000000000081526004016105af906132fd565b60405180910390fd5b6004600083815260200190815260200160002060009054906101000a900473ffffffffffffffffffffffffffffffffffffffff169050919050565b60006105fe82610bd8565b90508073ffffffffffffffffffffffffffffffffffffffff168373ffffffffffffffffffffffffffffffffffffffff16141561066f576040517f08c379a00000000000000000000000000000000000000000000000000000000081526004016106669061337d565b60405180910390fd5b8073ffffffffffffffffffffffffffffffffffffffff1661068e6115b7565b73ffffffffffffffffffffffffffffffffffffffff1614806106bd57506106bc816106b76115b7565b611396565b5b6106fc576040517f08c379a00000000000000000000000000000000000000000000000000000000081526004016106f39061327d565b60405180910390fd5b61070683836115bf565b505050565b6060806060600060606000606060008060606000600660008d81526020019081526020016000209050806000018160010182600201836003015484600401856005015486600601876007015488600801548960090189805461076c906136b3565b80601f0160208091040260200160405190810160405280929190818152602001828054610798906136b3565b80156107e55780601f106107ba576101008083540402835291602001916107e5565b820191906000526020600020905b8154815290600101906020018083116107c857829003601f168201915b505050505099508880546107f8906136b3565b80601f0160208091040260200160405190810160405280929190818152602001828054610824906136b3565b80156108715780601f1061084657610100808354040283529160200191610871565b820191906000526020600020905b81548152906001019060200180831161085457829003601f168201915b50505050509850878054610884906136b3565b80601f01602080910402602001604051908101604052809291908181526020018280546108b0906136b3565b80156108fd5780601f106108d2576101008083540402835291602001916108fd565b820191906000526020600020905b8154815290600101906020018083116108e057829003601f168201915b50505050509750858054610910906136b3565b80601f016020809104026020016040519081016040528092919081815260200182805461093c906136b3565b80156109895780601f1061095e57610100808354040283529160200191610989565b820191906000526020600020905b81548152906001019060200180831161096c57829003601f168201915b5050505050955083805480602002602001604051908101604052809291908181526020016000905b82821015610a5d5783829060005260206000200180546109d0906136b3565b80601f01602080910402602001604051908101604052809291908181526020018280546109fc906136b3565b8015610a495780601f10610a1e57610100808354040283529160200191610a49565b820191906000526020600020905b815481529060010190602001808311610a2c57829003601f168201915b5050505050815260200190600101906109b1565b50505050935080805480602002602001604051908101604052809291908181526020016000905b82821015610b30578382906000526020600020018054610aa3906136b3565b80601f0160208091040260200160405190810160405280929190818152602001828054610acf906136b3565b8015610b1c5780601f10610af157610100808354040283529160200191610b1c565b820191906000526020600020905b815481529060010190602001808311610aff57829003601f168201915b505050505081526020019060010190610a84565b5050505090509a509a509a509a509a509a509a509a509a509a50509193959799509193959799565b610b69610b636115b7565b82611678565b610ba8576040517f08c379a0000000000000000000000000000000000000000000000000000000008152600401610b9f9061339d565b60405180910390fd5b610bb3838383611756565b505050565b610bd3838383604051806020016040528060008152506111d8565b505050565b6000806002600084815260200190815260200160002060009054906101000a900473ffffffffffffffffffffffffffffffffffffffff169050600073ffffffffffffffffffffffffffffffffffffffff168173ffffffffffffffffffffffffffffffffffffffff161415610c81576040517f08c379a0000000000000000000000000000000000000000000000000000000008152600401610c78906132bd565b60405180910390fd5b80915050919050565b610c938261154b565b610cd2576040517f08c379a0000000000000000000000000000000000000000000000000000000008152600401610cc99061323d565b60405180910390fd5b60006006600084815260200190815260200160002090508060090182908060018154018082558091505060019003906000526020600020016000909190919091509080519060200190610d26929190612135565b50827fc574827416e566991a9bd9a3ccde39915a6d02a193187e0d7503ef809dc8e7e683604051610d5791906130b5565b60405180910390a2505050565b610d6d8261154b565b610dac576040517f08c379a0000000000000000000000000000000000000000000000000000000008152600401610da39061323d565b60405180910390fd5b6000600660008481526020019081526020016000209050818160050181905550827fe369164f6e36bbebc75e0c57a310efb7f1548a6d17cb673430a423966053faba83604051610dfc91906133dd565b60405180910390a2505050565b60008073ffffffffffffffffffffffffffffffffffffffff168273ffffffffffffffffffffffffffffffffffffffff161415610e7a576040517f08c379a0000000000000000000000000000000000000000000000000000000008152600401610e719061329d565b60405180910390fd5b600360008373ffffffffffffffffffffffffffffffffffffffff1673ffffffffffffffffffffffffffffffffffffffff168152602001908152602001600020549050919050565b606060018054610ed0906136b3565b80601f0160208091040260200160405190810160405280929190818152602001828054610efc906136b3565b8015610f495780601f10610f1e57610100808354040283529160200191610f49565b820191906000526020600020905b815481529060010190602001808311610f2c57829003601f168201915b5050505050905090565b610f65610f5e6115b7565b83836119b2565b5050565b6000855111610fad576040517f08c379a0000000000000000000000000000000000000000000000000000000008152600401610fa49061319d565b60405180910390fd5b6000845111610ff1576040517f08c379a0000000000000000000000000000000000000000000000000000000008152600401610fe89061335d565b60405180910390fd5b6000835111611035576040517f08c379a000000000000000000000000000000000000000000000000000000000815260040161102c906133bd565b60405180910390fd5b600060075490506007600081548092919061104f906136e5565b9190505550600060066000838152602001908152602001600020905086816000019080519060200190611083929190612135565b508581600101908051906020019061109c929190612135565b50848160020190805190602001906110b5929190612135565b50838160030181905550828160040190805190602001906110d7929190612135565b506110e23383611b1f565b817f4728104627c0775370e4d3628beda1b22b0bef17538f721f8e4d92976ce208238860405161111291906130b5565b60405180910390a250505050505050565b61112c8261154b565b61116b576040517f08c379a00000000000000000000000000000000000000000000000000000000081526004016111629061323d565b60405180910390fd5b60006006600084815260200190815260200160002090508181600401908051906020019061119a929190612135565b50827f0d1654a6109e1c833ac2f0f3b5c1277ce26a54678eed03f82b1fad771b20b171836040516111cb91906130b5565b60405180910390a2505050565b6111e96111e36115b7565b83611678565b611228576040517f08c379a000000000000000000000000000000000000000000000000000000000815260040161121f9061339d565b60405180910390fd5b61123484848484611b3d565b50505050565b6112438261154b565b611282576040517f08c379a00000000000000000000000000000000000000000000000000000000081526004016112799061323d565b60405180910390fd5b6000600660008481526020019081526020016000209050818160060190805190602001906112b19291906121bb565b50827f2c814384a06d2f925e84e51088e1c1078c65853fecacaa5ca795d91d9bdffa50836040516112e29190613078565b60405180910390a2505050565b60606112fa8261154b565b611339576040517f08c379a00000000000000000000000000000000000000000000000000000000081526004016113309061333d565b60405180910390fd5b6000611343611b99565b90506000815111611363576040518060200160405280600081525061138e565b8061136d84611bb0565b60405160200161137e929190612fed565b6040516020818303038152906040525b915050919050565b6000600560008473ffffffffffffffffffffffffffffffffffffffff1673ffffffffffffffffffffffffffffffffffffffff16815260200190815260200160002060008373ffffffffffffffffffffffffffffffffffffffff1673ffffffffffffffffffffffffffffffffffffffff16815260200190815260200160002060009054906101000a900460ff16905092915050565b6114338261154b565b611472576040517f08c379a00000000000000000000000000000000000000000000000000000000081526004016114699061323d565b60405180910390fd5b60006006600084815260200190815260200160002090508181600801600082825461149d9190613542565b92505081905550827ff54b9ab9e866899cf7486a617bf4f1e402300b8c2b16214e8f20f0d8ba03ca11836040516114d491906133dd565b60405180910390a2505050565b60007f01ffc9a7000000000000000000000000000000000000000000000000000000007bffffffffffffffffffffffffffffffffffffffffffffffffffffffff1916827bffffffffffffffffffffffffffffffffffffffffffffffffffffffff1916149050919050565b60008073ffffffffffffffffffffffffffffffffffffffff166002600084815260200190815260200160002060009054906101000a900473ffffffffffffffffffffffffffffffffffffffff1673ffffffffffffffffffffffffffffffffffffffff1614159050919050565b600033905090565b816004600083815260200190815260200160002060006101000a81548173ffffffffffffffffffffffffffffffffffffffff021916908373ffffffffffffffffffffffffffffffffffffffff160217905550808273ffffffffffffffffffffffffffffffffffffffff1661163283610bd8565b73ffffffffffffffffffffffffffffffffffffffff167f8c5be1e5ebec7d5bd14f71427d1e84f3dd0314c0f7b2291e5b200ac8c7c3b92560405160405180910390a45050565b60006116838261154b565b6116c2576040517f08c379a00000000000000000000000000000000000000000000000000000000081526004016116b99061325d565b60405180910390fd5b60006116cd83610bd8565b90508073ffffffffffffffffffffffffffffffffffffffff168473ffffffffffffffffffffffffffffffffffffffff16148061173c57508373ffffffffffffffffffffffffffffffffffffffff166117248461056e565b73ffffffffffffffffffffffffffffffffffffffff16145b8061174d575061174c8185611396565b5b91505092915050565b8273ffffffffffffffffffffffffffffffffffffffff1661177682610bd8565b73ffffffffffffffffffffffffffffffffffffffff16146117cc576040517f08c379a00000000000000000000000000000000000000000000000000000000081526004016117c39061331d565b60405180910390fd5b600073ffffffffffffffffffffffffffffffffffffffff168273ffffffffffffffffffffffffffffffffffffffff16141561183c576040517f08c379a0000000000000000000000000000000000000000000000000000000008152600401611833906131fd565b60405180910390fd5b611847838383611d5d565b6118526000826115bf565b6001600360008573ffffffffffffffffffffffffffffffffffffffff1673ffffffffffffffffffffffffffffffffffffffff16815260200190815260200160002060008282546118a291906135c9565b925050819055506001600360008473ffffffffffffffffffffffffffffffffffffffff1673ffffffffffffffffffffffffffffffffffffffff16815260200190815260200160002060008282546118f99190613542565b92505081905550816002600083815260200190815260200160002060006101000a81548173ffffffffffffffffffffffffffffffffffffffff021916908373ffffffffffffffffffffffffffffffffffffffff160217905550808273ffffffffffffffffffffffffffffffffffffffff168473ffffffffffffffffffffffffffffffffffffffff167fddf252ad1be2c89b69c2b068fc378daa952ba7f163c4a11628f55a4df523b3ef60405160405180910390a4505050565b8173ffffffffffffffffffffffffffffffffffffffff168373ffffffffffffffffffffffffffffffffffffffff161415611a21576040517f08c379a0000000000000000000000000000000000000000000000000000000008152600401611a189061321d565b60405180910390fd5b80600560008573ffffffffffffffffffffffffffffffffffffffff1673ffffffffffffffffffffffffffffffffffffffff16815260200190815260200160002060008473ffffffffffffffffffffffffffffffffffffffff1673ffffffffffffffffffffffffffffffffffffffff16815260200190815260200160002060006101000a81548160ff0219169083151502179055508173ffffffffffffffffffffffffffffffffffffffff168373ffffffffffffffffffffffffffffffffffffffff167f17307eab39ab6107e8899845ad3d59bd9653f200f220920489ca2b5937696c3183604051611b12919061309a565b60405180910390a3505050565b611b39828260405180602001604052806000815250611d62565b5050565b611b48848484611756565b611b5484848484611dbd565b611b93576040517f08c379a0000000000000000000000000000000000000000000000000000000008152600401611b8a906131bd565b60405180910390fd5b50505050565b606060405180602001604052806000815250905090565b60606000821415611bf8576040518060400160405280600181526020017f30000000000000000000000000000000000000000000000000000000000000008152509050611d58565b600082905060005b60008214611c2a578080611c13906136e5565b915050600a82611c239190613598565b9150611c00565b60008167ffffffffffffffff811115611c6c577f4e487b7100000000000000000000000000000000000000000000000000000000600052604160045260246000fd5b6040519080825280601f01601f191660200182016040528015611c9e5781602001600182028036833780820191505090505b5090505b60008514611d5157600182611cb791906135c9565b9150600a85611cc6919061372e565b6030611cd29190613542565b60f81b818381518110611d0e577f4e487b7100000000000000000000000000000000000000000000000000000000600052603260045260246000fd5b60200101907effffffffffffffffffffffffffffffffffffffffffffffffffffffffffffff1916908160001a905350600a85611d4a9190613598565b9450611ca2565b8093505050505b919050565b505050565b611d6c8383611f54565b611d796000848484611dbd565b611db8576040517f08c379a0000000000000000000000000000000000000000000000000000000008152600401611daf906131bd565b60405180910390fd5b505050565b6000611dde8473ffffffffffffffffffffffffffffffffffffffff16612122565b15611f47578373ffffffffffffffffffffffffffffffffffffffff1663150b7a02611e076115b7565b8786866040518563ffffffff1660e01b8152600401611e29949392919061302c565b602060405180830381600087803b158015611e4357600080fd5b505af1925050508015611e7457506040513d601f19601f82011682018060405250810190611e71919061262c565b60015b611ef7573d8060008114611ea4576040519150601f19603f3d011682016040523d82523d6000602084013e611ea9565b606091505b50600081511415611eef576040517f08c379a0000000000000000000000000000000000000000000000000000000008152600401611ee6906131bd565b60405180910390fd5b805181602001fd5b63150b7a0260e01b7bffffffffffffffffffffffffffffffffffffffffffffffffffffffff1916817bffffffffffffffffffffffffffffffffffffffffffffffffffffffff191614915050611f4c565b600190505b949350505050565b600073ffffffffffffffffffffffffffffffffffffffff168273ffffffffffffffffffffffffffffffffffffffff161415611fc4576040517f08c379a0000000000000000000000000000000000000000000000000000000008152600401611fbb906132dd565b60405180910390fd5b611fcd8161154b565b1561200d576040517f08c379a0000000000000000000000000000000000000000000000000000000008152600401612004906131dd565b60405180910390fd5b61201960008383611d5d565b6001600360008473ffffffffffffffffffffffffffffffffffffffff1673ffffffffffffffffffffffffffffffffffffffff16815260200190815260200160002060008282546120699190613542565b92505081905550816002600083815260200190815260200160002060006101000a81548173ffffffffffffffffffffffffffffffffffffffff021916908373ffffffffffffffffffffffffffffffffffffffff160217905550808273ffffffffffffffffffffffffffffffffffffffff16600073ffffffffffffffffffffffffffffffffffffffff167fddf252ad1be2c89b69c2b068fc378daa952ba7f163c4a11628f55a4df523b3ef60405160405180910390a45050565b600080823b905060008111915050919050565b828054612141906136b3565b90600052602060002090601f01602090048101928261216357600085556121aa565b82601f1061217c57805160ff19168380011785556121aa565b828001600101855582156121aa579182015b828111156121a957825182559160200191906001019061218e565b5b5090506121b7919061221b565b5090565b82805482825590600052602060002090810192821561220a579160200282015b828111156122095782518290805190602001906121f9929190612135565b50916020019190600101906121db565b5b5090506122179190612238565b5090565b5b8082111561223457600081600090555060010161221c565b5090565b5b80821115612258576000818161224f919061225c565b50600101612239565b5090565b508054612268906136b3565b6000825580601f1061227a5750612299565b601f016020900490600052602060002090810190612298919061221b565b5b50565b60006122af6122aa84613429565b6133f8565b9050808382526020820190508260005b858110156122ef57813585016122d5888261241d565b8452602084019350602083019250506001810190506122bf565b5050509392505050565b600061230c61230784613455565b6133f8565b90508281526020810184848401111561232457600080fd5b61232f848285613671565b509392505050565b600061234a61234584613485565b6133f8565b90508281526020810184848401111561236257600080fd5b61236d848285613671565b509392505050565b6000813590506123848161382c565b92915050565b600082601f83011261239b57600080fd5b81356123ab84826020860161229c565b91505092915050565b6000813590506123c381613843565b92915050565b6000813590506123d88161385a565b92915050565b6000815190506123ed8161385a565b92915050565b600082601f83011261240457600080fd5b81356124148482602086016122f9565b91505092915050565b600082601f83011261242e57600080fd5b813561243e848260208601612337565b91505092915050565b60008135905061245681613871565b92915050565b60006020828403121561246e57600080fd5b600061247c84828501612375565b91505092915050565b6000806040838503121561249857600080fd5b60006124a685828601612375565b92505060206124b785828601612375565b9150509250929050565b6000806000606084860312156124d657600080fd5b60006124e486828701612375565b93505060206124f586828701612375565b925050604061250686828701612447565b9150509250925092565b6000806000806080858703121561252657600080fd5b600061253487828801612375565b945050602061254587828801612375565b935050604061255687828801612447565b925050606085013567ffffffffffffffff81111561257357600080fd5b61257f878288016123f3565b91505092959194509250565b6000806040838503121561259e57600080fd5b60006125ac85828601612375565b92505060206125bd858286016123b4565b9150509250929050565b600080604083850312156125da57600080fd5b60006125e885828601612375565b92505060206125f985828601612447565b9150509250929050565b60006020828403121561261557600080fd5b6000612623848285016123c9565b91505092915050565b60006020828403121561263e57600080fd5b600061264c848285016123de565b91505092915050565b600080600080600060a0868803121561266d57600080fd5b600086013567ffffffffffffffff81111561268757600080fd5b6126938882890161241d565b955050602086013567ffffffffffffffff8111156126b057600080fd5b6126bc8882890161241d565b945050604086013567ffffffffffffffff8111156126d957600080fd5b6126e58882890161241d565b93505060606126f688828901612447565b925050608086013567ffffffffffffffff81111561271357600080fd5b61271f8882890161241d565b9150509295509295909350565b60006020828403121561273e57600080fd5b600061274c84828501612447565b91505092915050565b6000806040838503121561276857600080fd5b600061277685828601612447565b925050602083013567ffffffffffffffff81111561279357600080fd5b61279f8582860161238a565b9150509250929050565b600080604083850312156127bc57600080fd5b60006127ca85828601612447565b925050602083013567ffffffffffffffff8111156127e757600080fd5b6127f38582860161241d565b9150509250929050565b6000806040838503121561281057600080fd5b600061281e85828601612447565b925050602061282f85828601612447565b9150509250929050565b60006128458383612919565b905092915050565b612856816135fd565b82525050565b6000612867826134c5565b61287181856134f3565b935083602082028501612883856134b5565b8060005b858110156128bf57848403895281516128a08582612839565b94506128ab836134e6565b925060208a01995050600181019050612887565b50829750879550505050505092915050565b6128da8161360f565b82525050565b60006128eb826134d0565b6128f58185613504565b9350612905818560208601613680565b61290e8161381b565b840191505092915050565b6000612924826134db565b61292e8185613515565b935061293e818560208601613680565b6129478161381b565b840191505092915050565b600061295d826134db565b6129678185613526565b9350612977818560208601613680565b6129808161381b565b840191505092915050565b6000612996826134db565b6129a08185613537565b93506129b0818560208601613680565b80840191505092915050565b60006129c9601883613526565b91507f557365726e616d652063616e6e6f7420626520656d70747900000000000000006000830152602082019050919050565b6000612a09603283613526565b91507f4552433732313a207472616e7366657220746f206e6f6e20455243373231526560008301527f63656976657220696d706c656d656e74657200000000000000000000000000006020830152604082019050919050565b6000612a6f601c83613526565b91507f4552433732313a20746f6b656e20616c7265616479206d696e746564000000006000830152602082019050919050565b6000612aaf602483613526565b91507f4552433732313a207472616e7366657220746f20746865207a65726f2061646460008301527f72657373000000000000000000000000000000000000000000000000000000006020830152604082019050919050565b6000612b15601983613526565b91507f4552433732313a20617070726f766520746f2063616c6c6572000000000000006000830152602082019050919050565b6000612b55601783613526565b91507f546f6b656e20494420646f6573206e6f742065786973740000000000000000006000830152602082019050919050565b6000612b95602c83613526565b91507f4552433732313a206f70657261746f7220717565727920666f72206e6f6e657860008301527f697374656e7420746f6b656e00000000000000000000000000000000000000006020830152604082019050919050565b6000612bfb603883613526565b91507f4552433732313a20617070726f76652063616c6c6572206973206e6f74206f7760008301527f6e6572206e6f7220617070726f76656420666f7220616c6c00000000000000006020830152604082019050919050565b6000612c61602a83613526565b91507f4552433732313a2062616c616e636520717565727920666f7220746865207a6560008301527f726f2061646472657373000000000000000000000000000000000000000000006020830152604082019050919050565b6000612cc7602983613526565b91507f4552433732313a206f776e657220717565727920666f72206e6f6e657869737460008301527f656e7420746f6b656e00000000000000000000000000000000000000000000006020830152604082019050919050565b6000612d2d602083613526565b91507f4552433732313a206d696e7420746f20746865207a65726f20616464726573736000830152602082019050919050565b6000612d6d602c83613526565b91507f4552433732313a20617070726f76656420717565727920666f72206e6f6e657860008301527f697374656e7420746f6b656e00000000000000000000000000000000000000006020830152604082019050919050565b6000612dd3602983613526565b91507f4552433732313a207472616e73666572206f6620746f6b656e2074686174206960008301527f73206e6f74206f776e00000000000000000000000000000000000000000000006020830152604082019050919050565b6000612e39602f83613526565b91507f4552433732314d657461646174613a2055524920717565727920666f72206e6f60008301527f6e6578697374656e7420746f6b656e00000000000000000000000000000000006020830152604082019050919050565b6000612e9f601583613526565b91507f456d61696c2063616e6e6f7420626520656d70747900000000000000000000006000830152602082019050919050565b6000612edf602183613526565b91507f4552433732313a20617070726f76616c20746f2063757272656e74206f776e6560008301527f72000000000000000000000000000000000000000000000000000000000000006020830152604082019050919050565b6000612f45603183613526565b91507f4552433732313a207472616e736665722063616c6c6572206973206e6f74206f60008301527f776e6572206e6f7220617070726f7665640000000000000000000000000000006020830152604082019050919050565b6000612fab601883613526565b91507f4c6f636174696f6e2063616e6e6f7420626520656d70747900000000000000006000830152602082019050919050565b612fe781613667565b82525050565b6000612ff9828561298b565b9150613005828461298b565b91508190509392505050565b6000602082019050613026600083018461284d565b92915050565b6000608082019050613041600083018761284d565b61304e602083018661284d565b61305b6040830185612fde565b818103606083015261306d81846128e0565b905095945050505050565b60006020820190508181036000830152613092818461285c565b905092915050565b60006020820190506130af60008301846128d1565b92915050565b600060208201905081810360008301526130cf8184612952565b905092915050565b60006101408201905081810360008301526130f2818d612952565b90508181036020830152613106818c612952565b9050818103604083015261311a818b612952565b9050613129606083018a612fde565b818103608083015261313b8189612952565b905061314a60a0830188612fde565b81810360c083015261315c818761285c565b905061316b60e0830186612fde565b613179610100830185612fde565b81810361012083015261318c818461285c565b90509b9a5050505050505050505050565b600060208201905081810360008301526131b6816129bc565b9050919050565b600060208201905081810360008301526131d6816129fc565b9050919050565b600060208201905081810360008301526131f681612a62565b9050919050565b6000602082019050818103600083015261321681612aa2565b9050919050565b6000602082019050818103600083015261323681612b08565b9050919050565b6000602082019050818103600083015261325681612b48565b9050919050565b6000602082019050818103600083015261327681612b88565b9050919050565b6000602082019050818103600083015261329681612bee565b9050919050565b600060208201905081810360008301526132b681612c54565b9050919050565b600060208201905081810360008301526132d681612cba565b9050919050565b600060208201905081810360008301526132f681612d20565b9050919050565b6000602082019050818103600083015261331681612d60565b9050919050565b6000602082019050818103600083015261333681612dc6565b9050919050565b6000602082019050818103600083015261335681612e2c565b9050919050565b6000602082019050818103600083015261337681612e92565b9050919050565b6000602082019050818103600083015261339681612ed2565b9050919050565b600060208201905081810360008301526133b681612f38565b9050919050565b600060208201905081810360008301526133d681612f9e565b9050919050565b60006020820190506133f26000830184612fde565b92915050565b6000604051905081810181811067ffffffffffffffff8211171561341f5761341e6137ec565b5b8060405250919050565b600067ffffffffffffffff821115613444576134436137ec565b5b602082029050602081019050919050565b600067ffffffffffffffff8211156134705761346f6137ec565b5b601f19601f8301169050602081019050919050565b600067ffffffffffffffff8211156134a05761349f6137ec565b5b601f19601f8301169050602081019050919050565b6000819050602082019050919050565b600081519050919050565b600081519050919050565b600081519050919050565b6000602082019050919050565b600082825260208201905092915050565b600082825260208201905092915050565b600082825260208201905092915050565b600082825260208201905092915050565b600081905092915050565b600061354d82613667565b915061355883613667565b9250827fffffffffffffffffffffffffffffffffffffffffffffffffffffffffffffffff0382111561358d5761358c61375f565b5b828201905092915050565b60006135a382613667565b91506135ae83613667565b9250826135be576135bd61378e565b5b828204905092915050565b60006135d482613667565b91506135df83613667565b9250828210156135f2576135f161375f565b5b828203905092915050565b600061360882613647565b9050919050565b60008115159050919050565b60007fffffffff0000000000000000000000000000000000000000000000000000000082169050919050565b600073ffffffffffffffffffffffffffffffffffffffff82169050919050565b6000819050919050565b82818337600083830152505050565b60005b8381101561369e578082015181840152602081019050613683565b838111156136ad576000848401525b50505050565b600060028204905060018216806136cb57607f821691505b602082108114156136df576136de6137bd565b5b50919050565b60006136f082613667565b91507fffffffffffffffffffffffffffffffffffffffffffffffffffffffffffffffff8214156137235761372261375f565b5b600182019050919050565b600061373982613667565b915061374483613667565b9250826137545761375361378e565b5b828206905092915050565b7f4e487b7100000000000000000000000000000000000000000000000000000000600052601160045260246000fd5b7f4e487b7100000000000000000000000000000000000000000000000000000000600052601260045260246000fd5b7f4e487b7100000000000000000000000000000000000000000000000000000000600052602260045260246000fd5b7f4e487b7100000000000000000000000000000000000000000000000000000000600052604160045260246000fd5b6000601f19601f8301169050919050565b613835816135fd565b811461384057600080fd5b50565b61384c8161360f565b811461385757600080fd5b50565b6138638161361b565b811461386e57600080fd5b50565b61387a81613667565b811461388557600080fd5b5056fea26469706673582212208153924854ae0a0f4941d0e4ab23c98eedb7916b14c82e41a83d89ee3f2ffd5c64736f6c63430008000033",
  "immutableReferences": {},
  "source": "// SPDX-License-Identifier: MIT\r\npragma solidity ^0.8.0;\r\n\r\nimport \"@openzeppelin/contracts/token/ERC721/ERC721.sol\";\r\n\r\ncontract UserDataContract is ERC721 {\r\n    struct UserData {\r\n        string username;\r\n        string email;\r\n        string location;\r\n        uint256 age;\r\n        string dailyPlan;\r\n        uint256 totalDays;\r\n        string[] dates;\r\n        uint256 leaderboardRank;\r\n        uint256 points;\r\n        string[] badges;\r\n    }\r\n\r\n    mapping(uint256 => UserData) private userDataMap;\r\n    uint256 private tokenIdCounter;\r\n\r\n    constructor() ERC721(\"UserDataToken\", \"UDT\") {}\r\n\r\n    event UserRegistered(uint256 indexed tokenId, string username);\r\n    event DailyPlanUpdated(uint256 indexed tokenId, string newDailyPlan);\r\n    event TotalDaysUpdated(uint256 indexed tokenId, uint256 newTotalDays);\r\n    event DatesUpdated(uint256 indexed tokenId, string[] newDates);\r\n    event PointsAdded(uint256 indexed tokenId, uint256 addedPoints);\r\n    event BadgeEarned(uint256 indexed tokenId, string badgeName);\r\n\r\n    function registerUser(\r\n        string memory _username,\r\n        string memory _email,\r\n        string memory _location,\r\n        uint256 _age,\r\n        string memory _dailyPlan\r\n    ) external {\r\n        require(bytes(_username).length > 0, \"Username cannot be empty\");\r\n        require(bytes(_email).length > 0, \"Email cannot be empty\");\r\n        require(bytes(_location).length > 0, \"Location cannot be empty\");\r\n\r\n        uint256 newTokenId = tokenIdCounter;\r\n        tokenIdCounter++;\r\n\r\n        UserData storage userData = userDataMap[newTokenId];\r\n\r\n        userData.username = _username;\r\n        userData.email = _email;\r\n        userData.location = _location;\r\n        userData.age = _age;\r\n        userData.dailyPlan = _dailyPlan;\r\n\r\n        _safeMint(msg.sender, newTokenId);\r\n\r\n        emit UserRegistered(newTokenId, _username);\r\n    }\r\n\r\n    function updateDailyPlan(uint256 _tokenId, string memory _dailyPlan) external {\r\n        require(_exists(_tokenId), \"Token ID does not exist\");\r\n        UserData storage userData = userDataMap[_tokenId];\r\n        userData.dailyPlan = _dailyPlan;\r\n        emit DailyPlanUpdated(_tokenId, _dailyPlan);\r\n    }\r\n\r\n    function updateTotalDays(uint256 _tokenId, uint256 _totalDays) external {\r\n        require(_exists(_tokenId), \"Token ID does not exist\");\r\n        UserData storage userData = userDataMap[_tokenId];\r\n        userData.totalDays = _totalDays;\r\n        emit TotalDaysUpdated(_tokenId, _totalDays);\r\n    }\r\n\r\n    function updateDates(uint256 _tokenId, string[] memory _dates) external {\r\n        require(_exists(_tokenId), \"Token ID does not exist\");\r\n        UserData storage userData = userDataMap[_tokenId];\r\n        userData.dates = _dates;\r\n        emit DatesUpdated(_tokenId, _dates);\r\n    }\r\n\r\n    function addPoints(uint256 _tokenId, uint256 _points) external {\r\n        require(_exists(_tokenId), \"Token ID does not exist\");\r\n        UserData storage userData = userDataMap[_tokenId];\r\n        userData.points += _points;\r\n        emit PointsAdded(_tokenId, _points);\r\n    }\r\n\r\n    function addBadge(uint256 _tokenId, string memory _badgeName) external {\r\n        require(_exists(_tokenId), \"Token ID does not exist\");\r\n        UserData storage userData = userDataMap[_tokenId];\r\n        userData.badges.push(_badgeName);\r\n        emit BadgeEarned(_tokenId, _badgeName);\r\n    }\r\n\r\n    function getUserData(uint256 _tokenId)\r\n        external\r\n        view\r\n        returns (\r\n            string memory username,\r\n            string memory email,\r\n            string memory location,\r\n            uint256 age,\r\n            string memory dailyPlan,\r\n            uint256 totalDays,\r\n            string[] memory dates,\r\n            uint256 leaderboardRank,\r\n            uint256 points,\r\n            string[] memory badges\r\n        )\r\n    {\r\n        UserData storage userData = userDataMap[_tokenId];\r\n        return (\r\n            userData.username,\r\n            userData.email,\r\n            userData.location,\r\n            userData.age,\r\n            userData.dailyPlan,\r\n            userData.totalDays,\r\n            userData.dates,\r\n            userData.leaderboardRank,\r\n            userData.points,\r\n            userData.badges\r\n        );\r\n    }\r\n}\r\n",
  "sourcePath": "C:\\Users\\Yash kanjariya\\Desktop\\Projects\\AOH_BoiledRice\\web3\\contracts\\userdata.sol",
  "compiler": {
    "name": "solc",
    "version": "0.8.0+commit.c7dfd78e.Emscripten.clang"
  },
  "schemaVersion": "3.4.16",
  "updatedAt": "2024-03-30T09:10:56.051Z",
  "networkType": "ethereum",
  "devdoc": {
    "kind": "dev",
    "methods": {
      "approve(address,uint256)": {
        "details": "See {IERC721-approve}."
      },
      "balanceOf(address)": {
        "details": "See {IERC721-balanceOf}."
      },
      "getApproved(uint256)": {
        "details": "See {IERC721-getApproved}."
      },
      "isApprovedForAll(address,address)": {
        "details": "See {IERC721-isApprovedForAll}."
      },
      "name()": {
        "details": "See {IERC721Metadata-name}."
      },
      "ownerOf(uint256)": {
        "details": "See {IERC721-ownerOf}."
      },
      "safeTransferFrom(address,address,uint256)": {
        "details": "See {IERC721-safeTransferFrom}."
      },
      "safeTransferFrom(address,address,uint256,bytes)": {
        "details": "See {IERC721-safeTransferFrom}."
      },
      "setApprovalForAll(address,bool)": {
        "details": "See {IERC721-setApprovalForAll}."
      },
      "supportsInterface(bytes4)": {
        "details": "See {IERC165-supportsInterface}."
      },
      "symbol()": {
        "details": "See {IERC721Metadata-symbol}."
      },
      "tokenURI(uint256)": {
        "details": "See {IERC721Metadata-tokenURI}."
      },
      "transferFrom(address,address,uint256)": {
        "details": "See {IERC721-transferFrom}."
      }
    },
    "version": 1
  },
  "userdoc": {
    "kind": "user",
    "methods": {},
    "version": 1
  }
}