{
  "contractName": "UserDataContract",
  "abi": [
    {
      "inputs": [],
      "stateMutability": "nonpayable",
      "type": "constructor"
    },
    {
      "anonymous": false,
      "inputs": [
        {
          "indexed": true,
          "internalType": "uint256",
          "name": "tokenId",
          "type": "uint256"
        },
        {
          "indexed": false,
          "internalType": "string",
          "name": "newAdminUsername",
          "type": "string"
        }
      ],
      "name": "AdminUsernameUpdated",
      "type": "event"
    },
    {
      "anonymous": false,
      "inputs": [
        {
          "indexed": true,
          "internalType": "address",
          "name": "owner",
          "type": "address"
        },
        {
          "indexed": true,
          "internalType": "address",
          "name": "approved",
          "type": "address"
        },
        {
          "indexed": true,
          "internalType": "uint256",
          "name": "tokenId",
          "type": "uint256"
        }
      ],
      "name": "Approval",
      "type": "event"
    },
    {
      "anonymous": false,
      "inputs": [
        {
          "indexed": true,
          "internalType": "address",
          "name": "owner",
          "type": "address"
        },
        {
          "indexed": true,
          "internalType": "address",
          "name": "operator",
          "type": "address"
        },
        {
          "indexed": false,
          "internalType": "bool",
          "name": "approved",
          "type": "bool"
        }
      ],
      "name": "ApprovalForAll",
      "type": "event"
    },
    {
      "anonymous": false,
      "inputs": [
        {
          "indexed": true,
          "internalType": "uint256",
          "name": "tokenId",
          "type": "uint256"
        },
        {
          "indexed": false,
          "internalType": "string",
          "name": "newDailyPlan",
          "type": "string"
        }
      ],
      "name": "DailyPlanUpdated",
      "type": "event"
    },
    {
      "anonymous": false,
      "inputs": [
        {
          "indexed": true,
          "internalType": "uint256",
          "name": "tokenId",
          "type": "uint256"
        },
        {
          "indexed": false,
          "internalType": "uint256[]",
          "name": "newDates",
          "type": "uint256[]"
        }
      ],
      "name": "DatesUpdated",
      "type": "event"
    },
    {
      "anonymous": false,
      "inputs": [
        {
          "indexed": true,
          "internalType": "uint256",
          "name": "tokenId",
          "type": "uint256"
        },
        {
          "indexed": false,
          "internalType": "uint256",
          "name": "newTotalDays",
          "type": "uint256"
        }
      ],
      "name": "TotalDaysUpdated",
      "type": "event"
    },
    {
      "anonymous": false,
      "inputs": [
        {
          "indexed": true,
          "internalType": "address",
          "name": "from",
          "type": "address"
        },
        {
          "indexed": true,
          "internalType": "address",
          "name": "to",
          "type": "address"
        },
        {
          "indexed": true,
          "internalType": "uint256",
          "name": "tokenId",
          "type": "uint256"
        }
      ],
      "name": "Transfer",
      "type": "event"
    },
    {
      "anonymous": false,
      "inputs": [
        {
          "indexed": true,
          "internalType": "uint256",
          "name": "tokenId",
          "type": "uint256"
        },
        {
          "indexed": false,
          "internalType": "string",
          "name": "adminUsername",
          "type": "string"
        },
        {
          "indexed": false,
          "internalType": "string",
          "name": "username",
          "type": "string"
        }
      ],
      "name": "UserRegistered",
      "type": "event"
    },
    {
      "anonymous": false,
      "inputs": [
        {
          "indexed": true,
          "internalType": "uint256",
          "name": "tokenId",
          "type": "uint256"
        },
        {
          "indexed": false,
          "internalType": "string",
          "name": "newUsername",
          "type": "string"
        }
      ],
      "name": "UsernameUpdated",
      "type": "event"
    },
    {
      "anonymous": false,
      "inputs": [
        {
          "indexed": true,
          "internalType": "uint256",
          "name": "tokenId",
          "type": "uint256"
        },
        {
          "indexed": false,
          "internalType": "uint256",
          "name": "date",
          "type": "uint256"
        },
        {
          "indexed": false,
          "internalType": "string",
          "name": "newWasteInfo",
          "type": "string"
        }
      ],
      "name": "WasteInfoUpdated",
      "type": "event"
    },
    {
      "inputs": [
        {
          "internalType": "address",
          "name": "to",
          "type": "address"
        },
        {
          "internalType": "uint256",
          "name": "tokenId",
          "type": "uint256"
        }
      ],
      "name": "approve",
      "outputs": [],
      "stateMutability": "nonpayable",
      "type": "function"
    },
    {
      "inputs": [
        {
          "internalType": "address",
          "name": "owner",
          "type": "address"
        }
      ],
      "name": "balanceOf",
      "outputs": [
        {
          "internalType": "uint256",
          "name": "",
          "type": "uint256"
        }
      ],
      "stateMutability": "view",
      "type": "function",
      "constant": true
    },
    {
      "inputs": [
        {
          "internalType": "uint256",
          "name": "tokenId",
          "type": "uint256"
        }
      ],
      "name": "getApproved",
      "outputs": [
        {
          "internalType": "address",
          "name": "",
          "type": "address"
        }
      ],
      "stateMutability": "view",
      "type": "function",
      "constant": true
    },
    {
      "inputs": [
        {
          "internalType": "address",
          "name": "owner",
          "type": "address"
        },
        {
          "internalType": "address",
          "name": "operator",
          "type": "address"
        }
      ],
      "name": "isApprovedForAll",
      "outputs": [
        {
          "internalType": "bool",
          "name": "",
          "type": "bool"
        }
      ],
      "stateMutability": "view",
      "type": "function",
      "constant": true
    },
    {
      "inputs": [],
      "name": "name",
      "outputs": [
        {
          "internalType": "string",
          "name": "",
          "type": "string"
        }
      ],
      "stateMutability": "view",
      "type": "function",
      "constant": true
    },
    {
      "inputs": [
        {
          "internalType": "uint256",
          "name": "tokenId",
          "type": "uint256"
        }
      ],
      "name": "ownerOf",
      "outputs": [
        {
          "internalType": "address",
          "name": "",
          "type": "address"
        }
      ],
      "stateMutability": "view",
      "type": "function",
      "constant": true
    },
    {
      "inputs": [
        {
          "internalType": "address",
          "name": "from",
          "type": "address"
        },
        {
          "internalType": "address",
          "name": "to",
          "type": "address"
        },
        {
          "internalType": "uint256",
          "name": "tokenId",
          "type": "uint256"
        }
      ],
      "name": "safeTransferFrom",
      "outputs": [],
      "stateMutability": "nonpayable",
      "type": "function"
    },
    {
      "inputs": [
        {
          "internalType": "address",
          "name": "from",
          "type": "address"
        },
        {
          "internalType": "address",
          "name": "to",
          "type": "address"
        },
        {
          "internalType": "uint256",
          "name": "tokenId",
          "type": "uint256"
        },
        {
          "internalType": "bytes",
          "name": "data",
          "type": "bytes"
        }
      ],
      "name": "safeTransferFrom",
      "outputs": [],
      "stateMutability": "nonpayable",
      "type": "function"
    },
    {
      "inputs": [
        {
          "internalType": "address",
          "name": "operator",
          "type": "address"
        },
        {
          "internalType": "bool",
          "name": "approved",
          "type": "bool"
        }
      ],
      "name": "setApprovalForAll",
      "outputs": [],
      "stateMutability": "nonpayable",
      "type": "function"
    },
    {
      "inputs": [
        {
          "internalType": "bytes4",
          "name": "interfaceId",
          "type": "bytes4"
        }
      ],
      "name": "supportsInterface",
      "outputs": [
        {
          "internalType": "bool",
          "name": "",
          "type": "bool"
        }
      ],
      "stateMutability": "view",
      "type": "function",
      "constant": true
    },
    {
      "inputs": [],
      "name": "symbol",
      "outputs": [
        {
          "internalType": "string",
          "name": "",
          "type": "string"
        }
      ],
      "stateMutability": "view",
      "type": "function",
      "constant": true
    },
    {
      "inputs": [
        {
          "internalType": "uint256",
          "name": "tokenId",
          "type": "uint256"
        }
      ],
      "name": "tokenURI",
      "outputs": [
        {
          "internalType": "string",
          "name": "",
          "type": "string"
        }
      ],
      "stateMutability": "view",
      "type": "function",
      "constant": true
    },
    {
      "inputs": [
        {
          "internalType": "address",
          "name": "from",
          "type": "address"
        },
        {
          "internalType": "address",
          "name": "to",
          "type": "address"
        },
        {
          "internalType": "uint256",
          "name": "tokenId",
          "type": "uint256"
        }
      ],
      "name": "transferFrom",
      "outputs": [],
      "stateMutability": "nonpayable",
      "type": "function"
    },
    {
      "inputs": [
        {
          "internalType": "string",
          "name": "_adminUsername",
          "type": "string"
        },
        {
          "internalType": "string",
          "name": "_username",
          "type": "string"
        },
        {
          "internalType": "uint256",
          "name": "_totalDays",
          "type": "uint256"
        },
        {
          "internalType": "string",
          "name": "_dailyPlan",
          "type": "string"
        },
        {
          "internalType": "uint256[]",
          "name": "_dates",
          "type": "uint256[]"
        }
      ],
      "name": "registerUser",
      "outputs": [],
      "stateMutability": "nonpayable",
      "type": "function"
    },
    {
      "inputs": [
        {
          "internalType": "uint256",
          "name": "_tokenId",
          "type": "uint256"
        },
        {
          "internalType": "uint256",
          "name": "_date",
          "type": "uint256"
        },
        {
          "internalType": "string",
          "name": "_wasteInfo",
          "type": "string"
        }
      ],
      "name": "updateWasteInfo",
      "outputs": [],
      "stateMutability": "nonpayable",
      "type": "function"
    },
    {
      "inputs": [
        {
          "internalType": "uint256",
          "name": "_tokenId",
          "type": "uint256"
        }
      ],
      "name": "getUserData",
      "outputs": [
        {
          "internalType": "string",
          "name": "adminUsername",
          "type": "string"
        },
        {
          "internalType": "string",
          "name": "username",
          "type": "string"
        },
        {
          "internalType": "uint256",
          "name": "totalDays",
          "type": "uint256"
        },
        {
          "internalType": "string",
          "name": "dailyPlan",
          "type": "string"
        },
        {
          "internalType": "uint256[]",
          "name": "dates",
          "type": "uint256[]"
        },
        {
          "components": [
            {
              "internalType": "uint256",
              "name": "date",
              "type": "uint256"
            },
            {
              "internalType": "string",
              "name": "info",
              "type": "string"
            }
          ],
          "internalType": "struct UserDataContract.WasteInfo[]",
          "name": "wasteInfos",
          "type": "tuple[]"
        }
      ],
      "stateMutability": "view",
      "type": "function",
      "constant": true
    }
  ],
  "bytecode": "0x60806040523480156200001157600080fd5b506040518060400160405280600d81526020017f5573657244617461546f6b656e000000000000000000000000000000000000008152506040518060400160405280600381526020017f5544540000000000000000000000000000000000000000000000000000000000815250816000908051906020019062000096929190620000b8565b508060019080519060200190620000af929190620000b8565b505050620001cc565b828054620000c69062000197565b90600052602060002090601f016020900481019282620000ea576000855562000136565b82601f106200010557805160ff191683800117855562000136565b8280016001018555821562000136579182015b828111156200013557825182559160200191906001019062000118565b5b50905062000145919062000149565b5090565b5b80821115620001645760008160009055506001016200014a565b5090565b7f4e487b7100000000000000000000000000000000000000000000000000000000600052602260045260246000fd5b60006002820490506001821680620001b057607f821691505b602082108103620001c657620001c562000168565b5b50919050565b6135ad80620001dc6000396000f3fe608060405234801561001057600080fd5b50600436106101005760003560e01c806370a0823111610097578063b88d4fde11610066578063b88d4fde146102c2578063c87b56dd146102de578063cf4b761a1461030e578063e985e9c51461032a57610100565b806370a082311461023c57806386394d6a1461026c57806395d89b4114610288578063a22cb465146102a657610100565b80631fef580c116100d35780631fef580c1461019f57806323b872dd146101d457806342842e0e146101f05780636352211e1461020c57610100565b806301ffc9a71461010557806306fdde0314610135578063081812fc14610153578063095ea7b314610183575b600080fd5b61011f600480360381019061011a919061206f565b61035a565b60405161012c91906120b7565b60405180910390f35b61013d61043c565b60405161014a919061216b565b60405180910390f35b61016d600480360381019061016891906121c3565b6104ce565b60405161017a9190612231565b60405180910390f35b61019d60048036038101906101989190612278565b610514565b005b6101b960048036038101906101b491906121c3565b61062b565b6040516101cb969594939291906124ce565b60405180910390f35b6101ee60048036038101906101e99190612552565b610a04565b005b61020a60048036038101906102059190612552565b610a64565b005b610226600480360381019061022191906121c3565b610a84565b6040516102339190612231565b60405180910390f35b610256600480360381019061025191906125a5565b610b0a565b60405161026391906125d2565b60405180910390f35b610286600480360381019061028191906127ea565b610bc1565b005b610290610dac565b60405161029d919061216b565b60405180910390f35b6102c060048036038101906102bb9190612901565b610e3e565b005b6102dc60048036038101906102d791906129e2565b610e54565b005b6102f860048036038101906102f391906121c3565b610eb6565b604051610305919061216b565b60405180910390f35b61032860048036038101906103239190612a65565b610f1e565b005b610344600480360381019061033f9190612ad4565b611030565b60405161035191906120b7565b60405180910390f35b60007f80ac58cd000000000000000000000000000000000000000000000000000000007bffffffffffffffffffffffffffffffffffffffffffffffffffffffff1916827bffffffffffffffffffffffffffffffffffffffffffffffffffffffff1916148061042557507f5b5e139f000000000000000000000000000000000000000000000000000000007bffffffffffffffffffffffffffffffffffffffffffffffffffffffff1916827bffffffffffffffffffffffffffffffffffffffffffffffffffffffff1916145b806104355750610434826110c4565b5b9050919050565b60606000805461044b90612b43565b80601f016020809104026020016040519081016040528092919081815260200182805461047790612b43565b80156104c45780601f10610499576101008083540402835291602001916104c4565b820191906000526020600020905b8154815290600101906020018083116104a757829003601f168201915b5050505050905090565b60006104d98261112e565b6004600083815260200190815260200160002060009054906101000a900473ffffffffffffffffffffffffffffffffffffffff169050919050565b600061051f82610a84565b90508073ffffffffffffffffffffffffffffffffffffffff168373ffffffffffffffffffffffffffffffffffffffff160361058f576040517f08c379a000000000000000000000000000000000000000000000000000000000815260040161058690612be6565b60405180910390fd5b8073ffffffffffffffffffffffffffffffffffffffff166105ae611179565b73ffffffffffffffffffffffffffffffffffffffff1614806105dd57506105dc816105d7611179565b611030565b5b61061c576040517f08c379a000000000000000000000000000000000000000000000000000000000815260040161061390612c78565b60405180910390fd5b6106268383611181565b505050565b6060806000606080606060006006600089815260200190815260200160002090506000816005018054905067ffffffffffffffff81111561066f5761066e6125f7565b5b6040519080825280602002602001820160405280156106a857816020015b610695611ef9565b81526020019060019003908161068d5790505b50905060005b82600501805490508110156107e05760405180604001604052808460050183815481106106de576106dd612c98565b5b9060005260206000200154815260200184600401600086600501858154811061070a57610709612c98565b5b90600052602060002001548152602001908152602001600020805461072e90612b43565b80601f016020809104026020016040519081016040528092919081815260200182805461075a90612b43565b80156107a75780601f1061077c576101008083540402835291602001916107a7565b820191906000526020600020905b81548152906001019060200180831161078a57829003601f168201915b50505050508152508282815181106107c2576107c1612c98565b5b602002602001018190525080806107d890612cf6565b9150506106ae565b508160000182600101836002015484600301856005018585805461080390612b43565b80601f016020809104026020016040519081016040528092919081815260200182805461082f90612b43565b801561087c5780601f106108515761010080835404028352916020019161087c565b820191906000526020600020905b81548152906001019060200180831161085f57829003601f168201915b5050505050955084805461088f90612b43565b80601f01602080910402602001604051908101604052809291908181526020018280546108bb90612b43565b80156109085780601f106108dd57610100808354040283529160200191610908565b820191906000526020600020905b8154815290600101906020018083116108eb57829003601f168201915b5050505050945082805461091b90612b43565b80601f016020809104026020016040519081016040528092919081815260200182805461094790612b43565b80156109945780601f1061096957610100808354040283529160200191610994565b820191906000526020600020905b81548152906001019060200180831161097757829003601f168201915b50505050509250818054806020026020016040519081016040528092919081815260200182805480156109e657602002820191906000526020600020905b8154815260200190600101908083116109d2575b50505050509150975097509750975097509750505091939550919395565b610a15610a0f611179565b8261123a565b610a54576040517f08c379a0000000000000000000000000000000000000000000000000000000008152600401610a4b90612db0565b60405180910390fd5b610a5f8383836112cf565b505050565b610a7f83838360405180602001604052806000815250610e54565b505050565b600080610a90836115c8565b9050600073ffffffffffffffffffffffffffffffffffffffff168173ffffffffffffffffffffffffffffffffffffffff1603610b01576040517f08c379a0000000000000000000000000000000000000000000000000000000008152600401610af890612e1c565b60405180910390fd5b80915050919050565b60008073ffffffffffffffffffffffffffffffffffffffff168273ffffffffffffffffffffffffffffffffffffffff1603610b7a576040517f08c379a0000000000000000000000000000000000000000000000000000000008152600401610b7190612eae565b60405180910390fd5b600360008373ffffffffffffffffffffffffffffffffffffffff1673ffffffffffffffffffffffffffffffffffffffff168152602001908152602001600020549050919050565b6000855111610c05576040517f08c379a0000000000000000000000000000000000000000000000000000000008152600401610bfc90612f1a565b60405180910390fd5b6000845111610c49576040517f08c379a0000000000000000000000000000000000000000000000000000000008152600401610c4090612f86565b60405180910390fd5b6000600754905060076000815480929190610c6390612cf6565b9190505550600060066000838152602001908152602001600020905086816000019080519060200190610c97929190611f13565b5085816001019080519060200190610cb0929190611f13565b5084816002018190555083816003019080519060200190610cd2929190611f13565b5082816005019080519060200190610ceb929190611f99565b5060005b8351811015610d5e5760405180602001604052806000815250826004016000868481518110610d2157610d20612c98565b5b602002602001015181526020019081526020016000209080519060200190610d4a929190611f13565b508080610d5690612cf6565b915050610cef565b50610d693383611605565b817fc0136e698521b2b54232c22cf5019bdacfde56c9541d8e0466ff06069775ead88888604051610d9b929190612fa6565b60405180910390a250505050505050565b606060018054610dbb90612b43565b80601f0160208091040260200160405190810160405280929190818152602001828054610de790612b43565b8015610e345780601f10610e0957610100808354040283529160200191610e34565b820191906000526020600020905b815481529060010190602001808311610e1757829003601f168201915b5050505050905090565b610e50610e49611179565b8383611623565b5050565b610e65610e5f611179565b8361123a565b610ea4576040517f08c379a0000000000000000000000000000000000000000000000000000000008152600401610e9b90612db0565b60405180910390fd5b610eb08484848461178f565b50505050565b6060610ec18261112e565b6000610ecb6117eb565b90506000815111610eeb5760405180602001604052806000815250610f16565b80610ef584611802565b604051602001610f06929190613019565b6040516020818303038152906040525b915050919050565b610f27836118d0565b610f66576040517f08c379a0000000000000000000000000000000000000000000000000000000008152600401610f5d90613089565b60405180910390fd5b6000600660008581526020019081526020016000209050610f878184611911565b610fc6576040517f08c379a0000000000000000000000000000000000000000000000000000000008152600401610fbd9061311b565b60405180910390fd5b818160040160008581526020019081526020016000209080519060200190610fef929190611f13565b50837f3a5f5e06e633cfc2f53ad3841e8ecc21ef361481f21bdf95753dedfcb52f4251848460405161102292919061313b565b60405180910390a250505050565b6000600560008473ffffffffffffffffffffffffffffffffffffffff1673ffffffffffffffffffffffffffffffffffffffff16815260200190815260200160002060008373ffffffffffffffffffffffffffffffffffffffff1673ffffffffffffffffffffffffffffffffffffffff16815260200190815260200160002060009054906101000a900460ff16905092915050565b60007f01ffc9a7000000000000000000000000000000000000000000000000000000007bffffffffffffffffffffffffffffffffffffffffffffffffffffffff1916827bffffffffffffffffffffffffffffffffffffffffffffffffffffffff1916149050919050565b611137816118d0565b611176576040517f08c379a000000000000000000000000000000000000000000000000000000000815260040161116d90612e1c565b60405180910390fd5b50565b600033905090565b816004600083815260200190815260200160002060006101000a81548173ffffffffffffffffffffffffffffffffffffffff021916908373ffffffffffffffffffffffffffffffffffffffff160217905550808273ffffffffffffffffffffffffffffffffffffffff166111f483610a84565b73ffffffffffffffffffffffffffffffffffffffff167f8c5be1e5ebec7d5bd14f71427d1e84f3dd0314c0f7b2291e5b200ac8c7c3b92560405160405180910390a45050565b60008061124683610a84565b90508073ffffffffffffffffffffffffffffffffffffffff168473ffffffffffffffffffffffffffffffffffffffff16148061128857506112878185611030565b5b806112c657508373ffffffffffffffffffffffffffffffffffffffff166112ae846104ce565b73ffffffffffffffffffffffffffffffffffffffff16145b91505092915050565b8273ffffffffffffffffffffffffffffffffffffffff166112ef82610a84565b73ffffffffffffffffffffffffffffffffffffffff1614611345576040517f08c379a000000000000000000000000000000000000000000000000000000000815260040161133c906131dd565b60405180910390fd5b600073ffffffffffffffffffffffffffffffffffffffff168273ffffffffffffffffffffffffffffffffffffffff16036113b4576040517f08c379a00000000000000000000000000000000000000000000000000000000081526004016113ab9061326f565b60405180910390fd5b6113c18383836001611978565b8273ffffffffffffffffffffffffffffffffffffffff166113e182610a84565b73ffffffffffffffffffffffffffffffffffffffff1614611437576040517f08c379a000000000000000000000000000000000000000000000000000000000815260040161142e906131dd565b60405180910390fd5b6004600082815260200190815260200160002060006101000a81549073ffffffffffffffffffffffffffffffffffffffff02191690556001600360008573ffffffffffffffffffffffffffffffffffffffff1673ffffffffffffffffffffffffffffffffffffffff168152602001908152602001600020600082825403925050819055506001600360008473ffffffffffffffffffffffffffffffffffffffff1673ffffffffffffffffffffffffffffffffffffffff16815260200190815260200160002060008282540192505081905550816002600083815260200190815260200160002060006101000a81548173ffffffffffffffffffffffffffffffffffffffff021916908373ffffffffffffffffffffffffffffffffffffffff160217905550808273ffffffffffffffffffffffffffffffffffffffff168473ffffffffffffffffffffffffffffffffffffffff167fddf252ad1be2c89b69c2b068fc378daa952ba7f163c4a11628f55a4df523b3ef60405160405180910390a46115c3838383600161197e565b505050565b60006002600083815260200190815260200160002060009054906101000a900473ffffffffffffffffffffffffffffffffffffffff169050919050565b61161f828260405180602001604052806000815250611984565b5050565b8173ffffffffffffffffffffffffffffffffffffffff168373ffffffffffffffffffffffffffffffffffffffff1603611691576040517f08c379a0000000000000000000000000000000000000000000000000000000008152600401611688906132db565b60405180910390fd5b80600560008573ffffffffffffffffffffffffffffffffffffffff1673ffffffffffffffffffffffffffffffffffffffff16815260200190815260200160002060008473ffffffffffffffffffffffffffffffffffffffff1673ffffffffffffffffffffffffffffffffffffffff16815260200190815260200160002060006101000a81548160ff0219169083151502179055508173ffffffffffffffffffffffffffffffffffffffff168373ffffffffffffffffffffffffffffffffffffffff167f17307eab39ab6107e8899845ad3d59bd9653f200f220920489ca2b5937696c318360405161178291906120b7565b60405180910390a3505050565b61179a8484846112cf565b6117a6848484846119df565b6117e5576040517f08c379a00000000000000000000000000000000000000000000000000000000081526004016117dc9061336d565b60405180910390fd5b50505050565b606060405180602001604052806000815250905090565b60606000600161181184611b66565b01905060008167ffffffffffffffff8111156118305761182f6125f7565b5b6040519080825280601f01601f1916602001820160405280156118625781602001600182028036833780820191505090505b509050600082602001820190505b6001156118c5578080600190039150507f3031323334353637383961626364656600000000000000000000000000000000600a86061a8153600a85816118b9576118b861338d565b5b04945060008503611870575b819350505050919050565b60008073ffffffffffffffffffffffffffffffffffffffff166118f2836115c8565b73ffffffffffffffffffffffffffffffffffffffff1614159050919050565b600080600090505b836005018054905081101561196c578284600501828154811061193f5761193e612c98565b5b906000526020600020015403611959576001915050611972565b808061196490612cf6565b915050611919565b50600090505b92915050565b50505050565b50505050565b61198e8383611cb9565b61199b60008484846119df565b6119da576040517f08c379a00000000000000000000000000000000000000000000000000000000081526004016119d19061336d565b60405180910390fd5b505050565b6000611a008473ffffffffffffffffffffffffffffffffffffffff16611ed6565b15611b59578373ffffffffffffffffffffffffffffffffffffffff1663150b7a02611a29611179565b8786866040518563ffffffff1660e01b8152600401611a4b9493929190613411565b6020604051808303816000875af1925050508015611a8757506040513d601f19601f82011682018060405250810190611a849190613472565b60015b611b09573d8060008114611ab7576040519150601f19603f3d011682016040523d82523d6000602084013e611abc565b606091505b506000815103611b01576040517f08c379a0000000000000000000000000000000000000000000000000000000008152600401611af89061336d565b60405180910390fd5b805181602001fd5b63150b7a0260e01b7bffffffffffffffffffffffffffffffffffffffffffffffffffffffff1916817bffffffffffffffffffffffffffffffffffffffffffffffffffffffff191614915050611b5e565b600190505b949350505050565b600080600090507a184f03e93ff9f4daa797ed6e38ed64bf6a1f0100000000000000008310611bc4577a184f03e93ff9f4daa797ed6e38ed64bf6a1f0100000000000000008381611bba57611bb961338d565b5b0492506040810190505b6d04ee2d6d415b85acef81000000008310611c01576d04ee2d6d415b85acef81000000008381611bf757611bf661338d565b5b0492506020810190505b662386f26fc100008310611c3057662386f26fc100008381611c2657611c2561338d565b5b0492506010810190505b6305f5e1008310611c59576305f5e1008381611c4f57611c4e61338d565b5b0492506008810190505b6127108310611c7e576127108381611c7457611c7361338d565b5b0492506004810190505b60648310611ca15760648381611c9757611c9661338d565b5b0492506002810190505b600a8310611cb0576001810190505b80915050919050565b600073ffffffffffffffffffffffffffffffffffffffff168273ffffffffffffffffffffffffffffffffffffffff1603611d28576040517f08c379a0000000000000000000000000000000000000000000000000000000008152600401611d1f906134eb565b60405180910390fd5b611d31816118d0565b15611d71576040517f08c379a0000000000000000000000000000000000000000000000000000000008152600401611d6890613557565b60405180910390fd5b611d7f600083836001611978565b611d88816118d0565b15611dc8576040517f08c379a0000000000000000000000000000000000000000000000000000000008152600401611dbf90613557565b60405180910390fd5b6001600360008473ffffffffffffffffffffffffffffffffffffffff1673ffffffffffffffffffffffffffffffffffffffff16815260200190815260200160002060008282540192505081905550816002600083815260200190815260200160002060006101000a81548173ffffffffffffffffffffffffffffffffffffffff021916908373ffffffffffffffffffffffffffffffffffffffff160217905550808273ffffffffffffffffffffffffffffffffffffffff16600073ffffffffffffffffffffffffffffffffffffffff167fddf252ad1be2c89b69c2b068fc378daa952ba7f163c4a11628f55a4df523b3ef60405160405180910390a4611ed260008383600161197e565b5050565b6000808273ffffffffffffffffffffffffffffffffffffffff163b119050919050565b604051806040016040528060008152602001606081525090565b828054611f1f90612b43565b90600052602060002090601f016020900481019282611f415760008555611f88565b82601f10611f5a57805160ff1916838001178555611f88565b82800160010185558215611f88579182015b82811115611f87578251825591602001919060010190611f6c565b5b509050611f959190611fe6565b5090565b828054828255906000526020600020908101928215611fd5579160200282015b82811115611fd4578251825591602001919060010190611fb9565b5b509050611fe29190611fe6565b5090565b5b80821115611fff576000816000905550600101611fe7565b5090565b6000604051905090565b600080fd5b600080fd5b60007fffffffff0000000000000000000000000000000000000000000000000000000082169050919050565b61204c81612017565b811461205757600080fd5b50565b60008135905061206981612043565b92915050565b6000602082840312156120855761208461200d565b5b60006120938482850161205a565b91505092915050565b60008115159050919050565b6120b18161209c565b82525050565b60006020820190506120cc60008301846120a8565b92915050565b600081519050919050565b600082825260208201905092915050565b60005b8381101561210c5780820151818401526020810190506120f1565b8381111561211b576000848401525b50505050565b6000601f19601f8301169050919050565b600061213d826120d2565b61214781856120dd565b93506121578185602086016120ee565b61216081612121565b840191505092915050565b600060208201905081810360008301526121858184612132565b905092915050565b6000819050919050565b6121a08161218d565b81146121ab57600080fd5b50565b6000813590506121bd81612197565b92915050565b6000602082840312156121d9576121d861200d565b5b60006121e7848285016121ae565b91505092915050565b600073ffffffffffffffffffffffffffffffffffffffff82169050919050565b600061221b826121f0565b9050919050565b61222b81612210565b82525050565b60006020820190506122466000830184612222565b92915050565b61225581612210565b811461226057600080fd5b50565b6000813590506122728161224c565b92915050565b6000806040838503121561228f5761228e61200d565b5b600061229d85828601612263565b92505060206122ae858286016121ae565b9150509250929050565b6122c18161218d565b82525050565b600081519050919050565b600082825260208201905092915050565b6000819050602082019050919050565b6122fc8161218d565b82525050565b600061230e83836122f3565b60208301905092915050565b6000602082019050919050565b6000612332826122c7565b61233c81856122d2565b9350612347836122e3565b8060005b8381101561237857815161235f8882612302565b975061236a8361231a565b92505060018101905061234b565b5085935050505092915050565b600081519050919050565b600082825260208201905092915050565b6000819050602082019050919050565b600082825260208201905092915050565b60006123cd826120d2565b6123d781856123b1565b93506123e78185602086016120ee565b6123f081612121565b840191505092915050565b600060408301600083015161241360008601826122f3565b506020830151848203602086015261242b82826123c2565b9150508091505092915050565b600061244483836123fb565b905092915050565b6000602082019050919050565b600061246482612385565b61246e8185612390565b935083602082028501612480856123a1565b8060005b858110156124bc578484038952815161249d8582612438565b94506124a88361244c565b925060208a01995050600181019050612484565b50829750879550505050505092915050565b600060c08201905081810360008301526124e88189612132565b905081810360208301526124fc8188612132565b905061250b60408301876122b8565b818103606083015261251d8186612132565b905081810360808301526125318185612327565b905081810360a08301526125458184612459565b9050979650505050505050565b60008060006060848603121561256b5761256a61200d565b5b600061257986828701612263565b935050602061258a86828701612263565b925050604061259b868287016121ae565b9150509250925092565b6000602082840312156125bb576125ba61200d565b5b60006125c984828501612263565b91505092915050565b60006020820190506125e760008301846122b8565b92915050565b600080fd5b600080fd5b7f4e487b7100000000000000000000000000000000000000000000000000000000600052604160045260246000fd5b61262f82612121565b810181811067ffffffffffffffff8211171561264e5761264d6125f7565b5b80604052505050565b6000612661612003565b905061266d8282612626565b919050565b600067ffffffffffffffff82111561268d5761268c6125f7565b5b61269682612121565b9050602081019050919050565b82818337600083830152505050565b60006126c56126c084612672565b612657565b9050828152602081018484840111156126e1576126e06125f2565b5b6126ec8482856126a3565b509392505050565b600082601f830112612709576127086125ed565b5b81356127198482602086016126b2565b91505092915050565b600067ffffffffffffffff82111561273d5761273c6125f7565b5b602082029050602081019050919050565b600080fd5b600061276661276184612722565b612657565b905080838252602082019050602084028301858111156127895761278861274e565b5b835b818110156127b2578061279e88826121ae565b84526020840193505060208101905061278b565b5050509392505050565b600082601f8301126127d1576127d06125ed565b5b81356127e1848260208601612753565b91505092915050565b600080600080600060a086880312156128065761280561200d565b5b600086013567ffffffffffffffff81111561282457612823612012565b5b612830888289016126f4565b955050602086013567ffffffffffffffff81111561285157612850612012565b5b61285d888289016126f4565b945050604061286e888289016121ae565b935050606086013567ffffffffffffffff81111561288f5761288e612012565b5b61289b888289016126f4565b925050608086013567ffffffffffffffff8111156128bc576128bb612012565b5b6128c8888289016127bc565b9150509295509295909350565b6128de8161209c565b81146128e957600080fd5b50565b6000813590506128fb816128d5565b92915050565b600080604083850312156129185761291761200d565b5b600061292685828601612263565b9250506020612937858286016128ec565b9150509250929050565b600067ffffffffffffffff82111561295c5761295b6125f7565b5b61296582612121565b9050602081019050919050565b600061298561298084612941565b612657565b9050828152602081018484840111156129a1576129a06125f2565b5b6129ac8482856126a3565b509392505050565b600082601f8301126129c9576129c86125ed565b5b81356129d9848260208601612972565b91505092915050565b600080600080608085870312156129fc576129fb61200d565b5b6000612a0a87828801612263565b9450506020612a1b87828801612263565b9350506040612a2c878288016121ae565b925050606085013567ffffffffffffffff811115612a4d57612a4c612012565b5b612a59878288016129b4565b91505092959194509250565b600080600060608486031215612a7e57612a7d61200d565b5b6000612a8c868287016121ae565b9350506020612a9d868287016121ae565b925050604084013567ffffffffffffffff811115612abe57612abd612012565b5b612aca868287016126f4565b9150509250925092565b60008060408385031215612aeb57612aea61200d565b5b6000612af985828601612263565b9250506020612b0a85828601612263565b9150509250929050565b7f4e487b7100000000000000000000000000000000000000000000000000000000600052602260045260246000fd5b60006002820490506001821680612b5b57607f821691505b602082108103612b6e57612b6d612b14565b5b50919050565b7f4552433732313a20617070726f76616c20746f2063757272656e74206f776e6560008201527f7200000000000000000000000000000000000000000000000000000000000000602082015250565b6000612bd06021836120dd565b9150612bdb82612b74565b604082019050919050565b60006020820190508181036000830152612bff81612bc3565b9050919050565b7f4552433732313a20617070726f76652063616c6c6572206973206e6f7420746f60008201527f6b656e206f776e6572206f7220617070726f76656420666f7220616c6c000000602082015250565b6000612c62603d836120dd565b9150612c6d82612c06565b604082019050919050565b60006020820190508181036000830152612c9181612c55565b9050919050565b7f4e487b7100000000000000000000000000000000000000000000000000000000600052603260045260246000fd5b7f4e487b7100000000000000000000000000000000000000000000000000000000600052601160045260246000fd5b6000612d018261218d565b91507fffffffffffffffffffffffffffffffffffffffffffffffffffffffffffffffff8203612d3357612d32612cc7565b5b600182019050919050565b7f4552433732313a2063616c6c6572206973206e6f7420746f6b656e206f776e6560008201527f72206f7220617070726f76656400000000000000000000000000000000000000602082015250565b6000612d9a602d836120dd565b9150612da582612d3e565b604082019050919050565b60006020820190508181036000830152612dc981612d8d565b9050919050565b7f4552433732313a20696e76616c696420746f6b656e2049440000000000000000600082015250565b6000612e066018836120dd565b9150612e1182612dd0565b602082019050919050565b60006020820190508181036000830152612e3581612df9565b9050919050565b7f4552433732313a2061646472657373207a65726f206973206e6f74206120766160008201527f6c6964206f776e65720000000000000000000000000000000000000000000000602082015250565b6000612e986029836120dd565b9150612ea382612e3c565b604082019050919050565b60006020820190508181036000830152612ec781612e8b565b9050919050565b7f41646d696e20557365726e616d652063616e6e6f7420626520656d7074790000600082015250565b6000612f04601e836120dd565b9150612f0f82612ece565b602082019050919050565b60006020820190508181036000830152612f3381612ef7565b9050919050565b7f557365726e616d652063616e6e6f7420626520656d7074790000000000000000600082015250565b6000612f706018836120dd565b9150612f7b82612f3a565b602082019050919050565b60006020820190508181036000830152612f9f81612f63565b9050919050565b60006040820190508181036000830152612fc08185612132565b90508181036020830152612fd48184612132565b90509392505050565b600081905092915050565b6000612ff3826120d2565b612ffd8185612fdd565b935061300d8185602086016120ee565b80840191505092915050565b60006130258285612fe8565b91506130318284612fe8565b91508190509392505050565b7f546f6b656e20494420646f6573206e6f74206578697374000000000000000000600082015250565b60006130736017836120dd565b915061307e8261303d565b602082019050919050565b600060208201905081810360008301526130a281613066565b9050919050565b7f4461746520646f6573206e6f7420657869737420666f7220746869732075736560008201527f7200000000000000000000000000000000000000000000000000000000000000602082015250565b60006131056021836120dd565b9150613110826130a9565b604082019050919050565b60006020820190508181036000830152613134816130f8565b9050919050565b600060408201905061315060008301856122b8565b81810360208301526131628184612132565b90509392505050565b7f4552433732313a207472616e736665722066726f6d20696e636f72726563742060008201527f6f776e6572000000000000000000000000000000000000000000000000000000602082015250565b60006131c76025836120dd565b91506131d28261316b565b604082019050919050565b600060208201905081810360008301526131f6816131ba565b9050919050565b7f4552433732313a207472616e7366657220746f20746865207a65726f2061646460008201527f7265737300000000000000000000000000000000000000000000000000000000602082015250565b60006132596024836120dd565b9150613264826131fd565b604082019050919050565b600060208201905081810360008301526132888161324c565b9050919050565b7f4552433732313a20617070726f766520746f2063616c6c657200000000000000600082015250565b60006132c56019836120dd565b91506132d08261328f565b602082019050919050565b600060208201905081810360008301526132f4816132b8565b9050919050565b7f4552433732313a207472616e7366657220746f206e6f6e20455243373231526560008201527f63656976657220696d706c656d656e7465720000000000000000000000000000602082015250565b60006133576032836120dd565b9150613362826132fb565b604082019050919050565b600060208201905081810360008301526133868161334a565b9050919050565b7f4e487b7100000000000000000000000000000000000000000000000000000000600052601260045260246000fd5b600081519050919050565b600082825260208201905092915050565b60006133e3826133bc565b6133ed81856133c7565b93506133fd8185602086016120ee565b61340681612121565b840191505092915050565b60006080820190506134266000830187612222565b6134336020830186612222565b61344060408301856122b8565b818103606083015261345281846133d8565b905095945050505050565b60008151905061346c81612043565b92915050565b6000602082840312156134885761348761200d565b5b60006134968482850161345d565b91505092915050565b7f4552433732313a206d696e7420746f20746865207a65726f2061646472657373600082015250565b60006134d56020836120dd565b91506134e08261349f565b602082019050919050565b60006020820190508181036000830152613504816134c8565b9050919050565b7f4552433732313a20746f6b656e20616c7265616479206d696e74656400000000600082015250565b6000613541601c836120dd565b915061354c8261350b565b602082019050919050565b6000602082019050818103600083015261357081613534565b905091905056fea2646970667358221220c21d98fee6308ca7c5b430261ce648f16ff3e29496f41f011ff1a062c5be154764736f6c634300080d0033",
  "immutableReferences": {},
  "source": "// SPDX-License-Identifier: MIT\r\npragma solidity ^0.8.0;\r\n\r\nimport \"@openzeppelin/contracts/token/ERC721/ERC721.sol\";\r\n\r\ncontract UserDataContract is ERC721 {\r\n    struct WasteInfo {\r\n        uint256 date;\r\n        string info;\r\n    }\r\n\r\n    struct UserData {\r\n        string adminUsername;\r\n        string username;\r\n        uint256 totalDays;\r\n        string dailyPlan;\r\n        mapping(uint256 => string) wasteInfo; // Mapping from date to wasteInfo\r\n        uint256[] dates;\r\n    }\r\n\r\n    mapping(uint256 => UserData) private userDataMap;\r\n    uint256 private tokenIdCounter;\r\n\r\n    constructor() ERC721(\"UserDataToken\", \"UDT\") {}\r\n\r\n    event UserRegistered(\r\n        uint256 indexed tokenId,\r\n        string adminUsername,\r\n        string username\r\n    );\r\n    event DailyPlanUpdated(uint256 indexed tokenId, string newDailyPlan);\r\n    event AdminUsernameUpdated(\r\n        uint256 indexed tokenId,\r\n        string newAdminUsername\r\n    );\r\n    event UsernameUpdated(uint256 indexed tokenId, string newUsername);\r\n    event TotalDaysUpdated(uint256 indexed tokenId, uint256 newTotalDays);\r\n    event DatesUpdated(uint256 indexed tokenId, uint256[] newDates);\r\n    event WasteInfoUpdated(uint256 indexed tokenId, uint256 date, string newWasteInfo);\r\n\r\n    function registerUser(\r\n        string memory _adminUsername,\r\n        string memory _username,\r\n        uint256 _totalDays,\r\n        string memory _dailyPlan,\r\n        uint256[] memory _dates\r\n    ) external {\r\n        require(bytes(_adminUsername).length > 0, \"Admin Username cannot be empty\");\r\n        require(bytes(_username).length > 0, \"Username cannot be empty\");\r\n\r\n        uint256 newTokenId = tokenIdCounter;\r\n        tokenIdCounter++;\r\n\r\n        UserData storage userData = userDataMap[newTokenId];\r\n\r\n        userData.adminUsername = _adminUsername;\r\n        userData.username = _username;\r\n        userData.totalDays = _totalDays;\r\n        userData.dailyPlan = _dailyPlan;\r\n        userData.dates = _dates;\r\n\r\n        for (uint256 i = 0; i < _dates.length; i++) {\r\n            userData.wasteInfo[_dates[i]] = \"\"; // Initialize wasteInfo for each date\r\n        }\r\n\r\n        _safeMint(msg.sender, newTokenId);\r\n\r\n        emit UserRegistered(newTokenId, _adminUsername, _username);\r\n    }\r\n\r\n    function updateWasteInfo(\r\n        uint256 _tokenId,\r\n        uint256 _date,\r\n        string memory _wasteInfo\r\n    ) external {\r\n        require(_exists(_tokenId), \"Token ID does not exist\");\r\n        UserData storage userData = userDataMap[_tokenId];\r\n        require(_dateExists(userData, _date), \"Date does not exist for this user\");\r\n        userData.wasteInfo[_date] = _wasteInfo;\r\n        emit WasteInfoUpdated(_tokenId, _date, _wasteInfo);\r\n    }\r\n\r\n    function _dateExists(UserData storage _userData, uint256 _date) private view returns (bool) {\r\n        for (uint256 i = 0; i < _userData.dates.length; i++) {\r\n            if (_userData.dates[i] == _date) {\r\n                return true;\r\n            }\r\n        }\r\n        return false;\r\n    }\r\n\r\n    function getUserData(\r\n        uint256 _tokenId\r\n    )\r\n        external\r\n        view\r\n        returns (\r\n            string memory adminUsername,\r\n            string memory username,\r\n            uint256 totalDays,\r\n            string memory dailyPlan,\r\n            uint256[] memory dates,\r\n            WasteInfo[] memory wasteInfos\r\n        )\r\n    {\r\n        UserData storage userData = userDataMap[_tokenId];\r\n        WasteInfo[] memory _wasteInfos = new WasteInfo[](userData.dates.length);\r\n        for (uint256 i = 0; i < userData.dates.length; i++) {\r\n            _wasteInfos[i] = WasteInfo(userData.dates[i], userData.wasteInfo[userData.dates[i]]);\r\n        }\r\n        return (\r\n            userData.adminUsername,\r\n            userData.username,\r\n            userData.totalDays,\r\n            userData.dailyPlan,\r\n            userData.dates,\r\n            _wasteInfos\r\n        );\r\n    }\r\n}\r\n",
  "sourcePath": "C:\\Users\\Yash kanjariya\\Desktop\\Projects\\AOH_BoiledRice\\web3\\contracts\\userdata.sol",
  "compiler": {
    "name": "solc",
    "version": "0.8.13+commit.abaa5c0e.Emscripten.clang"
  },
  "schemaVersion": "3.4.16",
  "updatedAt": "2024-03-31T05:02:43.105Z",
  "networkType": "ethereum",
  "devdoc": {
    "kind": "dev",
    "methods": {
      "approve(address,uint256)": {
        "details": "See {IERC721-approve}."
      },
      "balanceOf(address)": {
        "details": "See {IERC721-balanceOf}."
      },
      "getApproved(uint256)": {
        "details": "See {IERC721-getApproved}."
      },
      "isApprovedForAll(address,address)": {
        "details": "See {IERC721-isApprovedForAll}."
      },
      "name()": {
        "details": "See {IERC721Metadata-name}."
      },
      "ownerOf(uint256)": {
        "details": "See {IERC721-ownerOf}."
      },
      "safeTransferFrom(address,address,uint256)": {
        "details": "See {IERC721-safeTransferFrom}."
      },
      "safeTransferFrom(address,address,uint256,bytes)": {
        "details": "See {IERC721-safeTransferFrom}."
      },
      "setApprovalForAll(address,bool)": {
        "details": "See {IERC721-setApprovalForAll}."
      },
      "supportsInterface(bytes4)": {
        "details": "See {IERC165-supportsInterface}."
      },
      "symbol()": {
        "details": "See {IERC721Metadata-symbol}."
      },
      "tokenURI(uint256)": {
        "details": "See {IERC721Metadata-tokenURI}."
      },
      "transferFrom(address,address,uint256)": {
        "details": "See {IERC721-transferFrom}."
      }
    },
    "version": 1
  },
  "userdoc": {
    "kind": "user",
    "methods": {},
    "version": 1
  }
}